{
  "_format": "hh-sol-artifact-1",
  "contractName": "ArbitrumSepoliaSender",
  "sourceName": "contracts/ccip/ArbitrumSender.sol",
  "abi": [
    {
      "inputs": [
        {
          "internalType": "uint64",
          "name": "_selector",
          "type": "uint64"
        },
        {
          "internalType": "address",
          "name": "_router",
          "type": "address"
        }
      ],
      "stateMutability": "nonpayable",
      "type": "constructor"
    },
    {
      "inputs": [
        {
          "internalType": "address",
          "name": "owner",
          "type": "address"
        }
      ],
      "name": "OwnableInvalidOwner",
      "type": "error"
    },
    {
      "inputs": [
        {
          "internalType": "address",
          "name": "account",
          "type": "address"
        }
      ],
      "name": "OwnableUnauthorizedAccount",
      "type": "error"
    },
    {
      "anonymous": false,
      "inputs": [
        {
          "indexed": true,
          "internalType": "address",
          "name": "previousOwner",
          "type": "address"
        },
        {
          "indexed": true,
          "internalType": "address",
          "name": "newOwner",
          "type": "address"
        }
      ],
      "name": "OwnershipTransferred",
      "type": "event"
    },
    {
      "anonymous": false,
      "inputs": [
        {
          "indexed": false,
          "internalType": "address",
          "name": "tenant",
          "type": "address"
        },
        {
          "indexed": false,
          "internalType": "uint256",
          "name": "propertyId",
          "type": "uint256"
        },
        {
          "indexed": false,
          "internalType": "uint256",
          "name": "rentAmount",
          "type": "uint256"
        },
        {
          "indexed": false,
          "internalType": "bool",
          "name": "autoRequest",
          "type": "bool"
        }
      ],
      "name": "RentSent",
      "type": "event"
    },
    {
      "inputs": [],
      "name": "destinationChainSelector",
      "outputs": [
        {
          "internalType": "uint64",
          "name": "",
          "type": "uint64"
        }
      ],
      "stateMutability": "view",
      "type": "function"
    },
    {
      "inputs": [],
      "name": "owner",
      "outputs": [
        {
          "internalType": "address",
          "name": "",
          "type": "address"
        }
      ],
      "stateMutability": "view",
      "type": "function"
    },
    {
      "inputs": [],
      "name": "receiver",
      "outputs": [
        {
          "internalType": "address",
          "name": "",
          "type": "address"
        }
      ],
      "stateMutability": "view",
      "type": "function"
    },
    {
      "inputs": [],
      "name": "renounceOwnership",
      "outputs": [],
      "stateMutability": "nonpayable",
      "type": "function"
    },
    {
      "inputs": [],
      "name": "router",
      "outputs": [
        {
          "internalType": "contract IRouterClient",
          "name": "",
          "type": "address"
        }
      ],
      "stateMutability": "view",
      "type": "function"
    },
    {
      "inputs": [
        {
          "internalType": "uint256",
          "name": "_propertyId",
          "type": "uint256"
        }
      ],
      "name": "sendRental",
      "outputs": [],
      "stateMutability": "payable",
      "type": "function"
    },
    {
      "inputs": [
        {
          "internalType": "address",
          "name": "_receiver",
          "type": "address"
        }
      ],
      "name": "setReceiverContract",
      "outputs": [],
      "stateMutability": "nonpayable",
      "type": "function"
    },
    {
      "inputs": [
        {
          "internalType": "address",
          "name": "newOwner",
          "type": "address"
        }
      ],
      "name": "transferOwnership",
      "outputs": [],
      "stateMutability": "nonpayable",
      "type": "function"
    },
    {
      "stateMutability": "payable",
      "type": "receive"
    }
  ],
  "bytecode": "0x608060405234801561001057600080fd5b5060405161132f38038061132f8339818101604052810190610032919061028d565b33600073ffffffffffffffffffffffffffffffffffffffff168173ffffffffffffffffffffffffffffffffffffffff16036100a55760006040517f1e4fbdf700000000000000000000000000000000000000000000000000000000815260040161009c91906102dc565b60405180910390fd5b6100b48161012660201b60201c565b5081600160146101000a81548167ffffffffffffffff021916908367ffffffffffffffff16021790555080600260006101000a81548173ffffffffffffffffffffffffffffffffffffffff021916908373ffffffffffffffffffffffffffffffffffffffff16021790555050506102f7565b60008060009054906101000a900473ffffffffffffffffffffffffffffffffffffffff169050816000806101000a81548173ffffffffffffffffffffffffffffffffffffffff021916908373ffffffffffffffffffffffffffffffffffffffff1602179055508173ffffffffffffffffffffffffffffffffffffffff168173ffffffffffffffffffffffffffffffffffffffff167f8be0079c531659141344cd1fd0a4f28419497f9722a3daafe3b4186f6b6457e060405160405180910390a35050565b600080fd5b600067ffffffffffffffff82169050919050565b61020c816101ef565b811461021757600080fd5b50565b60008151905061022981610203565b92915050565b600073ffffffffffffffffffffffffffffffffffffffff82169050919050565b600061025a8261022f565b9050919050565b61026a8161024f565b811461027557600080fd5b50565b60008151905061028781610261565b92915050565b600080604083850312156102a4576102a36101ea565b5b60006102b28582860161021a565b92505060206102c385828601610278565b9150509250929050565b6102d68161024f565b82525050565b60006020820190506102f160008301846102cd565b92915050565b611029806103066000396000f3fe60806040526004361061007f5760003560e01c80638da5cb5b1161004e5780638da5cb5b14610112578063f2fde38b1461013d578063f7260d3e14610166578063f887ea401461019157610086565b806331db1ffc1461008b57806337214ad0146100b6578063715018a6146100df5780637d4889c4146100f657610086565b3661008657005b600080fd5b34801561009757600080fd5b506100a06101bc565b6040516100ad91906108e3565b60405180910390f35b3480156100c257600080fd5b506100dd60048036038101906100d89190610961565b6101d6565b005b3480156100eb57600080fd5b506100f461021a565b005b610110600480360381019061010b91906109c4565b61022e565b005b34801561011e57600080fd5b50610127610642565b6040516101349190610a00565b60405180910390f35b34801561014957600080fd5b50610164600480360381019061015f9190610961565b61066b565b005b34801561017257600080fd5b5061017b6106f1565b6040516101889190610a00565b60405180910390f35b34801561019d57600080fd5b506101a6610717565b6040516101b39190610a7a565b60405180910390f35b600160149054906101000a900467ffffffffffffffff1681565b80600160006101000a81548173ffffffffffffffffffffffffffffffffffffffff021916908373ffffffffffffffffffffffffffffffffffffffff16021790555050565b61022261073d565b61022c60006107c4565b565b600073ffffffffffffffffffffffffffffffffffffffff16600160009054906101000a900473ffffffffffffffffffffffffffffffffffffffff1673ffffffffffffffffffffffffffffffffffffffff16036102bf576040517f08c379a00000000000000000000000000000000000000000000000000000000081526004016102b690610af2565b60405180910390fd5b60003411610302576040517f08c379a00000000000000000000000000000000000000000000000000000000081526004016102f990610b5e565b60405180910390fd5b600060405180608001604052803373ffffffffffffffffffffffffffffffffffffffff1681526020018381526020013481526020016001151581525090506000816040516020016103539190610c0c565b604051602081830303815290604052905060006040518060a00160405280600160009054906101000a900473ffffffffffffffffffffffffffffffffffffffff166040516020016103a49190610a00565b6040516020818303038152906040528152602001838152602001600067ffffffffffffffff8111156103d9576103d8610c27565b5b60405190808252806020026020018201604052801561041257816020015b6103ff610890565b8152602001906001900390816103f75790505b508152602001600073ffffffffffffffffffffffffffffffffffffffff1681526020016040518060200160405280600081525081525090506000600260009054906101000a900473ffffffffffffffffffffffffffffffffffffffff1673ffffffffffffffffffffffffffffffffffffffff166320487ded600160149054906101000a900467ffffffffffffffff16846040518363ffffffff1660e01b81526004016104bf929190610e4f565b602060405180830381865afa1580156104dc573d6000803e3d6000fd5b505050506040513d601f19601f820116820180604052508101906105009190610e94565b905080471015610545576040517f08c379a000000000000000000000000000000000000000000000000000000000815260040161053c90610f0d565b60405180910390fd5b600260009054906101000a900473ffffffffffffffffffffffffffffffffffffffff1673ffffffffffffffffffffffffffffffffffffffff166396f4e9f982600160149054906101000a900467ffffffffffffffff16856040518463ffffffff1660e01b81526004016105b9929190610e4f565b60206040518083038185885af11580156105d7573d6000803e3d6000fd5b50505050506040513d601f19601f820116820180604052508101906105fc9190610f63565b507f0e1da8b84a84bc83a5a17e4ed700822a16b66da1bd3ae2efd3b6dfb5ac4ed82c33863460016040516106339493929190610fae565b60405180910390a15050505050565b60008060009054906101000a900473ffffffffffffffffffffffffffffffffffffffff16905090565b61067361073d565b600073ffffffffffffffffffffffffffffffffffffffff168173ffffffffffffffffffffffffffffffffffffffff16036106e55760006040517f1e4fbdf70000000000000000000000000000000000000000000000000000000081526004016106dc9190610a00565b60405180910390fd5b6106ee816107c4565b50565b600160009054906101000a900473ffffffffffffffffffffffffffffffffffffffff1681565b600260009054906101000a900473ffffffffffffffffffffffffffffffffffffffff1681565b610745610888565b73ffffffffffffffffffffffffffffffffffffffff16610763610642565b73ffffffffffffffffffffffffffffffffffffffff16146107c257610786610888565b6040517f118cdaa70000000000000000000000000000000000000000000000000000000081526004016107b99190610a00565b60405180910390fd5b565b60008060009054906101000a900473ffffffffffffffffffffffffffffffffffffffff169050816000806101000a81548173ffffffffffffffffffffffffffffffffffffffff021916908373ffffffffffffffffffffffffffffffffffffffff1602179055508173ffffffffffffffffffffffffffffffffffffffff168173ffffffffffffffffffffffffffffffffffffffff167f8be0079c531659141344cd1fd0a4f28419497f9722a3daafe3b4186f6b6457e060405160405180910390a35050565b600033905090565b6040518060400160405280600073ffffffffffffffffffffffffffffffffffffffff168152602001600081525090565b600067ffffffffffffffff82169050919050565b6108dd816108c0565b82525050565b60006020820190506108f860008301846108d4565b92915050565b600080fd5b600073ffffffffffffffffffffffffffffffffffffffff82169050919050565b600061092e82610903565b9050919050565b61093e81610923565b811461094957600080fd5b50565b60008135905061095b81610935565b92915050565b600060208284031215610977576109766108fe565b5b60006109858482850161094c565b91505092915050565b6000819050919050565b6109a18161098e565b81146109ac57600080fd5b50565b6000813590506109be81610998565b92915050565b6000602082840312156109da576109d96108fe565b5b60006109e8848285016109af565b91505092915050565b6109fa81610923565b82525050565b6000602082019050610a1560008301846109f1565b92915050565b6000819050919050565b6000610a40610a3b610a3684610903565b610a1b565b610903565b9050919050565b6000610a5282610a25565b9050919050565b6000610a6482610a47565b9050919050565b610a7481610a59565b82525050565b6000602082019050610a8f6000830184610a6b565b92915050565b600082825260208201905092915050565b7f4e6f20726563656976657220636f6e7472616374207365740000000000000000600082015250565b6000610adc601883610a95565b9150610ae782610aa6565b602082019050919050565b60006020820190508181036000830152610b0b81610acf565b9050919050565b7f496e76616c696420416d6f756e74000000000000000000000000000000000000600082015250565b6000610b48600e83610a95565b9150610b5382610b12565b602082019050919050565b60006020820190508181036000830152610b7781610b3b565b9050919050565b610b8781610923565b82525050565b610b968161098e565b82525050565b60008115159050919050565b610bb181610b9c565b82525050565b608082016000820151610bcd6000850182610b7e565b506020820151610be06020850182610b8d565b506040820151610bf36040850182610b8d565b506060820151610c066060850182610ba8565b50505050565b6000608082019050610c216000830184610bb7565b92915050565b7f4e487b7100000000000000000000000000000000000000000000000000000000600052604160045260246000fd5b600081519050919050565b600082825260208201905092915050565b60005b83811015610c90578082015181840152602081019050610c75565b60008484015250505050565b6000601f19601f8301169050919050565b6000610cb882610c56565b610cc28185610c61565b9350610cd2818560208601610c72565b610cdb81610c9c565b840191505092915050565b600081519050919050565b600082825260208201905092915050565b6000819050602082019050919050565b604082016000820151610d286000850182610b7e565b506020820151610d3b6020850182610b8d565b50505050565b6000610d4d8383610d12565b60408301905092915050565b6000602082019050919050565b6000610d7182610ce6565b610d7b8185610cf1565b9350610d8683610d02565b8060005b83811015610db7578151610d9e8882610d41565b9750610da983610d59565b925050600181019050610d8a565b5085935050505092915050565b600060a0830160008301518482036000860152610de18282610cad565b91505060208301518482036020860152610dfb8282610cad565b91505060408301518482036040860152610e158282610d66565b9150506060830151610e2a6060860182610b7e565b5060808301518482036080860152610e428282610cad565b9150508091505092915050565b6000604082019050610e6460008301856108d4565b8181036020830152610e768184610dc4565b90509392505050565b600081519050610e8e81610998565b92915050565b600060208284031215610eaa57610ea96108fe565b5b6000610eb884828501610e7f565b91505092915050565b7f4e6f7420656e6f7567682045544820666f722043434950206665650000000000600082015250565b6000610ef7601b83610a95565b9150610f0282610ec1565b602082019050919050565b60006020820190508181036000830152610f2681610eea565b9050919050565b6000819050919050565b610f4081610f2d565b8114610f4b57600080fd5b50565b600081519050610f5d81610f37565b92915050565b600060208284031215610f7957610f786108fe565b5b6000610f8784828501610f4e565b91505092915050565b610f998161098e565b82525050565b610fa881610b9c565b82525050565b6000608082019050610fc360008301876109f1565b610fd06020830186610f90565b610fdd6040830185610f90565b610fea6060830184610f9f565b9594505050505056fea26469706673582212204af1d44c8928b0daba31b1e0c953a60cfc1ea32cb09a4544034848ca11be624e64736f6c634300081c0033",
  "linkReferences": {},
  "deployedLinkReferences": {}
}