{
  "_format": "hh-sol-artifact-1",
  "contractName": "ImmovableRental",
  "sourceName": "contracts/ImmovableRental.sol",
  "abi": [
    {
      "inputs": [],
      "stateMutability": "nonpayable",
      "type": "constructor"
    },
    {
      "inputs": [],
      "name": "ReentrancyGuardReentrantCall",
      "type": "error"
    },
    {
      "anonymous": false,
      "inputs": [
        {
          "indexed": true,
          "internalType": "address",
          "name": "landlord",
          "type": "address"
        },
        {
          "indexed": false,
          "internalType": "bool",
          "name": "isRegistered",
          "type": "bool"
        }
      ],
      "name": "LandlordRegistered",
      "type": "event"
    },
    {
      "anonymous": false,
      "inputs": [
        {
          "indexed": true,
          "internalType": "address",
          "name": "landlord",
          "type": "address"
        },
        {
          "indexed": false,
          "internalType": "bool",
          "name": "isRegistered",
          "type": "bool"
        }
      ],
      "name": "PropertyRegistered",
      "type": "event"
    },
    {
      "anonymous": false,
      "inputs": [
        {
          "indexed": true,
          "internalType": "address",
          "name": "tenant",
          "type": "address"
        },
        {
          "indexed": false,
          "internalType": "uint256",
          "name": "propertyId",
          "type": "uint256"
        }
      ],
      "name": "PropertyRequested",
      "type": "event"
    },
    {
      "anonymous": false,
      "inputs": [
        {
          "indexed": true,
          "internalType": "address",
          "name": "landlord",
          "type": "address"
        },
        {
          "indexed": true,
          "internalType": "address",
          "name": "tenant",
          "type": "address"
        },
        {
          "indexed": false,
          "internalType": "uint256",
          "name": "amount",
          "type": "uint256"
        }
      ],
      "name": "RentPaid",
      "type": "event"
    },
    {
      "anonymous": false,
      "inputs": [
        {
          "indexed": true,
          "internalType": "address",
          "name": "landlord",
          "type": "address"
        },
        {
          "indexed": true,
          "internalType": "address",
          "name": "tenant",
          "type": "address"
        },
        {
          "indexed": false,
          "internalType": "uint256",
          "name": "rentalId",
          "type": "uint256"
        }
      ],
      "name": "RentalSigned",
      "type": "event"
    },
    {
      "anonymous": false,
      "inputs": [
        {
          "indexed": true,
          "internalType": "address",
          "name": "tenant",
          "type": "address"
        },
        {
          "indexed": false,
          "internalType": "bool",
          "name": "isRegistered",
          "type": "bool"
        }
      ],
      "name": "TenantRegistered",
      "type": "event"
    },
    {
      "anonymous": false,
      "inputs": [
        {
          "indexed": true,
          "internalType": "address",
          "name": "user",
          "type": "address"
        },
        {
          "indexed": false,
          "internalType": "uint256",
          "name": "amount",
          "type": "uint256"
        }
      ],
      "name": "Withdrawn",
      "type": "event"
    },
    {
      "inputs": [
        {
          "internalType": "uint64",
          "name": "",
          "type": "uint64"
        },
        {
          "internalType": "address",
          "name": "",
          "type": "address"
        }
      ],
      "name": "allowedSenderPerChain",
      "outputs": [
        {
          "internalType": "bool",
          "name": "",
          "type": "bool"
        }
      ],
      "stateMutability": "view",
      "type": "function"
    },
    {
      "inputs": [],
      "name": "autoRentalPayment",
      "outputs": [],
      "stateMutability": "nonpayable",
      "type": "function"
    },
    {
      "inputs": [],
      "name": "checkAllTimeouts",
      "outputs": [],
      "stateMutability": "nonpayable",
      "type": "function"
    },
    {
      "inputs": [
        {
          "internalType": "bytes",
          "name": "",
          "type": "bytes"
        }
      ],
      "name": "checkUpkeep",
      "outputs": [
        {
          "internalType": "bool",
          "name": "upkeepNeeded",
          "type": "bool"
        },
        {
          "internalType": "bytes",
          "name": "performData",
          "type": "bytes"
        }
      ],
      "stateMutability": "view",
      "type": "function"
    },
    {
      "inputs": [],
      "name": "indexedProperty",
      "outputs": [
        {
          "internalType": "uint256",
          "name": "",
          "type": "uint256"
        }
      ],
      "stateMutability": "view",
      "type": "function"
    },
    {
      "inputs": [],
      "name": "indexedRental",
      "outputs": [
        {
          "internalType": "uint256",
          "name": "",
          "type": "uint256"
        }
      ],
      "stateMutability": "view",
      "type": "function"
    },
    {
      "inputs": [
        {
          "internalType": "bytes32",
          "name": "",
          "type": "bytes32"
        }
      ],
      "name": "isPropertyRegistered",
      "outputs": [
        {
          "internalType": "bool",
          "name": "",
          "type": "bool"
        }
      ],
      "stateMutability": "view",
      "type": "function"
    },
    {
      "inputs": [
        {
          "internalType": "address",
          "name": "",
          "type": "address"
        }
      ],
      "name": "landlordProfile",
      "outputs": [
        {
          "internalType": "address",
          "name": "user",
          "type": "address"
        },
        {
          "internalType": "uint256",
          "name": "balance",
          "type": "uint256"
        },
        {
          "internalType": "bool",
          "name": "isRegistered",
          "type": "bool"
        },
        {
          "internalType": "bool",
          "name": "hasProperties",
          "type": "bool"
        }
      ],
      "stateMutability": "view",
      "type": "function"
    },
    {
      "inputs": [
        {
          "internalType": "uint256",
          "name": "",
          "type": "uint256"
        }
      ],
      "name": "listedProperties",
      "outputs": [
        {
          "internalType": "uint256",
          "name": "propertyId",
          "type": "uint256"
        },
        {
          "internalType": "address",
          "name": "landlord",
          "type": "address"
        },
        {
          "internalType": "string",
          "name": "location",
          "type": "string"
        },
        {
          "internalType": "string",
          "name": "name",
          "type": "string"
        },
        {
          "internalType": "uint256",
          "name": "rentAmount",
          "type": "uint256"
        },
        {
          "internalType": "address",
          "name": "requestedBy",
          "type": "address"
        },
        {
          "internalType": "bool",
          "name": "isOccupied",
          "type": "bool"
        },
        {
          "internalType": "bool",
          "name": "tenantRequest",
          "type": "bool"
        },
        {
          "internalType": "bool",
          "name": "isRegistered",
          "type": "bool"
        }
      ],
      "stateMutability": "view",
      "type": "function"
    },
    {
      "inputs": [],
      "name": "owner",
      "outputs": [
        {
          "internalType": "address",
          "name": "",
          "type": "address"
        }
      ],
      "stateMutability": "view",
      "type": "function"
    },
    {
      "inputs": [
        {
          "internalType": "bytes",
          "name": "performData",
          "type": "bytes"
        }
      ],
      "name": "performUpkeep",
      "outputs": [],
      "stateMutability": "nonpayable",
      "type": "function"
    },
    {
      "inputs": [
        {
          "internalType": "uint256",
          "name": "_propertyId",
          "type": "uint256"
        }
      ],
      "name": "propertyRentRequest",
      "outputs": [],
      "stateMutability": "nonpayable",
      "type": "function"
    },
    {
      "inputs": [],
      "name": "registerLandLord",
      "outputs": [],
      "stateMutability": "nonpayable",
      "type": "function"
    },
    {
      "inputs": [
        {
          "internalType": "string",
          "name": "_location",
          "type": "string"
        },
        {
          "internalType": "string",
          "name": "_name",
          "type": "string"
        },
        {
          "internalType": "uint256",
          "name": "_amount",
          "type": "uint256"
        }
      ],
      "name": "registerProperties",
      "outputs": [],
      "stateMutability": "nonpayable",
      "type": "function"
    },
    {
      "inputs": [],
      "name": "registerTenant",
      "outputs": [],
      "stateMutability": "nonpayable",
      "type": "function"
    },
    {
      "inputs": [
        {
          "internalType": "uint256",
          "name": "",
          "type": "uint256"
        }
      ],
      "name": "rentalReceipts",
      "outputs": [
        {
          "internalType": "uint256",
          "name": "rentalId",
          "type": "uint256"
        },
        {
          "internalType": "address",
          "name": "landlord",
          "type": "address"
        },
        {
          "internalType": "address",
          "name": "tenant",
          "type": "address"
        },
        {
          "internalType": "uint256",
          "name": "propertyId",
          "type": "uint256"
        },
        {
          "internalType": "string",
          "name": "propertyName",
          "type": "string"
        },
        {
          "internalType": "uint256",
          "name": "startDate",
          "type": "uint256"
        },
        {
          "internalType": "uint256",
          "name": "endDate",
          "type": "uint256"
        },
        {
          "internalType": "bool",
          "name": "isSigned",
          "type": "bool"
        },
        {
          "internalType": "bool",
          "name": "isReleased",
          "type": "bool"
        },
        {
          "internalType": "bool",
          "name": "isPaid",
          "type": "bool"
        }
      ],
      "stateMutability": "view",
      "type": "function"
    },
    {
      "inputs": [],
      "name": "returnAllProperties",
      "outputs": [
        {
          "components": [
            {
              "internalType": "uint256",
              "name": "propertyId",
              "type": "uint256"
            },
            {
              "internalType": "address",
              "name": "landlord",
              "type": "address"
            },
            {
              "internalType": "string",
              "name": "location",
              "type": "string"
            },
            {
              "internalType": "string",
              "name": "name",
              "type": "string"
            },
            {
              "internalType": "uint256",
              "name": "rentAmount",
              "type": "uint256"
            },
            {
              "internalType": "address",
              "name": "requestedBy",
              "type": "address"
            },
            {
              "internalType": "bool",
              "name": "isOccupied",
              "type": "bool"
            },
            {
              "internalType": "bool",
              "name": "tenantRequest",
              "type": "bool"
            },
            {
              "internalType": "bool",
              "name": "isRegistered",
              "type": "bool"
            }
          ],
          "internalType": "struct ImmovableRental.Properties[]",
          "name": "",
          "type": "tuple[]"
        }
      ],
      "stateMutability": "view",
      "type": "function"
    },
    {
      "inputs": [],
      "name": "returnLandlordProfile",
      "outputs": [
        {
          "components": [
            {
              "internalType": "address",
              "name": "user",
              "type": "address"
            },
            {
              "internalType": "uint256",
              "name": "balance",
              "type": "uint256"
            },
            {
              "internalType": "bool",
              "name": "isRegistered",
              "type": "bool"
            },
            {
              "internalType": "bool",
              "name": "hasProperties",
              "type": "bool"
            }
          ],
          "internalType": "struct ImmovableRental.Landlord",
          "name": "",
          "type": "tuple"
        }
      ],
      "stateMutability": "view",
      "type": "function"
    },
    {
      "inputs": [],
      "name": "returnRental",
      "outputs": [
        {
          "components": [
            {
              "internalType": "uint256",
              "name": "rentalId",
              "type": "uint256"
            },
            {
              "internalType": "address",
              "name": "landlord",
              "type": "address"
            },
            {
              "internalType": "address",
              "name": "tenant",
              "type": "address"
            },
            {
              "internalType": "uint256",
              "name": "propertyId",
              "type": "uint256"
            },
            {
              "internalType": "string",
              "name": "propertyName",
              "type": "string"
            },
            {
              "internalType": "uint256",
              "name": "startDate",
              "type": "uint256"
            },
            {
              "internalType": "uint256",
              "name": "endDate",
              "type": "uint256"
            },
            {
              "internalType": "bool",
              "name": "isSigned",
              "type": "bool"
            },
            {
              "internalType": "bool",
              "name": "isReleased",
              "type": "bool"
            },
            {
              "internalType": "bool",
              "name": "isPaid",
              "type": "bool"
            }
          ],
          "internalType": "struct ImmovableRental.TenantsReceipt",
          "name": "",
          "type": "tuple"
        }
      ],
      "stateMutability": "view",
      "type": "function"
    },
    {
      "inputs": [],
      "name": "returnTenantProfiles",
      "outputs": [
        {
          "components": [
            {
              "internalType": "address",
              "name": "user",
              "type": "address"
            },
            {
              "internalType": "uint256",
              "name": "balance",
              "type": "uint256"
            },
            {
              "internalType": "bool",
              "name": "hasActiveRent",
              "type": "bool"
            },
            {
              "internalType": "bool",
              "name": "isRegistered",
              "type": "bool"
            }
          ],
          "internalType": "struct ImmovableRental.Tenant",
          "name": "",
          "type": "tuple"
        }
      ],
      "stateMutability": "view",
      "type": "function"
    },
    {
      "inputs": [
        {
          "internalType": "uint256",
          "name": "_durationInDays",
          "type": "uint256"
        }
      ],
      "name": "signRental",
      "outputs": [],
      "stateMutability": "nonpayable",
      "type": "function"
    },
    {
      "inputs": [],
      "name": "tenantDeposit",
      "outputs": [],
      "stateMutability": "payable",
      "type": "function"
    },
    {
      "inputs": [
        {
          "internalType": "address",
          "name": "",
          "type": "address"
        }
      ],
      "name": "tenants",
      "outputs": [
        {
          "internalType": "address",
          "name": "user",
          "type": "address"
        },
        {
          "internalType": "uint256",
          "name": "balance",
          "type": "uint256"
        },
        {
          "internalType": "bool",
          "name": "hasActiveRent",
          "type": "bool"
        },
        {
          "internalType": "bool",
          "name": "isRegistered",
          "type": "bool"
        }
      ],
      "stateMutability": "view",
      "type": "function"
    },
    {
      "inputs": [
        {
          "internalType": "uint256",
          "name": "_amount",
          "type": "uint256"
        }
      ],
      "name": "userWithdraw",
      "outputs": [],
      "stateMutability": "nonpayable",
      "type": "function"
    },
    {
      "stateMutability": "payable",
      "type": "receive"
    }
  ],
  "bytecode": "0x6080604052348015600f57600080fd5b50600160008190555033600860006101000a81548173ffffffffffffffffffffffffffffffffffffffff021916908373ffffffffffffffffffffffffffffffffffffffff160217905550615191806100686000396000f3fe60806040526004361061014f5760003560e01c80636e04ff0d116100b6578063a75e69fa1161006f578063a75e69fa14610464578063ae26df9b1461046e578063d1c13abd146104ab578063d6ab0cd3146104d6578063e43d6c6514610513578063fd9153a31461053e57610156565b80636e04ff0d1461031c57806378dbb7171461035a5780638c7929f5146103a05780638da5cb5b146103e55780639465446914610410578063a272d2021461043b57610156565b80633d65e573116101085780633d65e5731461024357806344841f09146102835780634585e33b1461029a578063495a5414146102c35780634bd910c6146102ee5780634eea26901461030557610156565b80630334b4801461015b57806305faf9c31461018657806307e1a4d7146101b157806321344a54146101c8578063286d1909146101f15780633b9056bf1461021a57610156565b3661015657005b600080fd5b34801561016757600080fd5b5061017061057e565b60405161017d919061376a565b60405180910390f35b34801561019257600080fd5b5061019b6106fa565b6040516101a89190613794565b60405180910390f35b3480156101bd57600080fd5b506101c6610700565b005b3480156101d457600080fd5b506101ef60048036038101906101ea91906137ef565b61093b565b005b3480156101fd57600080fd5b50610218600480360381019061021391906137ef565b610ce6565b005b34801561022657600080fd5b50610241600480360381019061023c91906137ef565b6113ee565b005b34801561024f57600080fd5b5061026a60048036038101906102659190613848565b6117eb565b60405161027a9493929190613893565b60405180910390f35b34801561028f57600080fd5b50610298611855565b005b3480156102a657600080fd5b506102c160048036038101906102bc919061393d565b611a47565b005b3480156102cf57600080fd5b506102d8611b55565b6040516102e591906139df565b60405180910390f35b3480156102fa57600080fd5b50610303611cd1565b005b34801561031157600080fd5b5061031a61200c565b005b34801561032857600080fd5b50610343600480360381019061033e919061393d565b61228e565b604051610351929190613a8a565b60405180910390f35b34801561036657600080fd5b50610381600480360381019061037c91906137ef565b61246e565b6040516103979a99989796959493929190613b0f565b60405180910390f35b3480156103ac57600080fd5b506103c760048036038101906103c291906137ef565b6125b1565b6040516103dc99989796959493929190613bb2565b60405180910390f35b3480156103f157600080fd5b506103fa612786565b6040516104079190613c4d565b60405180910390f35b34801561041c57600080fd5b506104256127ac565b6040516104329190613e40565b60405180910390f35b34801561044757600080fd5b50610462600480360381019061045d9190613f92565b612a41565b005b61046c612ef4565b005b34801561047a57600080fd5b506104956004803603810190610490919061405d565b613101565b6040516104a2919061409d565b60405180910390f35b3480156104b757600080fd5b506104c0613130565b6040516104cd9190614192565b60405180910390f35b3480156104e257600080fd5b506104fd60048036038101906104f891906141ea565b6134b7565b60405161050a919061409d565b60405180910390f35b34801561051f57600080fd5b506105286134d7565b6040516105359190613794565b60405180910390f35b34801561054a57600080fd5b5061056560048036038101906105609190613848565b6134dd565b6040516105759493929190613893565b60405180910390f35b610586613597565b600560003373ffffffffffffffffffffffffffffffffffffffff1673ffffffffffffffffffffffffffffffffffffffff16815260200190815260200160002060020160009054906101000a900460ff16610615576040517f08c379a000000000000000000000000000000000000000000000000000000000815260040161060c90614263565b60405180910390fd5b600560003373ffffffffffffffffffffffffffffffffffffffff1673ffffffffffffffffffffffffffffffffffffffff1681526020019081526020016000206040518060800160405290816000820160009054906101000a900473ffffffffffffffffffffffffffffffffffffffff1673ffffffffffffffffffffffffffffffffffffffff1673ffffffffffffffffffffffffffffffffffffffff168152602001600182015481526020016002820160009054906101000a900460ff161515151581526020016002820160019054906101000a900460ff161515151581525050905090565b60075481565b60005b6003805490508110156109385760006003828154811061072657610725614283565b5b9060005260206000209060060201905060006006600083600001548152602001908152602001600020905060008160020160009054906101000a900473ffffffffffffffffffffffffffffffffffffffff1690508160070160009054906101000a900460ff1680156107a757508160070160019054906101000a900460ff16155b80156107b7575081600601544210155b156109285760018260070160016101000a81548160ff02191690831515021790555060008260070160006101000a81548160ff02191690831515021790555060008260020160006101000a81548173ffffffffffffffffffffffffffffffffffffffff021916908373ffffffffffffffffffffffffffffffffffffffff160217905550600082600501819055506000826006018190555060008360050160146101000a81548160ff02191690831515021790555060008360050160156101000a81548160ff02191690831515021790555060008360050160006101000a81548173ffffffffffffffffffffffffffffffffffffffff021916908373ffffffffffffffffffffffffffffffffffffffff1602179055506000600160008373ffffffffffffffffffffffffffffffffffffffff1673ffffffffffffffffffffffffffffffffffffffff16815260200190815260200160002060020160006101000a81548160ff0219169083151502179055505b5050508080600101915050610703565b50565b3373ffffffffffffffffffffffffffffffffffffffff16600160003373ffffffffffffffffffffffffffffffffffffffff1673ffffffffffffffffffffffffffffffffffffffff16815260200190815260200160002060000160009054906101000a900473ffffffffffffffffffffffffffffffffffffffff1673ffffffffffffffffffffffffffffffffffffffff1614610a0b576040517f08c379a0000000000000000000000000000000000000000000000000000000008152600401610a02906142fe565b60405180910390fd5b600160003373ffffffffffffffffffffffffffffffffffffffff1673ffffffffffffffffffffffffffffffffffffffff16815260200190815260200160002060020160019054906101000a900460ff16610a9a576040517f08c379a0000000000000000000000000000000000000000000000000000000008152600401610a919061436a565b60405180910390fd5b6003805490508110610ae1576040517f08c379a0000000000000000000000000000000000000000000000000000000008152600401610ad8906143d6565b60405180910390fd5b600060038281548110610af757610af6614283565b5b906000526020600020906006020190508060050160149054906101000a900460ff1615610b59576040517f08c379a0000000000000000000000000000000000000000000000000000000008152600401610b5090614442565b60405180910390fd5b8060050160159054906101000a900460ff1615610bab576040517f08c379a0000000000000000000000000000000000000000000000000000000008152600401610ba2906144ae565b60405180910390fd5b8060040154600160003373ffffffffffffffffffffffffffffffffffffffff1673ffffffffffffffffffffffffffffffffffffffff168152602001908152602001600020600101541015610c34576040517f08c379a0000000000000000000000000000000000000000000000000000000008152600401610c2b9061451a565b60405180910390fd5b60018160050160156101000a81548160ff021916908315150217905550338160050160006101000a81548173ffffffffffffffffffffffffffffffffffffffff021916908373ffffffffffffffffffffffffffffffffffffffff1602179055503373ffffffffffffffffffffffffffffffffffffffff167f507ad3b72a7c833c6328998745bb0750f24e40406335735e1268db7febcbd4b383604051610cda9190613794565b60405180910390a25050565b3373ffffffffffffffffffffffffffffffffffffffff16600560003373ffffffffffffffffffffffffffffffffffffffff1673ffffffffffffffffffffffffffffffffffffffff16815260200190815260200160002060000160009054906101000a900473ffffffffffffffffffffffffffffffffffffffff1673ffffffffffffffffffffffffffffffffffffffff1614610db6576040517f08c379a0000000000000000000000000000000000000000000000000000000008152600401610dad90614586565b60405180910390fd5b600560003373ffffffffffffffffffffffffffffffffffffffff1673ffffffffffffffffffffffffffffffffffffffff16815260200190815260200160002060020160009054906101000a900460ff16610e45576040517f08c379a0000000000000000000000000000000000000000000000000000000008152600401610e3c906145f2565b60405180910390fd5b6000805b6003805490508110156113a957600060038281548110610e6c57610e6b614283565b5b906000526020600020906006020190503373ffffffffffffffffffffffffffffffffffffffff168160010160009054906101000a900473ffffffffffffffffffffffffffffffffffffffff1673ffffffffffffffffffffffffffffffffffffffff16148015610f2c5750600073ffffffffffffffffffffffffffffffffffffffff168160050160009054906101000a900473ffffffffffffffffffffffffffffffffffffffff1673ffffffffffffffffffffffffffffffffffffffff1614155b8015610f4d5750600115158160050160159054906101000a900460ff161515145b8015610f6857508060050160149054906101000a900460ff16155b1561139b5760008160050160009054906101000a900473ffffffffffffffffffffffffffffffffffffffff169050600160008273ffffffffffffffffffffffffffffffffffffffff1673ffffffffffffffffffffffffffffffffffffffff16815260200190815260200160002060020160019054906101000a900460ff16611025576040517f08c379a000000000000000000000000000000000000000000000000000000000815260040161101c9061436a565b60405180910390fd5b6040518061014001604052806007600081548092919061104490614641565b9190505581526020013373ffffffffffffffffffffffffffffffffffffffff1681526020018273ffffffffffffffffffffffffffffffffffffffff1681526020018360000154815260200183600301805461109e906146b8565b80601f01602080910402602001604051908101604052809291908181526020018280546110ca906146b8565b80156111175780601f106110ec57610100808354040283529160200191611117565b820191906000526020600020905b8154815290600101906020018083116110fa57829003601f168201915b50505050508152602001428152602001620151808761113691906146e9565b42611141919061472b565b81526020016001151581526020016000151581526020016000151581525060066000846000015481526020019081526020016000206000820151816000015560208201518160010160006101000a81548173ffffffffffffffffffffffffffffffffffffffff021916908373ffffffffffffffffffffffffffffffffffffffff16021790555060408201518160020160006101000a81548173ffffffffffffffffffffffffffffffffffffffff021916908373ffffffffffffffffffffffffffffffffffffffff16021790555060608201518160030155608082015181600401908161122d919061490b565b5060a0820151816005015560c0820151816006015560e08201518160070160006101000a81548160ff0219169083151502179055506101008201518160070160016101000a81548160ff0219169083151502179055506101208201518160070160026101000a81548160ff02191690831515021790555090505060018260050160146101000a81548160ff02191690831515021790555060018060008373ffffffffffffffffffffffffffffffffffffffff1673ffffffffffffffffffffffffffffffffffffffff16815260200190815260200160002060020160006101000a81548160ff0219169083151502179055508073ffffffffffffffffffffffffffffffffffffffff163373ffffffffffffffffffffffffffffffffffffffff167ef021a6c54757c213a20afb1e9eda71a97192985772445e27d14795e9fd16a2600160075461137b91906149dd565b6040516113889190613794565b60405180910390a36001935050506113a9565b508080600101915050610e49565b50806113ea576040517f08c379a00000000000000000000000000000000000000000000000000000000081526004016113e190614a5d565b60405180910390fd5b5050565b6113f6613547565b60008111611439576040517f08c379a000000000000000000000000000000000000000000000000000000000815260040161143090614ac9565b60405180910390fd5b600160003373ffffffffffffffffffffffffffffffffffffffff1673ffffffffffffffffffffffffffffffffffffffff16815260200190815260200160002060020160019054906101000a900460ff16156115715780600160003373ffffffffffffffffffffffffffffffffffffffff1673ffffffffffffffffffffffffffffffffffffffff168152602001908152602001600020600101541015611513576040517f08c379a000000000000000000000000000000000000000000000000000000000815260040161150a90614b35565b60405180910390fd5b80600160003373ffffffffffffffffffffffffffffffffffffffff1673ffffffffffffffffffffffffffffffffffffffff168152602001908152602001600020600101600082825461156591906149dd565b925050819055506116e5565b600560003373ffffffffffffffffffffffffffffffffffffffff1673ffffffffffffffffffffffffffffffffffffffff16815260200190815260200160002060020160009054906101000a900460ff16156116a95780600560003373ffffffffffffffffffffffffffffffffffffffff1673ffffffffffffffffffffffffffffffffffffffff16815260200190815260200160002060010154101561164b576040517f08c379a000000000000000000000000000000000000000000000000000000000815260040161164290614ba1565b60405180910390fd5b80600560003373ffffffffffffffffffffffffffffffffffffffff1673ffffffffffffffffffffffffffffffffffffffff168152602001908152602001600020600101600082825461169d91906149dd565b925050819055506116e4565b6040517f08c379a00000000000000000000000000000000000000000000000000000000081526004016116db90614c0d565b60405180910390fd5b5b60003373ffffffffffffffffffffffffffffffffffffffff168260405161170b90614c5e565b60006040518083038185875af1925050503d8060008114611748576040519150601f19603f3d011682016040523d82523d6000602084013e61174d565b606091505b5050905080611791576040517f08c379a000000000000000000000000000000000000000000000000000000000815260040161178890614cbf565b60405180910390fd5b3373ffffffffffffffffffffffffffffffffffffffff167f7084f5476618d8e60b11ef0d7d3f06914655adb8793e28ff7f018d4c76d505d5836040516117d79190613794565b60405180910390a2506117e861358d565b50565b60056020528060005260406000206000915090508060000160009054906101000a900473ffffffffffffffffffffffffffffffffffffffff16908060010154908060020160009054906101000a900460ff16908060020160019054906101000a900460ff16905084565b600560003373ffffffffffffffffffffffffffffffffffffffff1673ffffffffffffffffffffffffffffffffffffffff16815260200190815260200160002060020160009054906101000a900460ff16156118e5576040517f08c379a00000000000000000000000000000000000000000000000000000000081526004016118dc90614d2b565b60405180910390fd5b60405180608001604052803373ffffffffffffffffffffffffffffffffffffffff1681526020016000815260200160011515815260200160001515815250600560003373ffffffffffffffffffffffffffffffffffffffff1673ffffffffffffffffffffffffffffffffffffffff16815260200190815260200160002060008201518160000160006101000a81548173ffffffffffffffffffffffffffffffffffffffff021916908373ffffffffffffffffffffffffffffffffffffffff1602179055506020820151816001015560408201518160020160006101000a81548160ff02191690831515021790555060608201518160020160016101000a81548160ff0219169083151502179055509050503373ffffffffffffffffffffffffffffffffffffffff167fb6696617b8ee12f244d0e82a5724fc8d7df5564dc5efe34933f81df1f837c0706001604051611a3d919061409d565b60405180910390a2565b6040518060400160405280600781526020017f74696d656f757400000000000000000000000000000000000000000000000000815250805190602001208282604051611a94929190614d70565b604051809103902003611aae57611aa9610700565b611b51565b6040518060400160405280600781526020017f7061796d656e7400000000000000000000000000000000000000000000000000815250805190602001208282604051611afb929190614d70565b604051809103902003611b1557611b10611cd1565b611b50565b6040517f08c379a0000000000000000000000000000000000000000000000000000000008152600401611b4790614dd5565b60405180910390fd5b5b5050565b611b5d6135d9565b600160003373ffffffffffffffffffffffffffffffffffffffff1673ffffffffffffffffffffffffffffffffffffffff16815260200190815260200160002060020160019054906101000a900460ff16611bec576040517f08c379a0000000000000000000000000000000000000000000000000000000008152600401611be3906142fe565b60405180910390fd5b600160003373ffffffffffffffffffffffffffffffffffffffff1673ffffffffffffffffffffffffffffffffffffffff1681526020019081526020016000206040518060800160405290816000820160009054906101000a900473ffffffffffffffffffffffffffffffffffffffff1673ffffffffffffffffffffffffffffffffffffffff1673ffffffffffffffffffffffffffffffffffffffff168152602001600182015481526020016002820160009054906101000a900460ff161515151581526020016002820160019054906101000a900460ff161515151581525050905090565b611cd9613547565b60005b60038054905081101561200157600060038281548110611cff57611cfe614283565b5b906000526020600020906006020190506000600660008360000154815260200190815260200160002090508060070160009054906101000a900460ff168015611d5757508060070160019054906101000a900460ff16155b8015611d67575060008160050154115b8015611d765750806005015442115b8015611d89575080600501548160060154115b8015611dff57508160040154600160008360020160009054906101000a900473ffffffffffffffffffffffffffffffffffffffff1673ffffffffffffffffffffffffffffffffffffffff1673ffffffffffffffffffffffffffffffffffffffff1681526020019081526020016000206001015410155b15611f415760018160070160016101000a81548160ff0219169083151502179055508160040154600160008360020160009054906101000a900473ffffffffffffffffffffffffffffffffffffffff1673ffffffffffffffffffffffffffffffffffffffff1673ffffffffffffffffffffffffffffffffffffffff1681526020019081526020016000206001016000828254611e9b91906149dd565b925050819055508160040154600560008460010160009054906101000a900473ffffffffffffffffffffffffffffffffffffffff1673ffffffffffffffffffffffffffffffffffffffff1673ffffffffffffffffffffffffffffffffffffffff1681526020019081526020016000206001016000828254611f1c919061472b565b9250508190555060018160070160026101000a81548160ff0219169083151502179055505b8060020160009054906101000a900473ffffffffffffffffffffffffffffffffffffffff1673ffffffffffffffffffffffffffffffffffffffff168160010160009054906101000a900473ffffffffffffffffffffffffffffffffffffffff1673ffffffffffffffffffffffffffffffffffffffff167f791ff5c84f9acebb4b26797f063e5992a2fe426c7b60a97e82d103e9c8b210e48460040154604051611fea9190613794565b60405180910390a350508080600101915050611cdc565b5061200a61358d565b565b600160003373ffffffffffffffffffffffffffffffffffffffff1673ffffffffffffffffffffffffffffffffffffffff16815260200190815260200160002060020160019054906101000a900460ff161561209c576040517f08c379a000000000000000000000000000000000000000000000000000000000815260040161209390614e41565b60405180910390fd5b600160003373ffffffffffffffffffffffffffffffffffffffff1673ffffffffffffffffffffffffffffffffffffffff16815260200190815260200160002060020160009054906101000a900460ff161561212c576040517f08c379a000000000000000000000000000000000000000000000000000000000815260040161212390614e41565b60405180910390fd5b60405180608001604052803373ffffffffffffffffffffffffffffffffffffffff1681526020016000815260200160001515815260200160011515815250600160003373ffffffffffffffffffffffffffffffffffffffff1673ffffffffffffffffffffffffffffffffffffffff16815260200190815260200160002060008201518160000160006101000a81548173ffffffffffffffffffffffffffffffffffffffff021916908373ffffffffffffffffffffffffffffffffffffffff1602179055506020820151816001015560408201518160020160006101000a81548160ff02191690831515021790555060608201518160020160016101000a81548160ff0219169083151502179055509050503373ffffffffffffffffffffffffffffffffffffffff167f77e2c0497197e0ec9be0552f1b02a0366bff8357993d2a2fab479650c6967ea16001604051612284919061409d565b60405180910390a2565b600060606000915060005b60038054905081101561244f576000600382815481106122bc576122bb614283565b5b906000526020600020906006020190506000600660008360000154815260200190815260200160002090508060070160009054906101000a900460ff16801561231457508060070160019054906101000a900460ff16155b8015612324575080600601544210155b156123595760019450600160405160200161233e90614ead565b60405160208183030381529060405294509450505050612467565b8060070160009054906101000a900460ff16801561238657508060070160019054906101000a900460ff16155b80156123fc57508160040154600160008360020160009054906101000a900473ffffffffffffffffffffffffffffffffffffffff1673ffffffffffffffffffffffffffffffffffffffff1673ffffffffffffffffffffffffffffffffffffffff1681526020019081526020016000206001015410155b801561240b5750806005015442115b156124405760019450600160405160200161242590614f19565b60405160208183030381529060405294509450505050612467565b50508080600101915050612299565b50600060405180602001604052806000815250915091505b9250929050565b60066020528060005260406000206000915090508060000154908060010160009054906101000a900473ffffffffffffffffffffffffffffffffffffffff16908060020160009054906101000a900473ffffffffffffffffffffffffffffffffffffffff16908060030154908060040180546124e9906146b8565b80601f0160208091040260200160405190810160405280929190818152602001828054612515906146b8565b80156125625780601f1061253757610100808354040283529160200191612562565b820191906000526020600020905b81548152906001019060200180831161254557829003601f168201915b5050505050908060050154908060060154908060070160009054906101000a900460ff16908060070160019054906101000a900460ff16908060070160029054906101000a900460ff1690508a565b600381815481106125c157600080fd5b90600052602060002090600602016000915090508060000154908060010160009054906101000a900473ffffffffffffffffffffffffffffffffffffffff1690806002018054612610906146b8565b80601f016020809104026020016040519081016040528092919081815260200182805461263c906146b8565b80156126895780601f1061265e57610100808354040283529160200191612689565b820191906000526020600020905b81548152906001019060200180831161266c57829003601f168201915b50505050509080600301805461269e906146b8565b80601f01602080910402602001604051908101604052809291908181526020018280546126ca906146b8565b80156127175780601f106126ec57610100808354040283529160200191612717565b820191906000526020600020905b8154815290600101906020018083116126fa57829003601f168201915b5050505050908060040154908060050160009054906101000a900473ffffffffffffffffffffffffffffffffffffffff16908060050160149054906101000a900460ff16908060050160159054906101000a900460ff16908060050160169054906101000a900460ff16905089565b600860009054906101000a900473ffffffffffffffffffffffffffffffffffffffff1681565b60606003805480602002602001604051908101604052809291908181526020016000905b82821015612a38578382906000526020600020906006020160405180610120016040529081600082015481526020016001820160009054906101000a900473ffffffffffffffffffffffffffffffffffffffff1673ffffffffffffffffffffffffffffffffffffffff1673ffffffffffffffffffffffffffffffffffffffff168152602001600282018054612864906146b8565b80601f0160208091040260200160405190810160405280929190818152602001828054612890906146b8565b80156128dd5780601f106128b2576101008083540402835291602001916128dd565b820191906000526020600020905b8154815290600101906020018083116128c057829003601f168201915b505050505081526020016003820180546128f6906146b8565b80601f0160208091040260200160405190810160405280929190818152602001828054612922906146b8565b801561296f5780601f106129445761010080835404028352916020019161296f565b820191906000526020600020905b81548152906001019060200180831161295257829003601f168201915b50505050508152602001600482015481526020016005820160009054906101000a900473ffffffffffffffffffffffffffffffffffffffff1673ffffffffffffffffffffffffffffffffffffffff1673ffffffffffffffffffffffffffffffffffffffff1681526020016005820160149054906101000a900460ff161515151581526020016005820160159054906101000a900460ff161515151581526020016005820160169054906101000a900460ff161515151581525050815260200190600101906127d0565b50505050905090565b3373ffffffffffffffffffffffffffffffffffffffff16600560003373ffffffffffffffffffffffffffffffffffffffff1673ffffffffffffffffffffffffffffffffffffffff16815260200190815260200160002060000160009054906101000a900473ffffffffffffffffffffffffffffffffffffffff1673ffffffffffffffffffffffffffffffffffffffff1614612b11576040517f08c379a0000000000000000000000000000000000000000000000000000000008152600401612b0890614586565b60405180910390fd5b600560003373ffffffffffffffffffffffffffffffffffffffff1673ffffffffffffffffffffffffffffffffffffffff16815260200190815260200160002060020160009054906101000a900460ff16612ba0576040517f08c379a0000000000000000000000000000000000000000000000000000000008152600401612b97906145f2565b60405180910390fd5b6000338483604051602001612bb793929190614fde565b6040516020818303038152906040528051906020012090506004600082815260200190815260200160002060009054906101000a900460ff1615612c30576040517f08c379a0000000000000000000000000000000000000000000000000000000008152600401612c2790615063565b60405180910390fd5b600360405180610120016040528060026000815480929190612c5190614641565b9190505581526020013373ffffffffffffffffffffffffffffffffffffffff168152602001868152602001858152602001848152602001600073ffffffffffffffffffffffffffffffffffffffff1681526020016000151581526020016000151581526020016001151581525090806001815401808255809150506001900390600052602060002090600602016000909190919091506000820151816000015560208201518160010160006101000a81548173ffffffffffffffffffffffffffffffffffffffff021916908373ffffffffffffffffffffffffffffffffffffffff1602179055506040820151816002019081612d4d919061490b565b506060820151816003019081612d63919061490b565b506080820151816004015560a08201518160050160006101000a81548173ffffffffffffffffffffffffffffffffffffffff021916908373ffffffffffffffffffffffffffffffffffffffff16021790555060c08201518160050160146101000a81548160ff02191690831515021790555060e08201518160050160156101000a81548160ff0219169083151502179055506101008201518160050160166101000a81548160ff021916908315150217905550505060016004600083815260200190815260200160002060006101000a81548160ff0219169083151502179055506001600560003373ffffffffffffffffffffffffffffffffffffffff1673ffffffffffffffffffffffffffffffffffffffff16815260200190815260200160002060020160016101000a81548160ff0219169083151502179055503373ffffffffffffffffffffffffffffffffffffffff167fc92e830c7a6579616c317c0684d2eaf53fb889033a419d9b261f5e76594babbf6001604051612ee6919061409d565b60405180910390a250505050565b3373ffffffffffffffffffffffffffffffffffffffff16600160003373ffffffffffffffffffffffffffffffffffffffff1673ffffffffffffffffffffffffffffffffffffffff16815260200190815260200160002060000160009054906101000a900473ffffffffffffffffffffffffffffffffffffffff1673ffffffffffffffffffffffffffffffffffffffff1614612fc4576040517f08c379a0000000000000000000000000000000000000000000000000000000008152600401612fbb906142fe565b60405180910390fd5b600160003373ffffffffffffffffffffffffffffffffffffffff1673ffffffffffffffffffffffffffffffffffffffff16815260200190815260200160002060020160019054906101000a900460ff16613053576040517f08c379a000000000000000000000000000000000000000000000000000000000815260040161304a9061436a565b60405180910390fd5b61305b613547565b6000341161309e576040517f08c379a0000000000000000000000000000000000000000000000000000000008152600401613095906150cf565b60405180910390fd5b34600160003373ffffffffffffffffffffffffffffffffffffffff1673ffffffffffffffffffffffffffffffffffffffff16815260200190815260200160002060010160008282546130f0919061472b565b925050819055506130ff61358d565b565b60096020528160005260406000206020528060005260406000206000915091509054906101000a900460ff1681565b61313861361b565b60005b600380549050811015613478573373ffffffffffffffffffffffffffffffffffffffff16600660006003848154811061317757613176614283565b5b906000526020600020906006020160000154815260200190815260200160002060020160009054906101000a900473ffffffffffffffffffffffffffffffffffffffff1673ffffffffffffffffffffffffffffffffffffffff16148061326357503373ffffffffffffffffffffffffffffffffffffffff16600660006003848154811061320757613206614283565b5b906000526020600020906006020160000154815260200190815260200160002060010160009054906101000a900473ffffffffffffffffffffffffffffffffffffffff1673ffffffffffffffffffffffffffffffffffffffff16145b1561346b5760066000600383815481106132805761327f614283565b5b906000526020600020906006020160000154815260200190815260200160002060405180610140016040529081600082015481526020016001820160009054906101000a900473ffffffffffffffffffffffffffffffffffffffff1673ffffffffffffffffffffffffffffffffffffffff1673ffffffffffffffffffffffffffffffffffffffff1681526020016002820160009054906101000a900473ffffffffffffffffffffffffffffffffffffffff1673ffffffffffffffffffffffffffffffffffffffff1673ffffffffffffffffffffffffffffffffffffffff1681526020016003820154815260200160048201805461337c906146b8565b80601f01602080910402602001604051908101604052809291908181526020018280546133a8906146b8565b80156133f55780601f106133ca576101008083540402835291602001916133f5565b820191906000526020600020905b8154815290600101906020018083116133d857829003601f168201915b5050505050815260200160058201548152602001600682015481526020016007820160009054906101000a900460ff161515151581526020016007820160019054906101000a900460ff161515151581526020016007820160029054906101000a900460ff1615151515815250509150506134b4565b808060010191505061313b565b506040517f08c379a00000000000000000000000000000000000000000000000000000000081526004016134ab9061513b565b60405180910390fd5b90565b60046020528060005260406000206000915054906101000a900460ff1681565b60025481565b60016020528060005260406000206000915090508060000160009054906101000a900473ffffffffffffffffffffffffffffffffffffffff16908060010154908060020160009054906101000a900460ff16908060020160019054906101000a900460ff16905084565b600260005403613583576040517f3ee5aeb500000000000000000000000000000000000000000000000000000000815260040160405180910390fd5b6002600081905550565b6001600081905550565b6040518060800160405280600073ffffffffffffffffffffffffffffffffffffffff168152602001600081526020016000151581526020016000151581525090565b6040518060800160405280600073ffffffffffffffffffffffffffffffffffffffff168152602001600081526020016000151581526020016000151581525090565b60405180610140016040528060008152602001600073ffffffffffffffffffffffffffffffffffffffff168152602001600073ffffffffffffffffffffffffffffffffffffffff168152602001600081526020016060815260200160008152602001600081526020016000151581526020016000151581526020016000151581525090565b600073ffffffffffffffffffffffffffffffffffffffff82169050919050565b60006136cb826136a0565b9050919050565b6136db816136c0565b82525050565b6000819050919050565b6136f4816136e1565b82525050565b60008115159050919050565b61370f816136fa565b82525050565b60808201600082015161372b60008501826136d2565b50602082015161373e60208501826136eb565b5060408201516137516040850182613706565b5060608201516137646060850182613706565b50505050565b600060808201905061377f6000830184613715565b92915050565b61378e816136e1565b82525050565b60006020820190506137a96000830184613785565b92915050565b6000604051905090565b600080fd5b600080fd5b6137cc816136e1565b81146137d757600080fd5b50565b6000813590506137e9816137c3565b92915050565b600060208284031215613805576138046137b9565b5b6000613813848285016137da565b91505092915050565b613825816136c0565b811461383057600080fd5b50565b6000813590506138428161381c565b92915050565b60006020828403121561385e5761385d6137b9565b5b600061386c84828501613833565b91505092915050565b61387e816136c0565b82525050565b61388d816136fa565b82525050565b60006080820190506138a86000830187613875565b6138b56020830186613785565b6138c26040830185613884565b6138cf6060830184613884565b95945050505050565b600080fd5b600080fd5b600080fd5b60008083601f8401126138fd576138fc6138d8565b5b8235905067ffffffffffffffff81111561391a576139196138dd565b5b602083019150836001820283011115613936576139356138e2565b5b9250929050565b60008060208385031215613954576139536137b9565b5b600083013567ffffffffffffffff811115613972576139716137be565b5b61397e858286016138e7565b92509250509250929050565b6080820160008201516139a060008501826136d2565b5060208201516139b360208501826136eb565b5060408201516139c66040850182613706565b5060608201516139d96060850182613706565b50505050565b60006080820190506139f4600083018461398a565b92915050565b600081519050919050565b600082825260208201905092915050565b60005b83811015613a34578082015181840152602081019050613a19565b60008484015250505050565b6000601f19601f8301169050919050565b6000613a5c826139fa565b613a668185613a05565b9350613a76818560208601613a16565b613a7f81613a40565b840191505092915050565b6000604082019050613a9f6000830185613884565b8181036020830152613ab18184613a51565b90509392505050565b600081519050919050565b600082825260208201905092915050565b6000613ae182613aba565b613aeb8185613ac5565b9350613afb818560208601613a16565b613b0481613a40565b840191505092915050565b600061014082019050613b25600083018d613785565b613b32602083018c613875565b613b3f604083018b613875565b613b4c606083018a613785565b8181036080830152613b5e8189613ad6565b9050613b6d60a0830188613785565b613b7a60c0830187613785565b613b8760e0830186613884565b613b95610100830185613884565b613ba3610120830184613884565b9b9a5050505050505050505050565b600061012082019050613bc8600083018c613785565b613bd5602083018b613875565b8181036040830152613be7818a613ad6565b90508181036060830152613bfb8189613ad6565b9050613c0a6080830188613785565b613c1760a0830187613875565b613c2460c0830186613884565b613c3160e0830185613884565b613c3f610100830184613884565b9a9950505050505050505050565b6000602082019050613c626000830184613875565b92915050565b600081519050919050565b600082825260208201905092915050565b6000819050602082019050919050565b600082825260208201905092915050565b6000613cb082613aba565b613cba8185613c94565b9350613cca818560208601613a16565b613cd381613a40565b840191505092915050565b600061012083016000830151613cf760008601826136eb565b506020830151613d0a60208601826136d2565b5060408301518482036040860152613d228282613ca5565b91505060608301518482036060860152613d3c8282613ca5565b9150506080830151613d5160808601826136eb565b5060a0830151613d6460a08601826136d2565b5060c0830151613d7760c0860182613706565b5060e0830151613d8a60e0860182613706565b50610100830151613d9f610100860182613706565b508091505092915050565b6000613db68383613cde565b905092915050565b6000602082019050919050565b6000613dd682613c68565b613de08185613c73565b935083602082028501613df285613c84565b8060005b85811015613e2e5784840389528151613e0f8582613daa565b9450613e1a83613dbe565b925060208a01995050600181019050613df6565b50829750879550505050505092915050565b60006020820190508181036000830152613e5a8184613dcb565b905092915050565b600080fd5b7f4e487b7100000000000000000000000000000000000000000000000000000000600052604160045260246000fd5b613e9f82613a40565b810181811067ffffffffffffffff82111715613ebe57613ebd613e67565b5b80604052505050565b6000613ed16137af565b9050613edd8282613e96565b919050565b600067ffffffffffffffff821115613efd57613efc613e67565b5b613f0682613a40565b9050602081019050919050565b82818337600083830152505050565b6000613f35613f3084613ee2565b613ec7565b905082815260208101848484011115613f5157613f50613e62565b5b613f5c848285613f13565b509392505050565b600082601f830112613f7957613f786138d8565b5b8135613f89848260208601613f22565b91505092915050565b600080600060608486031215613fab57613faa6137b9565b5b600084013567ffffffffffffffff811115613fc957613fc86137be565b5b613fd586828701613f64565b935050602084013567ffffffffffffffff811115613ff657613ff56137be565b5b61400286828701613f64565b9250506040614013868287016137da565b9150509250925092565b600067ffffffffffffffff82169050919050565b61403a8161401d565b811461404557600080fd5b50565b60008135905061405781614031565b92915050565b60008060408385031215614074576140736137b9565b5b600061408285828601614048565b925050602061409385828601613833565b9150509250929050565b60006020820190506140b26000830184613884565b92915050565b6000610140830160008301516140d160008601826136eb565b5060208301516140e460208601826136d2565b5060408301516140f760408601826136d2565b50606083015161410a60608601826136eb565b50608083015184820360808601526141228282613ca5565b91505060a083015161413760a08601826136eb565b5060c083015161414a60c08601826136eb565b5060e083015161415d60e0860182613706565b50610100830151614172610100860182613706565b50610120830151614187610120860182613706565b508091505092915050565b600060208201905081810360008301526141ac81846140b8565b905092915050565b6000819050919050565b6141c7816141b4565b81146141d257600080fd5b50565b6000813590506141e4816141be565b92915050565b600060208284031215614200576141ff6137b9565b5b600061420e848285016141d5565b91505092915050565b7f556e72656769737465726564206c616e646c6f72640000000000000000000000600082015250565b600061424d601583613ac5565b915061425882614217565b602082019050919050565b6000602082019050818103600083015261427c81614240565b9050919050565b7f4e487b7100000000000000000000000000000000000000000000000000000000600052603260045260246000fd5b7f556e726567697374657265642074656e616e7400000000000000000000000000600082015250565b60006142e8601383613ac5565b91506142f3826142b2565b602082019050919050565b60006020820190508181036000830152614317816142db565b9050919050565b7f54656e616e7420556e7265676973746572656400000000000000000000000000600082015250565b6000614354601383613ac5565b915061435f8261431e565b602082019050919050565b6000602082019050818103600083015261438381614347565b9050919050565b7f496e76616c69642050726f706572742049640000000000000000000000000000600082015250565b60006143c0601283613ac5565b91506143cb8261438a565b602082019050919050565b600060208201905081810360008301526143ef816143b3565b9050919050565b7f50726f7065727479206f63637570696564000000000000000000000000000000600082015250565b600061442c601183613ac5565b9150614437826143f6565b602082019050919050565b6000602082019050818103600083015261445b8161441f565b9050919050565b7f54616b656e000000000000000000000000000000000000000000000000000000600082015250565b6000614498600583613ac5565b91506144a382614462565b602082019050919050565b600060208201905081810360008301526144c78161448b565b9050919050565b7f496e73756666696369656e742046756e64730000000000000000000000000000600082015250565b6000614504601283613ac5565b915061450f826144ce565b602082019050919050565b60006020820190508181036000830152614533816144f7565b9050919050565b7f4e6f74204c616e646c6f72640000000000000000000000000000000000000000600082015250565b6000614570600c83613ac5565b915061457b8261453a565b602082019050919050565b6000602082019050818103600083015261459f81614563565b9050919050565b7f556e72656769737465726564204c616e646c6f72640000000000000000000000600082015250565b60006145dc601583613ac5565b91506145e7826145a6565b602082019050919050565b6000602082019050818103600083015261460b816145cf565b9050919050565b7f4e487b7100000000000000000000000000000000000000000000000000000000600052601160045260246000fd5b600061464c826136e1565b91507fffffffffffffffffffffffffffffffffffffffffffffffffffffffffffffffff820361467e5761467d614612565b5b600182019050919050565b7f4e487b7100000000000000000000000000000000000000000000000000000000600052602260045260246000fd5b600060028204905060018216806146d057607f821691505b6020821081036146e3576146e2614689565b5b50919050565b60006146f4826136e1565b91506146ff836136e1565b925082820261470d816136e1565b9150828204841483151761472457614723614612565b5b5092915050565b6000614736826136e1565b9150614741836136e1565b925082820190508082111561475957614758614612565b5b92915050565b60008190508160005260206000209050919050565b60006020601f8301049050919050565b600082821b905092915050565b6000600883026147c17fffffffffffffffffffffffffffffffffffffffffffffffffffffffffffffffff82614784565b6147cb8683614784565b95508019841693508086168417925050509392505050565b6000819050919050565b60006148086148036147fe846136e1565b6147e3565b6136e1565b9050919050565b6000819050919050565b614822836147ed565b61483661482e8261480f565b848454614791565b825550505050565b600090565b61484b61483e565b614856818484614819565b505050565b5b8181101561487a5761486f600082614843565b60018101905061485c565b5050565b601f8211156148bf576148908161475f565b61489984614774565b810160208510156148a8578190505b6148bc6148b485614774565b83018261485b565b50505b505050565b600082821c905092915050565b60006148e2600019846008026148c4565b1980831691505092915050565b60006148fb83836148d1565b9150826002028217905092915050565b61491482613aba565b67ffffffffffffffff81111561492d5761492c613e67565b5b61493782546146b8565b61494282828561487e565b600060209050601f8311600181146149755760008415614963578287015190505b61496d85826148ef565b8655506149d5565b601f1984166149838661475f565b60005b828110156149ab57848901518255600182019150602085019450602081019050614986565b868310156149c857848901516149c4601f8916826148d1565b8355505b6001600288020188555050505b505050505050565b60006149e8826136e1565b91506149f3836136e1565b9250828203905081811115614a0b57614a0a614612565b5b92915050565b7f4e6f2076616c69642070726f7065727479207265717565737420666f756e6400600082015250565b6000614a47601f83613ac5565b9150614a5282614a11565b602082019050919050565b60006020820190508181036000830152614a7681614a3a565b9050919050565b7f496e76616c696420616d6f756e74000000000000000000000000000000000000600082015250565b6000614ab3600e83613ac5565b9150614abe82614a7d565b602082019050919050565b60006020820190508181036000830152614ae281614aa6565b9050919050565b7f696e73756666696369656e742066756e64732000000000000000000000000000600082015250565b6000614b1f601383613ac5565b9150614b2a82614ae9565b602082019050919050565b60006020820190508181036000830152614b4e81614b12565b9050919050565b7f696e73756666696369656e742066756e64730000000000000000000000000000600082015250565b6000614b8b601283613ac5565b9150614b9682614b55565b602082019050919050565b60006020820190508181036000830152614bba81614b7e565b9050919050565b7f4e6f742072656769737465726564000000000000000000000000000000000000600082015250565b6000614bf7600e83613ac5565b9150614c0282614bc1565b602082019050919050565b60006020820190508181036000830152614c2681614bea565b9050919050565b600081905092915050565b50565b6000614c48600083614c2d565b9150614c5382614c38565b600082019050919050565b6000614c6982614c3b565b9150819050919050565b7f5769746864726177206661696c65640000000000000000000000000000000000600082015250565b6000614ca9600f83613ac5565b9150614cb482614c73565b602082019050919050565b60006020820190508181036000830152614cd881614c9c565b9050919050565b7f4c616e646c6f7264207265676973746572656400000000000000000000000000600082015250565b6000614d15601383613ac5565b9150614d2082614cdf565b602082019050919050565b60006020820190508181036000830152614d4481614d08565b9050919050565b6000614d578385614c2d565b9350614d64838584613f13565b82840190509392505050565b6000614d7d828486614d4b565b91508190509392505050565b7f556e6b6e6f776e2075706b65657020616374696f6e0000000000000000000000600082015250565b6000614dbf601583613ac5565b9150614dca82614d89565b602082019050919050565b60006020820190508181036000830152614dee81614db2565b9050919050565b7f54656e616e742072656769737465726564000000000000000000000000000000600082015250565b6000614e2b601183613ac5565b9150614e3682614df5565b602082019050919050565b60006020820190508181036000830152614e5a81614e1e565b9050919050565b7f74696d656f757400000000000000000000000000000000000000000000000000600082015250565b6000614e97600783613ac5565b9150614ea282614e61565b602082019050919050565b60006020820190508181036000830152614ec681614e8a565b9050919050565b7f7061796d656e7400000000000000000000000000000000000000000000000000600082015250565b6000614f03600783613ac5565b9150614f0e82614ecd565b602082019050919050565b60006020820190508181036000830152614f3281614ef6565b9050919050565b60008160601b9050919050565b6000614f5182614f39565b9050919050565b6000614f6382614f46565b9050919050565b614f7b614f76826136c0565b614f58565b82525050565b600081905092915050565b6000614f9782613aba565b614fa18185614f81565b9350614fb1818560208601613a16565b80840191505092915050565b6000819050919050565b614fd8614fd3826136e1565b614fbd565b82525050565b6000614fea8286614f6a565b601482019150614ffa8285614f8c565b91506150068284614fc7565b602082019150819050949350505050565b7f50726f7065727479207265676973746572656400000000000000000000000000600082015250565b600061504d601383613ac5565b915061505882615017565b602082019050919050565b6000602082019050818103600083015261507c81615040565b9050919050565b7f496e76616c696420496e70757400000000000000000000000000000000000000600082015250565b60006150b9600d83613ac5565b91506150c482615083565b602082019050919050565b600060208201905081810360008301526150e8816150ac565b9050919050565b7f4e6f206163746976652072656e74616c20666f756e6400000000000000000000600082015250565b6000615125601683613ac5565b9150615130826150ef565b602082019050919050565b6000602082019050818103600083015261515481615118565b905091905056fea2646970667358221220843c2076389b8e963c5bf83035b1f84c7e8498f6a26b7b92e061893ce09275c664736f6c634300081c0033",
  "linkReferences": {},
  "deployedLinkReferences": {}
}