{
  "_format": "hh-sol-artifact-1",
  "contractName": "ImmovableRental",
  "sourceName": "contracts/ImmovableRental.sol",
  "abi": [
    {
      "inputs": [],
      "stateMutability": "nonpayable",
      "type": "constructor"
    },
    {
      "inputs": [],
      "name": "ReentrancyGuardReentrantCall",
      "type": "error"
    },
    {
      "anonymous": false,
      "inputs": [
        {
          "indexed": true,
          "internalType": "address",
          "name": "landlord",
          "type": "address"
        },
        {
          "indexed": false,
          "internalType": "bool",
          "name": "isRegistered",
          "type": "bool"
        }
      ],
      "name": "LandlordRegistered",
      "type": "event"
    },
    {
      "anonymous": false,
      "inputs": [
        {
          "indexed": true,
          "internalType": "address",
          "name": "landlord",
          "type": "address"
        },
        {
          "indexed": false,
          "internalType": "bool",
          "name": "isRegistered",
          "type": "bool"
        }
      ],
      "name": "PropertyRegistered",
      "type": "event"
    },
    {
      "anonymous": false,
      "inputs": [
        {
          "indexed": true,
          "internalType": "address",
          "name": "tenant",
          "type": "address"
        },
        {
          "indexed": false,
          "internalType": "uint256",
          "name": "propertyId",
          "type": "uint256"
        }
      ],
      "name": "PropertyRequested",
      "type": "event"
    },
    {
      "anonymous": false,
      "inputs": [
        {
          "indexed": true,
          "internalType": "address",
          "name": "landlord",
          "type": "address"
        },
        {
          "indexed": true,
          "internalType": "address",
          "name": "tenant",
          "type": "address"
        },
        {
          "indexed": false,
          "internalType": "uint256",
          "name": "amount",
          "type": "uint256"
        }
      ],
      "name": "RentPaid",
      "type": "event"
    },
    {
      "anonymous": false,
      "inputs": [
        {
          "indexed": true,
          "internalType": "address",
          "name": "landlord",
          "type": "address"
        },
        {
          "indexed": true,
          "internalType": "address",
          "name": "tenant",
          "type": "address"
        },
        {
          "indexed": false,
          "internalType": "uint256",
          "name": "rentalId",
          "type": "uint256"
        }
      ],
      "name": "RentalSigned",
      "type": "event"
    },
    {
      "anonymous": false,
      "inputs": [
        {
          "indexed": true,
          "internalType": "address",
          "name": "tenant",
          "type": "address"
        },
        {
          "indexed": false,
          "internalType": "bool",
          "name": "isRegistered",
          "type": "bool"
        }
      ],
      "name": "TenantRegistered",
      "type": "event"
    },
    {
      "anonymous": false,
      "inputs": [
        {
          "indexed": true,
          "internalType": "address",
          "name": "user",
          "type": "address"
        },
        {
          "indexed": false,
          "internalType": "uint256",
          "name": "amount",
          "type": "uint256"
        }
      ],
      "name": "Withdrawn",
      "type": "event"
    },
    {
      "inputs": [
        {
          "internalType": "uint64",
          "name": "",
          "type": "uint64"
        },
        {
          "internalType": "address",
          "name": "",
          "type": "address"
        }
      ],
      "name": "allowedSenderPerChain",
      "outputs": [
        {
          "internalType": "bool",
          "name": "",
          "type": "bool"
        }
      ],
      "stateMutability": "view",
      "type": "function"
    },
    {
      "inputs": [],
      "name": "autoRentalPayment",
      "outputs": [],
      "stateMutability": "nonpayable",
      "type": "function"
    },
    {
      "inputs": [
        {
          "internalType": "bytes",
          "name": "",
          "type": "bytes"
        }
      ],
      "name": "checkUpkeep",
      "outputs": [
        {
          "internalType": "bool",
          "name": "upkeepNeeded",
          "type": "bool"
        },
        {
          "internalType": "bytes",
          "name": "performData",
          "type": "bytes"
        }
      ],
      "stateMutability": "view",
      "type": "function"
    },
    {
      "inputs": [],
      "name": "indexedProperty",
      "outputs": [
        {
          "internalType": "uint256",
          "name": "",
          "type": "uint256"
        }
      ],
      "stateMutability": "view",
      "type": "function"
    },
    {
      "inputs": [
        {
          "internalType": "bytes32",
          "name": "",
          "type": "bytes32"
        }
      ],
      "name": "isPropertyRegistered",
      "outputs": [
        {
          "internalType": "bool",
          "name": "",
          "type": "bool"
        }
      ],
      "stateMutability": "view",
      "type": "function"
    },
    {
      "inputs": [
        {
          "internalType": "address",
          "name": "",
          "type": "address"
        }
      ],
      "name": "landlordProfile",
      "outputs": [
        {
          "internalType": "uint256",
          "name": "balance",
          "type": "uint256"
        },
        {
          "internalType": "address",
          "name": "user",
          "type": "address"
        },
        {
          "internalType": "bool",
          "name": "isRegistered",
          "type": "bool"
        },
        {
          "internalType": "bool",
          "name": "hasProperties",
          "type": "bool"
        }
      ],
      "stateMutability": "view",
      "type": "function"
    },
    {
      "inputs": [
        {
          "internalType": "uint256",
          "name": "",
          "type": "uint256"
        }
      ],
      "name": "listedProperties",
      "outputs": [
        {
          "internalType": "uint256",
          "name": "propertyId",
          "type": "uint256"
        },
        {
          "internalType": "address",
          "name": "landlord",
          "type": "address"
        },
        {
          "internalType": "string",
          "name": "location",
          "type": "string"
        },
        {
          "internalType": "string",
          "name": "name",
          "type": "string"
        },
        {
          "internalType": "uint256",
          "name": "rentAmount",
          "type": "uint256"
        },
        {
          "internalType": "address",
          "name": "requestedBy",
          "type": "address"
        },
        {
          "internalType": "bool",
          "name": "isOccupied",
          "type": "bool"
        },
        {
          "internalType": "bool",
          "name": "tenantRequest",
          "type": "bool"
        },
        {
          "internalType": "bool",
          "name": "isRegistered",
          "type": "bool"
        }
      ],
      "stateMutability": "view",
      "type": "function"
    },
    {
      "inputs": [],
      "name": "owner",
      "outputs": [
        {
          "internalType": "address",
          "name": "",
          "type": "address"
        }
      ],
      "stateMutability": "view",
      "type": "function"
    },
    {
      "inputs": [
        {
          "internalType": "bytes",
          "name": "performData",
          "type": "bytes"
        }
      ],
      "name": "performUpkeep",
      "outputs": [],
      "stateMutability": "nonpayable",
      "type": "function"
    },
    {
      "inputs": [
        {
          "internalType": "uint256",
          "name": "_propertyId",
          "type": "uint256"
        }
      ],
      "name": "propertyRentRequest",
      "outputs": [],
      "stateMutability": "nonpayable",
      "type": "function"
    },
    {
      "inputs": [],
      "name": "registerLandLord",
      "outputs": [],
      "stateMutability": "nonpayable",
      "type": "function"
    },
    {
      "inputs": [
        {
          "internalType": "string",
          "name": "_location",
          "type": "string"
        },
        {
          "internalType": "string",
          "name": "_name",
          "type": "string"
        },
        {
          "internalType": "uint256",
          "name": "_amount",
          "type": "uint256"
        }
      ],
      "name": "registerProperties",
      "outputs": [],
      "stateMutability": "nonpayable",
      "type": "function"
    },
    {
      "inputs": [],
      "name": "registerTenant",
      "outputs": [],
      "stateMutability": "nonpayable",
      "type": "function"
    },
    {
      "inputs": [
        {
          "internalType": "uint256",
          "name": "",
          "type": "uint256"
        }
      ],
      "name": "rentalReceipts",
      "outputs": [
        {
          "internalType": "uint256",
          "name": "propertyId",
          "type": "uint256"
        },
        {
          "internalType": "uint256",
          "name": "startDate",
          "type": "uint256"
        },
        {
          "internalType": "uint256",
          "name": "endDate",
          "type": "uint256"
        },
        {
          "internalType": "address",
          "name": "landlord",
          "type": "address"
        },
        {
          "internalType": "address",
          "name": "tenant",
          "type": "address"
        },
        {
          "internalType": "bool",
          "name": "isSigned",
          "type": "bool"
        },
        {
          "internalType": "bool",
          "name": "isReleased",
          "type": "bool"
        },
        {
          "internalType": "bool",
          "name": "isPaid",
          "type": "bool"
        },
        {
          "internalType": "string",
          "name": "propertyName",
          "type": "string"
        }
      ],
      "stateMutability": "view",
      "type": "function"
    },
    {
      "inputs": [],
      "name": "returnAllProperties",
      "outputs": [
        {
          "components": [
            {
              "internalType": "uint256",
              "name": "propertyId",
              "type": "uint256"
            },
            {
              "internalType": "address",
              "name": "landlord",
              "type": "address"
            },
            {
              "internalType": "string",
              "name": "location",
              "type": "string"
            },
            {
              "internalType": "string",
              "name": "name",
              "type": "string"
            },
            {
              "internalType": "uint256",
              "name": "rentAmount",
              "type": "uint256"
            },
            {
              "internalType": "address",
              "name": "requestedBy",
              "type": "address"
            },
            {
              "internalType": "bool",
              "name": "isOccupied",
              "type": "bool"
            },
            {
              "internalType": "bool",
              "name": "tenantRequest",
              "type": "bool"
            },
            {
              "internalType": "bool",
              "name": "isRegistered",
              "type": "bool"
            }
          ],
          "internalType": "struct ImmovableRental.Properties[]",
          "name": "",
          "type": "tuple[]"
        }
      ],
      "stateMutability": "view",
      "type": "function"
    },
    {
      "inputs": [],
      "name": "returnLandlordProfile",
      "outputs": [
        {
          "components": [
            {
              "internalType": "uint256",
              "name": "balance",
              "type": "uint256"
            },
            {
              "internalType": "address",
              "name": "user",
              "type": "address"
            },
            {
              "internalType": "bool",
              "name": "isRegistered",
              "type": "bool"
            },
            {
              "internalType": "bool",
              "name": "hasProperties",
              "type": "bool"
            }
          ],
          "internalType": "struct ImmovableRental.Landlord",
          "name": "",
          "type": "tuple"
        }
      ],
      "stateMutability": "view",
      "type": "function"
    },
    {
      "inputs": [],
      "name": "returnRental",
      "outputs": [
        {
          "components": [
            {
              "internalType": "uint256",
              "name": "propertyId",
              "type": "uint256"
            },
            {
              "internalType": "uint256",
              "name": "startDate",
              "type": "uint256"
            },
            {
              "internalType": "uint256",
              "name": "endDate",
              "type": "uint256"
            },
            {
              "internalType": "address",
              "name": "landlord",
              "type": "address"
            },
            {
              "internalType": "address",
              "name": "tenant",
              "type": "address"
            },
            {
              "internalType": "bool",
              "name": "isSigned",
              "type": "bool"
            },
            {
              "internalType": "bool",
              "name": "isReleased",
              "type": "bool"
            },
            {
              "internalType": "bool",
              "name": "isPaid",
              "type": "bool"
            },
            {
              "internalType": "string",
              "name": "propertyName",
              "type": "string"
            }
          ],
          "internalType": "struct ImmovableRental.TenantsReceipt",
          "name": "",
          "type": "tuple"
        }
      ],
      "stateMutability": "view",
      "type": "function"
    },
    {
      "inputs": [],
      "name": "returnTenantProfiles",
      "outputs": [
        {
          "components": [
            {
              "internalType": "uint256",
              "name": "balance",
              "type": "uint256"
            },
            {
              "internalType": "address",
              "name": "user",
              "type": "address"
            },
            {
              "internalType": "bool",
              "name": "hasActiveRent",
              "type": "bool"
            },
            {
              "internalType": "bool",
              "name": "isRegistered",
              "type": "bool"
            }
          ],
          "internalType": "struct ImmovableRental.Tenant",
          "name": "",
          "type": "tuple"
        }
      ],
      "stateMutability": "view",
      "type": "function"
    },
    {
      "inputs": [
        {
          "internalType": "uint256",
          "name": "_propertyId",
          "type": "uint256"
        },
        {
          "internalType": "uint256",
          "name": "_durationInDays",
          "type": "uint256"
        }
      ],
      "name": "signRental",
      "outputs": [],
      "stateMutability": "nonpayable",
      "type": "function"
    },
    {
      "inputs": [],
      "name": "tenantDeposit",
      "outputs": [],
      "stateMutability": "payable",
      "type": "function"
    },
    {
      "inputs": [
        {
          "internalType": "address",
          "name": "",
          "type": "address"
        }
      ],
      "name": "tenants",
      "outputs": [
        {
          "internalType": "uint256",
          "name": "balance",
          "type": "uint256"
        },
        {
          "internalType": "address",
          "name": "user",
          "type": "address"
        },
        {
          "internalType": "bool",
          "name": "hasActiveRent",
          "type": "bool"
        },
        {
          "internalType": "bool",
          "name": "isRegistered",
          "type": "bool"
        }
      ],
      "stateMutability": "view",
      "type": "function"
    },
    {
      "inputs": [
        {
          "internalType": "uint256",
          "name": "_amount",
          "type": "uint256"
        }
      ],
      "name": "userWithdraw",
      "outputs": [],
      "stateMutability": "nonpayable",
      "type": "function"
    },
    {
      "stateMutability": "payable",
      "type": "receive"
    }
  ],
  "bytecode": "0x6080604052348015600f57600080fd5b50600160008190555033600760006101000a81548173ffffffffffffffffffffffffffffffffffffffff021916908373ffffffffffffffffffffffffffffffffffffffff1602179055506152c6806100686000396000f3fe6080604052600436106101395760003560e01c806378dbb717116100ab578063a75e69fa1161006f578063a75e69fa1461040b578063ae26df9b14610415578063d1c13abd14610452578063d6ab0cd31461047d578063e43d6c65146104ba578063fd9153a3146104e557610140565b806378dbb717146103025780638c7929f5146103475780638da5cb5b1461038c57806394654469146103b7578063a272d202146103e257610140565b806344841f09116100fd57806344841f091461022b5780634585e33b14610242578063495a54141461026b5780634bd910c6146102965780634eea2690146102ad5780636e04ff0d146102c457610140565b80630334b480146101455780631b8dcddb1461017057806321344a54146101995780633b9056bf146101c25780633d65e573146101eb57610140565b3661014057005b600080fd5b34801561015157600080fd5b5061015a610525565b6040516101679190613680565b60405180910390f35b34801561017c57600080fd5b50610197600480360381019061019291906136db565b6106a1565b005b3480156101a557600080fd5b506101c060048036038101906101bb919061371b565b610da5565b005b3480156101ce57600080fd5b506101e960048036038101906101e4919061371b565b611150565b005b3480156101f757600080fd5b50610212600480360381019061020d9190613774565b61154d565b60405161022294939291906137ce565b60405180910390f35b34801561023757600080fd5b506102406115b7565b005b34801561024e57600080fd5b5061026960048036038101906102649190613878565b6117a9565b005b34801561027757600080fd5b5061028061182e565b60405161028d919061391a565b60405180910390f35b3480156102a257600080fd5b506102ab6119aa565b005b3480156102b957600080fd5b506102c2611d01565b005b3480156102d057600080fd5b506102eb60048036038101906102e69190613878565b611f83565b6040516102f99291906139c5565b60405180910390f35b34801561030e57600080fd5b506103296004803603810190610324919061371b565b61216e565b60405161033e99989796959493929190613a4a565b60405180910390f35b34801561035357600080fd5b5061036e6004803603810190610369919061371b565b6122ab565b60405161038399989796959493929190613ade565b60405180910390f35b34801561039857600080fd5b506103a1612480565b6040516103ae9190613b79565b60405180910390f35b3480156103c357600080fd5b506103cc6124a6565b6040516103d99190613d6c565b60405180910390f35b3480156103ee57600080fd5b5061040960048036038101906104049190613ebe565b61273b565b005b610413612bee565b005b34801561042157600080fd5b5061043c60048036038101906104379190613f89565b612dfb565b6040516104499190613fc9565b60405180910390f35b34801561045e57600080fd5b50610467612e2a565b60405161047491906140a9565b60405180910390f35b34801561048957600080fd5b506104a4600480360381019061049f9190614101565b6131a7565b6040516104b19190613fc9565b60405180910390f35b3480156104c657600080fd5b506104cf6131c7565b6040516104dc919061412e565b60405180910390f35b3480156104f157600080fd5b5061050c60048036038101906105079190613774565b6131cd565b60405161051c94939291906137ce565b60405180910390f35b61052d6134b4565b600560003373ffffffffffffffffffffffffffffffffffffffff1673ffffffffffffffffffffffffffffffffffffffff16815260200190815260200160002060010160149054906101000a900460ff166105bc576040517f08c379a00000000000000000000000000000000000000000000000000000000081526004016105b390614195565b60405180910390fd5b600560003373ffffffffffffffffffffffffffffffffffffffff1673ffffffffffffffffffffffffffffffffffffffff168152602001908152602001600020604051806080016040529081600082015481526020016001820160009054906101000a900473ffffffffffffffffffffffffffffffffffffffff1673ffffffffffffffffffffffffffffffffffffffff1673ffffffffffffffffffffffffffffffffffffffff1681526020016001820160149054906101000a900460ff161515151581526020016001820160159054906101000a900460ff161515151581525050905090565b3373ffffffffffffffffffffffffffffffffffffffff16600560003373ffffffffffffffffffffffffffffffffffffffff1673ffffffffffffffffffffffffffffffffffffffff16815260200190815260200160002060010160009054906101000a900473ffffffffffffffffffffffffffffffffffffffff1673ffffffffffffffffffffffffffffffffffffffff1614610771576040517f08c379a000000000000000000000000000000000000000000000000000000000815260040161076890614201565b60405180910390fd5b60038054905082106107b8576040517f08c379a00000000000000000000000000000000000000000000000000000000081526004016107af9061426d565b60405180910390fd5b6000600383815481106107ce576107cd61428d565b5b906000526020600020906006020190503373ffffffffffffffffffffffffffffffffffffffff168160010160009054906101000a900473ffffffffffffffffffffffffffffffffffffffff1673ffffffffffffffffffffffffffffffffffffffff1614610870576040517f08c379a00000000000000000000000000000000000000000000000000000000081526004016108679061432e565b60405180910390fd5b600073ffffffffffffffffffffffffffffffffffffffff168160050160009054906101000a900473ffffffffffffffffffffffffffffffffffffffff1673ffffffffffffffffffffffffffffffffffffffff1603610903576040517f08c379a00000000000000000000000000000000000000000000000000000000081526004016108fa906143c0565b60405180910390fd5b600115158160050160159054906101000a900460ff1615151461095b576040517f08c379a00000000000000000000000000000000000000000000000000000000081526004016109529061442c565b60405180910390fd5b8060050160149054906101000a900460ff16156109ad576040517f08c379a00000000000000000000000000000000000000000000000000000000081526004016109a490614498565b60405180910390fd5b60008160050160009054906101000a900473ffffffffffffffffffffffffffffffffffffffff169050600160008273ffffffffffffffffffffffffffffffffffffffff1673ffffffffffffffffffffffffffffffffffffffff16815260200190815260200160002060010160159054906101000a900460ff16610a65576040517f08c379a0000000000000000000000000000000000000000000000000000000008152600401610a5c90614504565b60405180910390fd5b604051806101200160405280836000015481526020014281526020016201518085610a909190614553565b42610a9b9190614595565b81526020013373ffffffffffffffffffffffffffffffffffffffff1681526020018273ffffffffffffffffffffffffffffffffffffffff168152602001600115158152602001600015158152602001600015158152602001836003018054610b02906145f8565b80601f0160208091040260200160405190810160405280929190818152602001828054610b2e906145f8565b8015610b7b5780601f10610b5057610100808354040283529160200191610b7b565b820191906000526020600020905b815481529060010190602001808311610b5e57829003601f168201915b5050505050815250600660008460000154815260200190815260200160002060008201518160000155602082015181600101556040820151816002015560608201518160030160006101000a81548173ffffffffffffffffffffffffffffffffffffffff021916908373ffffffffffffffffffffffffffffffffffffffff16021790555060808201518160040160006101000a81548173ffffffffffffffffffffffffffffffffffffffff021916908373ffffffffffffffffffffffffffffffffffffffff16021790555060a08201518160040160146101000a81548160ff02191690831515021790555060c08201518160040160156101000a81548160ff02191690831515021790555060e08201518160040160166101000a81548160ff021916908315150217905550610100820151816005019081610cbc91906147d5565b5090505060018260050160146101000a81548160ff02191690831515021790555060018060008373ffffffffffffffffffffffffffffffffffffffff1673ffffffffffffffffffffffffffffffffffffffff16815260200190815260200160002060010160146101000a81548160ff0219169083151502179055508073ffffffffffffffffffffffffffffffffffffffff163373ffffffffffffffffffffffffffffffffffffffff167ef021a6c54757c213a20afb1e9eda71a97192985772445e27d14795e9fd16a28460000154604051610d97919061412e565b60405180910390a350505050565b3373ffffffffffffffffffffffffffffffffffffffff16600160003373ffffffffffffffffffffffffffffffffffffffff1673ffffffffffffffffffffffffffffffffffffffff16815260200190815260200160002060010160009054906101000a900473ffffffffffffffffffffffffffffffffffffffff1673ffffffffffffffffffffffffffffffffffffffff1614610e75576040517f08c379a0000000000000000000000000000000000000000000000000000000008152600401610e6c906148f3565b60405180910390fd5b600160003373ffffffffffffffffffffffffffffffffffffffff1673ffffffffffffffffffffffffffffffffffffffff16815260200190815260200160002060010160159054906101000a900460ff16610f04576040517f08c379a0000000000000000000000000000000000000000000000000000000008152600401610efb9061495f565b60405180910390fd5b6003805490508110610f4b576040517f08c379a0000000000000000000000000000000000000000000000000000000008152600401610f42906149cb565b60405180910390fd5b600060038281548110610f6157610f6061428d565b5b906000526020600020906006020190508060050160149054906101000a900460ff1615610fc3576040517f08c379a0000000000000000000000000000000000000000000000000000000008152600401610fba90614a37565b60405180910390fd5b8060050160159054906101000a900460ff1615611015576040517f08c379a000000000000000000000000000000000000000000000000000000000815260040161100c90614aa3565b60405180910390fd5b8060040154600160003373ffffffffffffffffffffffffffffffffffffffff1673ffffffffffffffffffffffffffffffffffffffff16815260200190815260200160002060000154101561109e576040517f08c379a000000000000000000000000000000000000000000000000000000000815260040161109590614b0f565b60405180910390fd5b60018160050160156101000a81548160ff021916908315150217905550338160050160006101000a81548173ffffffffffffffffffffffffffffffffffffffff021916908373ffffffffffffffffffffffffffffffffffffffff1602179055503373ffffffffffffffffffffffffffffffffffffffff167f507ad3b72a7c833c6328998745bb0750f24e40406335735e1268db7febcbd4b383604051611144919061412e565b60405180910390a25050565b611158613237565b6000811161119b576040517f08c379a000000000000000000000000000000000000000000000000000000000815260040161119290614b7b565b60405180910390fd5b600160003373ffffffffffffffffffffffffffffffffffffffff1673ffffffffffffffffffffffffffffffffffffffff16815260200190815260200160002060010160159054906101000a900460ff16156112d35780600160003373ffffffffffffffffffffffffffffffffffffffff1673ffffffffffffffffffffffffffffffffffffffff168152602001908152602001600020600001541015611275576040517f08c379a000000000000000000000000000000000000000000000000000000000815260040161126c90614be7565b60405180910390fd5b80600160003373ffffffffffffffffffffffffffffffffffffffff1673ffffffffffffffffffffffffffffffffffffffff16815260200190815260200160002060000160008282546112c79190614c07565b92505081905550611447565b600560003373ffffffffffffffffffffffffffffffffffffffff1673ffffffffffffffffffffffffffffffffffffffff16815260200190815260200160002060010160149054906101000a900460ff161561140b5780600560003373ffffffffffffffffffffffffffffffffffffffff1673ffffffffffffffffffffffffffffffffffffffff1681526020019081526020016000206000015410156113ad576040517f08c379a00000000000000000000000000000000000000000000000000000000081526004016113a490614c87565b60405180910390fd5b80600560003373ffffffffffffffffffffffffffffffffffffffff1673ffffffffffffffffffffffffffffffffffffffff16815260200190815260200160002060000160008282546113ff9190614c07565b92505081905550611446565b6040517f08c379a000000000000000000000000000000000000000000000000000000000815260040161143d90614cf3565b60405180910390fd5b5b60003373ffffffffffffffffffffffffffffffffffffffff168260405161146d90614d44565b60006040518083038185875af1925050503d80600081146114aa576040519150601f19603f3d011682016040523d82523d6000602084013e6114af565b606091505b50509050806114f3576040517f08c379a00000000000000000000000000000000000000000000000000000000081526004016114ea90614da5565b60405180910390fd5b3373ffffffffffffffffffffffffffffffffffffffff167f7084f5476618d8e60b11ef0d7d3f06914655adb8793e28ff7f018d4c76d505d583604051611539919061412e565b60405180910390a25061154a61327d565b50565b60056020528060005260406000206000915090508060000154908060010160009054906101000a900473ffffffffffffffffffffffffffffffffffffffff16908060010160149054906101000a900460ff16908060010160159054906101000a900460ff16905084565b600560003373ffffffffffffffffffffffffffffffffffffffff1673ffffffffffffffffffffffffffffffffffffffff16815260200190815260200160002060010160149054906101000a900460ff1615611647576040517f08c379a000000000000000000000000000000000000000000000000000000000815260040161163e90614e11565b60405180910390fd5b6040518060800160405280600081526020013373ffffffffffffffffffffffffffffffffffffffff16815260200160011515815260200160001515815250600560003373ffffffffffffffffffffffffffffffffffffffff1673ffffffffffffffffffffffffffffffffffffffff1681526020019081526020016000206000820151816000015560208201518160010160006101000a81548173ffffffffffffffffffffffffffffffffffffffff021916908373ffffffffffffffffffffffffffffffffffffffff16021790555060408201518160010160146101000a81548160ff02191690831515021790555060608201518160010160156101000a81548160ff0219169083151502179055509050503373ffffffffffffffffffffffffffffffffffffffff167fb6696617b8ee12f244d0e82a5724fc8d7df5564dc5efe34933f81df1f837c070600160405161179f9190613fc9565b60405180910390a2565b600082828101906117ba9190614e6a565b91505060018160ff16036117d5576117d0613287565b611829565b60028160ff16036117ed576117e86119aa565b611828565b6040517f08c379a000000000000000000000000000000000000000000000000000000000815260040161181f90614ef6565b60405180910390fd5b5b505050565b6118366134f6565b600160003373ffffffffffffffffffffffffffffffffffffffff1673ffffffffffffffffffffffffffffffffffffffff16815260200190815260200160002060010160159054906101000a900460ff166118c5576040517f08c379a00000000000000000000000000000000000000000000000000000000081526004016118bc906148f3565b60405180910390fd5b600160003373ffffffffffffffffffffffffffffffffffffffff1673ffffffffffffffffffffffffffffffffffffffff168152602001908152602001600020604051806080016040529081600082015481526020016001820160009054906101000a900473ffffffffffffffffffffffffffffffffffffffff1673ffffffffffffffffffffffffffffffffffffffff1673ffffffffffffffffffffffffffffffffffffffff1681526020016001820160149054906101000a900460ff161515151581526020016001820160159054906101000a900460ff161515151581525050905090565b6119b2613237565b60005b600380549050811015611cf6576000600382815481106119d8576119d761428d565b5b906000526020600020906006020190506000600660008360000154815260200190815260200160002090508060040160149054906101000a900460ff168015611a3057508060040160159054906101000a900460ff16155b8015611a40575060008160010154115b8015611a50575080600101544210155b8015611a63575080600101548160020154115b8015611ad957508160040154600160008360040160009054906101000a900473ffffffffffffffffffffffffffffffffffffffff1673ffffffffffffffffffffffffffffffffffffffff1673ffffffffffffffffffffffffffffffffffffffff1681526020019081526020016000206000015410155b8015611af457508060040160169054906101000a900460ff16155b15611ce75760018160040160156101000a81548160ff0219169083151502179055508160040154600160008360040160009054906101000a900473ffffffffffffffffffffffffffffffffffffffff1673ffffffffffffffffffffffffffffffffffffffff1673ffffffffffffffffffffffffffffffffffffffff1681526020019081526020016000206000016000828254611b909190614c07565b925050819055508160040154600560008360030160009054906101000a900473ffffffffffffffffffffffffffffffffffffffff1673ffffffffffffffffffffffffffffffffffffffff1673ffffffffffffffffffffffffffffffffffffffff1681526020019081526020016000206000016000828254611c119190614595565b9250508190555060018160040160166101000a81548160ff0219169083151502179055508060040160009054906101000a900473ffffffffffffffffffffffffffffffffffffffff1673ffffffffffffffffffffffffffffffffffffffff168160030160009054906101000a900473ffffffffffffffffffffffffffffffffffffffff1673ffffffffffffffffffffffffffffffffffffffff167f791ff5c84f9acebb4b26797f063e5992a2fe426c7b60a97e82d103e9c8b210e48460040154604051611cde919061412e565b60405180910390a35b505080806001019150506119b5565b50611cff61327d565b565b600160003373ffffffffffffffffffffffffffffffffffffffff1673ffffffffffffffffffffffffffffffffffffffff16815260200190815260200160002060010160159054906101000a900460ff1615611d91576040517f08c379a0000000000000000000000000000000000000000000000000000000008152600401611d8890614f62565b60405180910390fd5b600160003373ffffffffffffffffffffffffffffffffffffffff1673ffffffffffffffffffffffffffffffffffffffff16815260200190815260200160002060010160149054906101000a900460ff1615611e21576040517f08c379a0000000000000000000000000000000000000000000000000000000008152600401611e1890614f62565b60405180910390fd5b6040518060800160405280600081526020013373ffffffffffffffffffffffffffffffffffffffff16815260200160001515815260200160011515815250600160003373ffffffffffffffffffffffffffffffffffffffff1673ffffffffffffffffffffffffffffffffffffffff1681526020019081526020016000206000820151816000015560208201518160010160006101000a81548173ffffffffffffffffffffffffffffffffffffffff021916908373ffffffffffffffffffffffffffffffffffffffff16021790555060408201518160010160146101000a81548160ff02191690831515021790555060608201518160010160156101000a81548160ff0219169083151502179055509050503373ffffffffffffffffffffffffffffffffffffffff167f77e2c0497197e0ec9be0552f1b02a0366bff8357993d2a2fab479650c6967ea16001604051611f799190613fc9565b60405180910390a2565b600060606000915060005b60038054905081101561214f57600060038281548110611fb157611fb061428d565b5b906000526020600020906006020190506000600660008360000154815260200190815260200160002090508060040160149054906101000a900460ff16801561200957508060040160159054906101000a900460ff16155b8015612019575080600201544210155b1561205357600182600001546001604051602001612038929190614f91565b60405160208183030381529060405294509450505050612167565b8060040160149054906101000a900460ff16801561208057508060040160159054906101000a900460ff16155b80156120f657508160040154600160008360040160009054906101000a900473ffffffffffffffffffffffffffffffffffffffff1673ffffffffffffffffffffffffffffffffffffffff1673ffffffffffffffffffffffffffffffffffffffff1681526020019081526020016000206000015410155b8015612106575080600101544210155b1561214057600182600001546002604051602001612125929190614f91565b60405160208183030381529060405294509450505050612167565b50508080600101915050611f8e565b50600060405180602001604052806000815250915091505b9250929050565b60066020528060005260406000206000915090508060000154908060010154908060020154908060030160009054906101000a900473ffffffffffffffffffffffffffffffffffffffff16908060040160009054906101000a900473ffffffffffffffffffffffffffffffffffffffff16908060040160149054906101000a900460ff16908060040160159054906101000a900460ff16908060040160169054906101000a900460ff1690806005018054612228906145f8565b80601f0160208091040260200160405190810160405280929190818152602001828054612254906145f8565b80156122a15780601f10612276576101008083540402835291602001916122a1565b820191906000526020600020905b81548152906001019060200180831161228457829003601f168201915b5050505050905089565b600381815481106122bb57600080fd5b90600052602060002090600602016000915090508060000154908060010160009054906101000a900473ffffffffffffffffffffffffffffffffffffffff169080600201805461230a906145f8565b80601f0160208091040260200160405190810160405280929190818152602001828054612336906145f8565b80156123835780601f1061235857610100808354040283529160200191612383565b820191906000526020600020905b81548152906001019060200180831161236657829003601f168201915b505050505090806003018054612398906145f8565b80601f01602080910402602001604051908101604052809291908181526020018280546123c4906145f8565b80156124115780601f106123e657610100808354040283529160200191612411565b820191906000526020600020905b8154815290600101906020018083116123f457829003601f168201915b5050505050908060040154908060050160009054906101000a900473ffffffffffffffffffffffffffffffffffffffff16908060050160149054906101000a900460ff16908060050160159054906101000a900460ff16908060050160169054906101000a900460ff16905089565b600760009054906101000a900473ffffffffffffffffffffffffffffffffffffffff1681565b60606003805480602002602001604051908101604052809291908181526020016000905b82821015612732578382906000526020600020906006020160405180610120016040529081600082015481526020016001820160009054906101000a900473ffffffffffffffffffffffffffffffffffffffff1673ffffffffffffffffffffffffffffffffffffffff1673ffffffffffffffffffffffffffffffffffffffff16815260200160028201805461255e906145f8565b80601f016020809104026020016040519081016040528092919081815260200182805461258a906145f8565b80156125d75780601f106125ac576101008083540402835291602001916125d7565b820191906000526020600020905b8154815290600101906020018083116125ba57829003601f168201915b505050505081526020016003820180546125f0906145f8565b80601f016020809104026020016040519081016040528092919081815260200182805461261c906145f8565b80156126695780601f1061263e57610100808354040283529160200191612669565b820191906000526020600020905b81548152906001019060200180831161264c57829003601f168201915b50505050508152602001600482015481526020016005820160009054906101000a900473ffffffffffffffffffffffffffffffffffffffff1673ffffffffffffffffffffffffffffffffffffffff1673ffffffffffffffffffffffffffffffffffffffff1681526020016005820160149054906101000a900460ff161515151581526020016005820160159054906101000a900460ff161515151581526020016005820160169054906101000a900460ff161515151581525050815260200190600101906124ca565b50505050905090565b3373ffffffffffffffffffffffffffffffffffffffff16600560003373ffffffffffffffffffffffffffffffffffffffff1673ffffffffffffffffffffffffffffffffffffffff16815260200190815260200160002060010160009054906101000a900473ffffffffffffffffffffffffffffffffffffffff1673ffffffffffffffffffffffffffffffffffffffff161461280b576040517f08c379a000000000000000000000000000000000000000000000000000000000815260040161280290614201565b60405180910390fd5b600560003373ffffffffffffffffffffffffffffffffffffffff1673ffffffffffffffffffffffffffffffffffffffff16815260200190815260200160002060010160149054906101000a900460ff1661289a576040517f08c379a000000000000000000000000000000000000000000000000000000000815260040161289190615006565b60405180910390fd5b60003384836040516020016128b1939291906150cb565b6040516020818303038152906040528051906020012090506004600082815260200190815260200160002060009054906101000a900460ff161561292a576040517f08c379a000000000000000000000000000000000000000000000000000000000815260040161292190615150565b60405180910390fd5b60036040518061012001604052806002600081548092919061294b90615170565b9190505581526020013373ffffffffffffffffffffffffffffffffffffffff168152602001868152602001858152602001848152602001600073ffffffffffffffffffffffffffffffffffffffff1681526020016000151581526020016000151581526020016001151581525090806001815401808255809150506001900390600052602060002090600602016000909190919091506000820151816000015560208201518160010160006101000a81548173ffffffffffffffffffffffffffffffffffffffff021916908373ffffffffffffffffffffffffffffffffffffffff1602179055506040820151816002019081612a4791906147d5565b506060820151816003019081612a5d91906147d5565b506080820151816004015560a08201518160050160006101000a81548173ffffffffffffffffffffffffffffffffffffffff021916908373ffffffffffffffffffffffffffffffffffffffff16021790555060c08201518160050160146101000a81548160ff02191690831515021790555060e08201518160050160156101000a81548160ff0219169083151502179055506101008201518160050160166101000a81548160ff021916908315150217905550505060016004600083815260200190815260200160002060006101000a81548160ff0219169083151502179055506001600560003373ffffffffffffffffffffffffffffffffffffffff1673ffffffffffffffffffffffffffffffffffffffff16815260200190815260200160002060010160156101000a81548160ff0219169083151502179055503373ffffffffffffffffffffffffffffffffffffffff167fc92e830c7a6579616c317c0684d2eaf53fb889033a419d9b261f5e76594babbf6001604051612be09190613fc9565b60405180910390a250505050565b3373ffffffffffffffffffffffffffffffffffffffff16600160003373ffffffffffffffffffffffffffffffffffffffff1673ffffffffffffffffffffffffffffffffffffffff16815260200190815260200160002060010160009054906101000a900473ffffffffffffffffffffffffffffffffffffffff1673ffffffffffffffffffffffffffffffffffffffff1614612cbe576040517f08c379a0000000000000000000000000000000000000000000000000000000008152600401612cb5906148f3565b60405180910390fd5b600160003373ffffffffffffffffffffffffffffffffffffffff1673ffffffffffffffffffffffffffffffffffffffff16815260200190815260200160002060010160159054906101000a900460ff16612d4d576040517f08c379a0000000000000000000000000000000000000000000000000000000008152600401612d449061495f565b60405180910390fd5b612d55613237565b60003411612d98576040517f08c379a0000000000000000000000000000000000000000000000000000000008152600401612d8f90615204565b60405180910390fd5b34600160003373ffffffffffffffffffffffffffffffffffffffff1673ffffffffffffffffffffffffffffffffffffffff1681526020019081526020016000206000016000828254612dea9190614595565b92505081905550612df961327d565b565b60086020528160005260406000206020528060005260406000206000915091509054906101000a900460ff1681565b612e32613538565b60005b600380549050811015613168573373ffffffffffffffffffffffffffffffffffffffff166006600060038481548110612e7157612e7061428d565b5b906000526020600020906006020160000154815260200190815260200160002060040160009054906101000a900473ffffffffffffffffffffffffffffffffffffffff1673ffffffffffffffffffffffffffffffffffffffff161480612f5d57503373ffffffffffffffffffffffffffffffffffffffff166006600060038481548110612f0157612f0061428d565b5b906000526020600020906006020160000154815260200190815260200160002060030160009054906101000a900473ffffffffffffffffffffffffffffffffffffffff1673ffffffffffffffffffffffffffffffffffffffff16145b1561315b576006600060038381548110612f7a57612f7961428d565b5b9060005260206000209060060201600001548152602001908152602001600020604051806101200160405290816000820154815260200160018201548152602001600282015481526020016003820160009054906101000a900473ffffffffffffffffffffffffffffffffffffffff1673ffffffffffffffffffffffffffffffffffffffff1673ffffffffffffffffffffffffffffffffffffffff1681526020016004820160009054906101000a900473ffffffffffffffffffffffffffffffffffffffff1673ffffffffffffffffffffffffffffffffffffffff1673ffffffffffffffffffffffffffffffffffffffff1681526020016004820160149054906101000a900460ff161515151581526020016004820160159054906101000a900460ff161515151581526020016004820160169054906101000a900460ff161515151581526020016005820180546130d1906145f8565b80601f01602080910402602001604051908101604052809291908181526020018280546130fd906145f8565b801561314a5780601f1061311f5761010080835404028352916020019161314a565b820191906000526020600020905b81548152906001019060200180831161312d57829003601f168201915b5050505050815250509150506131a4565b8080600101915050612e35565b506040517f08c379a000000000000000000000000000000000000000000000000000000000815260040161319b90615270565b60405180910390fd5b90565b60046020528060005260406000206000915054906101000a900460ff1681565b60025481565b60016020528060005260406000206000915090508060000154908060010160009054906101000a900473ffffffffffffffffffffffffffffffffffffffff16908060010160149054906101000a900460ff16908060010160159054906101000a900460ff16905084565b600260005403613273576040517f3ee5aeb500000000000000000000000000000000000000000000000000000000815260040160405180910390fd5b6002600081905550565b6001600081905550565b60005b6003805490508110156134b1576000600382815481106132ad576132ac61428d565b5b9060005260206000209060060201905060006006600083600001548152602001908152602001600020905060008160040160009054906101000a900473ffffffffffffffffffffffffffffffffffffffff16905060018260040160156101000a81548160ff02191690831515021790555060008260040160146101000a81548160ff02191690831515021790555060008260040160006101000a81548173ffffffffffffffffffffffffffffffffffffffff021916908373ffffffffffffffffffffffffffffffffffffffff160217905550600082600101819055506000826002018190555060008360050160146101000a81548160ff02191690831515021790555060008360050160156101000a81548160ff02191690831515021790555060008360050160006101000a81548173ffffffffffffffffffffffffffffffffffffffff021916908373ffffffffffffffffffffffffffffffffffffffff160217905550600073ffffffffffffffffffffffffffffffffffffffff168173ffffffffffffffffffffffffffffffffffffffff16146134a1576000600160008373ffffffffffffffffffffffffffffffffffffffff1673ffffffffffffffffffffffffffffffffffffffff16815260200190815260200160002060010160146101000a81548160ff0219169083151502179055505b505050808060010191505061328a565b50565b604051806080016040528060008152602001600073ffffffffffffffffffffffffffffffffffffffff1681526020016000151581526020016000151581525090565b604051806080016040528060008152602001600073ffffffffffffffffffffffffffffffffffffffff1681526020016000151581526020016000151581525090565b604051806101200160405280600081526020016000815260200160008152602001600073ffffffffffffffffffffffffffffffffffffffff168152602001600073ffffffffffffffffffffffffffffffffffffffff168152602001600015158152602001600015158152602001600015158152602001606081525090565b6000819050919050565b6135c9816135b6565b82525050565b600073ffffffffffffffffffffffffffffffffffffffff82169050919050565b60006135fa826135cf565b9050919050565b61360a816135ef565b82525050565b60008115159050919050565b61362581613610565b82525050565b60808201600082015161364160008501826135c0565b5060208201516136546020850182613601565b506040820151613667604085018261361c565b50606082015161367a606085018261361c565b50505050565b6000608082019050613695600083018461362b565b92915050565b6000604051905090565b600080fd5b600080fd5b6136b8816135b6565b81146136c357600080fd5b50565b6000813590506136d5816136af565b92915050565b600080604083850312156136f2576136f16136a5565b5b6000613700858286016136c6565b9250506020613711858286016136c6565b9150509250929050565b600060208284031215613731576137306136a5565b5b600061373f848285016136c6565b91505092915050565b613751816135ef565b811461375c57600080fd5b50565b60008135905061376e81613748565b92915050565b60006020828403121561378a576137896136a5565b5b60006137988482850161375f565b91505092915050565b6137aa816135b6565b82525050565b6137b9816135ef565b82525050565b6137c881613610565b82525050565b60006080820190506137e360008301876137a1565b6137f060208301866137b0565b6137fd60408301856137bf565b61380a60608301846137bf565b95945050505050565b600080fd5b600080fd5b600080fd5b60008083601f84011261383857613837613813565b5b8235905067ffffffffffffffff81111561385557613854613818565b5b6020830191508360018202830111156138715761387061381d565b5b9250929050565b6000806020838503121561388f5761388e6136a5565b5b600083013567ffffffffffffffff8111156138ad576138ac6136aa565b5b6138b985828601613822565b92509250509250929050565b6080820160008201516138db60008501826135c0565b5060208201516138ee6020850182613601565b506040820151613901604085018261361c565b506060820151613914606085018261361c565b50505050565b600060808201905061392f60008301846138c5565b92915050565b600081519050919050565b600082825260208201905092915050565b60005b8381101561396f578082015181840152602081019050613954565b60008484015250505050565b6000601f19601f8301169050919050565b600061399782613935565b6139a18185613940565b93506139b1818560208601613951565b6139ba8161397b565b840191505092915050565b60006040820190506139da60008301856137bf565b81810360208301526139ec818461398c565b90509392505050565b600081519050919050565b600082825260208201905092915050565b6000613a1c826139f5565b613a268185613a00565b9350613a36818560208601613951565b613a3f8161397b565b840191505092915050565b600061012082019050613a60600083018c6137a1565b613a6d602083018b6137a1565b613a7a604083018a6137a1565b613a8760608301896137b0565b613a9460808301886137b0565b613aa160a08301876137bf565b613aae60c08301866137bf565b613abb60e08301856137bf565b818103610100830152613ace8184613a11565b90509a9950505050505050505050565b600061012082019050613af4600083018c6137a1565b613b01602083018b6137b0565b8181036040830152613b13818a613a11565b90508181036060830152613b278189613a11565b9050613b3660808301886137a1565b613b4360a08301876137b0565b613b5060c08301866137bf565b613b5d60e08301856137bf565b613b6b6101008301846137bf565b9a9950505050505050505050565b6000602082019050613b8e60008301846137b0565b92915050565b600081519050919050565b600082825260208201905092915050565b6000819050602082019050919050565b600082825260208201905092915050565b6000613bdc826139f5565b613be68185613bc0565b9350613bf6818560208601613951565b613bff8161397b565b840191505092915050565b600061012083016000830151613c2360008601826135c0565b506020830151613c366020860182613601565b5060408301518482036040860152613c4e8282613bd1565b91505060608301518482036060860152613c688282613bd1565b9150506080830151613c7d60808601826135c0565b5060a0830151613c9060a0860182613601565b5060c0830151613ca360c086018261361c565b5060e0830151613cb660e086018261361c565b50610100830151613ccb61010086018261361c565b508091505092915050565b6000613ce28383613c0a565b905092915050565b6000602082019050919050565b6000613d0282613b94565b613d0c8185613b9f565b935083602082028501613d1e85613bb0565b8060005b85811015613d5a5784840389528151613d3b8582613cd6565b9450613d4683613cea565b925060208a01995050600181019050613d22565b50829750879550505050505092915050565b60006020820190508181036000830152613d868184613cf7565b905092915050565b600080fd5b7f4e487b7100000000000000000000000000000000000000000000000000000000600052604160045260246000fd5b613dcb8261397b565b810181811067ffffffffffffffff82111715613dea57613de9613d93565b5b80604052505050565b6000613dfd61369b565b9050613e098282613dc2565b919050565b600067ffffffffffffffff821115613e2957613e28613d93565b5b613e328261397b565b9050602081019050919050565b82818337600083830152505050565b6000613e61613e5c84613e0e565b613df3565b905082815260208101848484011115613e7d57613e7c613d8e565b5b613e88848285613e3f565b509392505050565b600082601f830112613ea557613ea4613813565b5b8135613eb5848260208601613e4e565b91505092915050565b600080600060608486031215613ed757613ed66136a5565b5b600084013567ffffffffffffffff811115613ef557613ef46136aa565b5b613f0186828701613e90565b935050602084013567ffffffffffffffff811115613f2257613f216136aa565b5b613f2e86828701613e90565b9250506040613f3f868287016136c6565b9150509250925092565b600067ffffffffffffffff82169050919050565b613f6681613f49565b8114613f7157600080fd5b50565b600081359050613f8381613f5d565b92915050565b60008060408385031215613fa057613f9f6136a5565b5b6000613fae85828601613f74565b9250506020613fbf8582860161375f565b9150509250929050565b6000602082019050613fde60008301846137bf565b92915050565b600061012083016000830151613ffd60008601826135c0565b50602083015161401060208601826135c0565b50604083015161402360408601826135c0565b5060608301516140366060860182613601565b5060808301516140496080860182613601565b5060a083015161405c60a086018261361c565b5060c083015161406f60c086018261361c565b5060e083015161408260e086018261361c565b5061010083015184820361010086015261409c8282613bd1565b9150508091505092915050565b600060208201905081810360008301526140c38184613fe4565b905092915050565b6000819050919050565b6140de816140cb565b81146140e957600080fd5b50565b6000813590506140fb816140d5565b92915050565b600060208284031215614117576141166136a5565b5b6000614125848285016140ec565b91505092915050565b600060208201905061414360008301846137a1565b92915050565b7f556e72656769737465726564206c616e646c6f72640000000000000000000000600082015250565b600061417f601583613a00565b915061418a82614149565b602082019050919050565b600060208201905081810360008301526141ae81614172565b9050919050565b7f4e6f74204c616e646c6f72640000000000000000000000000000000000000000600082015250565b60006141eb600c83613a00565b91506141f6826141b5565b602082019050919050565b6000602082019050818103600083015261421a816141de565b9050919050565b7f496e76616c69642050726f706572747920494400000000000000000000000000600082015250565b6000614257601383613a00565b915061426282614221565b602082019050919050565b600060208201905081810360008301526142868161424a565b9050919050565b7f4e487b7100000000000000000000000000000000000000000000000000000000600052603260045260246000fd5b7f596f7520617265206e6f7420746865206c616e646c6f7264206f66207468697360008201527f2070726f70657274790000000000000000000000000000000000000000000000602082015250565b6000614318602983613a00565b9150614323826142bc565b604082019050919050565b600060208201905081810360008301526143478161430b565b9050919050565b7f4e6f2074656e616e742072657175657374656420746869732070726f7065727460008201527f7900000000000000000000000000000000000000000000000000000000000000602082015250565b60006143aa602183613a00565b91506143b58261434e565b604082019050919050565b600060208201905081810360008301526143d98161439d565b9050919050565b7f4e6f206163746976652072657175657374000000000000000000000000000000600082015250565b6000614416601183613a00565b9150614421826143e0565b602082019050919050565b6000602082019050818103600083015261444581614409565b9050919050565b7f416c7265616479206f6363757069656400000000000000000000000000000000600082015250565b6000614482601083613a00565b915061448d8261444c565b602082019050919050565b600060208201905081810360008301526144b181614475565b9050919050565b7f54656e616e74206e6f7420726567697374657265640000000000000000000000600082015250565b60006144ee601583613a00565b91506144f9826144b8565b602082019050919050565b6000602082019050818103600083015261451d816144e1565b9050919050565b7f4e487b7100000000000000000000000000000000000000000000000000000000600052601160045260246000fd5b600061455e826135b6565b9150614569836135b6565b9250828202614577816135b6565b9150828204841483151761458e5761458d614524565b5b5092915050565b60006145a0826135b6565b91506145ab836135b6565b92508282019050808211156145c3576145c2614524565b5b92915050565b7f4e487b7100000000000000000000000000000000000000000000000000000000600052602260045260246000fd5b6000600282049050600182168061461057607f821691505b602082108103614623576146226145c9565b5b50919050565b60008190508160005260206000209050919050565b60006020601f8301049050919050565b600082821b905092915050565b60006008830261468b7fffffffffffffffffffffffffffffffffffffffffffffffffffffffffffffffff8261464e565b614695868361464e565b95508019841693508086168417925050509392505050565b6000819050919050565b60006146d26146cd6146c8846135b6565b6146ad565b6135b6565b9050919050565b6000819050919050565b6146ec836146b7565b6147006146f8826146d9565b84845461465b565b825550505050565b600090565b614715614708565b6147208184846146e3565b505050565b5b818110156147445761473960008261470d565b600181019050614726565b5050565b601f8211156147895761475a81614629565b6147638461463e565b81016020851015614772578190505b61478661477e8561463e565b830182614725565b50505b505050565b600082821c905092915050565b60006147ac6000198460080261478e565b1980831691505092915050565b60006147c5838361479b565b9150826002028217905092915050565b6147de826139f5565b67ffffffffffffffff8111156147f7576147f6613d93565b5b61480182546145f8565b61480c828285614748565b600060209050601f83116001811461483f576000841561482d578287015190505b61483785826147b9565b86555061489f565b601f19841661484d86614629565b60005b8281101561487557848901518255600182019150602085019450602081019050614850565b86831015614892578489015161488e601f89168261479b565b8355505b6001600288020188555050505b505050505050565b7f556e726567697374657265642074656e616e7400000000000000000000000000600082015250565b60006148dd601383613a00565b91506148e8826148a7565b602082019050919050565b6000602082019050818103600083015261490c816148d0565b9050919050565b7f54656e616e7420556e7265676973746572656400000000000000000000000000600082015250565b6000614949601383613a00565b915061495482614913565b602082019050919050565b600060208201905081810360008301526149788161493c565b9050919050565b7f496e76616c69642050726f706572742049640000000000000000000000000000600082015250565b60006149b5601283613a00565b91506149c08261497f565b602082019050919050565b600060208201905081810360008301526149e4816149a8565b9050919050565b7f50726f7065727479206f63637570696564000000000000000000000000000000600082015250565b6000614a21601183613a00565b9150614a2c826149eb565b602082019050919050565b60006020820190508181036000830152614a5081614a14565b9050919050565b7f54616b656e000000000000000000000000000000000000000000000000000000600082015250565b6000614a8d600583613a00565b9150614a9882614a57565b602082019050919050565b60006020820190508181036000830152614abc81614a80565b9050919050565b7f496e73756666696369656e742046756e64730000000000000000000000000000600082015250565b6000614af9601283613a00565b9150614b0482614ac3565b602082019050919050565b60006020820190508181036000830152614b2881614aec565b9050919050565b7f496e76616c696420616d6f756e74000000000000000000000000000000000000600082015250565b6000614b65600e83613a00565b9150614b7082614b2f565b602082019050919050565b60006020820190508181036000830152614b9481614b58565b9050919050565b7f696e73756666696369656e742066756e64732000000000000000000000000000600082015250565b6000614bd1601383613a00565b9150614bdc82614b9b565b602082019050919050565b60006020820190508181036000830152614c0081614bc4565b9050919050565b6000614c12826135b6565b9150614c1d836135b6565b9250828203905081811115614c3557614c34614524565b5b92915050565b7f696e73756666696369656e742066756e64730000000000000000000000000000600082015250565b6000614c71601283613a00565b9150614c7c82614c3b565b602082019050919050565b60006020820190508181036000830152614ca081614c64565b9050919050565b7f4e6f742072656769737465726564000000000000000000000000000000000000600082015250565b6000614cdd600e83613a00565b9150614ce882614ca7565b602082019050919050565b60006020820190508181036000830152614d0c81614cd0565b9050919050565b600081905092915050565b50565b6000614d2e600083614d13565b9150614d3982614d1e565b600082019050919050565b6000614d4f82614d21565b9150819050919050565b7f5769746864726177206661696c65640000000000000000000000000000000000600082015250565b6000614d8f600f83613a00565b9150614d9a82614d59565b602082019050919050565b60006020820190508181036000830152614dbe81614d82565b9050919050565b7f4c616e646c6f7264207265676973746572656400000000000000000000000000600082015250565b6000614dfb601383613a00565b9150614e0682614dc5565b602082019050919050565b60006020820190508181036000830152614e2a81614dee565b9050919050565b600060ff82169050919050565b614e4781614e31565b8114614e5257600080fd5b50565b600081359050614e6481614e3e565b92915050565b60008060408385031215614e8157614e806136a5565b5b6000614e8f858286016136c6565b9250506020614ea085828601614e55565b9150509250929050565b7f556e6b6e6f776e2075706b65657020616374696f6e0000000000000000000000600082015250565b6000614ee0601583613a00565b9150614eeb82614eaa565b602082019050919050565b60006020820190508181036000830152614f0f81614ed3565b9050919050565b7f54656e616e742072656769737465726564000000000000000000000000000000600082015250565b6000614f4c601183613a00565b9150614f5782614f16565b602082019050919050565b60006020820190508181036000830152614f7b81614f3f565b9050919050565b614f8b81614e31565b82525050565b6000604082019050614fa660008301856137a1565b614fb36020830184614f82565b9392505050565b7f556e72656769737465726564204c616e646c6f72640000000000000000000000600082015250565b6000614ff0601583613a00565b9150614ffb82614fba565b602082019050919050565b6000602082019050818103600083015261501f81614fe3565b9050919050565b60008160601b9050919050565b600061503e82615026565b9050919050565b600061505082615033565b9050919050565b615068615063826135ef565b615045565b82525050565b600081905092915050565b6000615084826139f5565b61508e818561506e565b935061509e818560208601613951565b80840191505092915050565b6000819050919050565b6150c56150c0826135b6565b6150aa565b82525050565b60006150d78286615057565b6014820191506150e78285615079565b91506150f382846150b4565b602082019150819050949350505050565b7f50726f7065727479207265676973746572656400000000000000000000000000600082015250565b600061513a601383613a00565b915061514582615104565b602082019050919050565b600060208201905081810360008301526151698161512d565b9050919050565b600061517b826135b6565b91507fffffffffffffffffffffffffffffffffffffffffffffffffffffffffffffffff82036151ad576151ac614524565b5b600182019050919050565b7f496e76616c696420496e70757400000000000000000000000000000000000000600082015250565b60006151ee600d83613a00565b91506151f9826151b8565b602082019050919050565b6000602082019050818103600083015261521d816151e1565b9050919050565b7f4e6f206163746976652072656e74616c20666f756e6400000000000000000000600082015250565b600061525a601683613a00565b915061526582615224565b602082019050919050565b600060208201905081810360008301526152898161524d565b905091905056fea264697066735822122017777b6ba914fa3d22b9d61c8acfcc225f502f78c6be07f8e9e6be4cc414313564736f6c634300081c0033",
  "linkReferences": {},
  "deployedLinkReferences": {}
}