{
  "_format": "hh-sol-artifact-1",
  "contractName": "ImmovableRental",
  "sourceName": "contracts/ImmovableRental.sol",
  "abi": [
    {
      "inputs": [],
      "stateMutability": "nonpayable",
      "type": "constructor"
    },
    {
      "inputs": [],
      "name": "ReentrancyGuardReentrantCall",
      "type": "error"
    },
    {
      "anonymous": false,
      "inputs": [
        {
          "indexed": true,
          "internalType": "address",
          "name": "landlord",
          "type": "address"
        },
        {
          "indexed": false,
          "internalType": "bool",
          "name": "isRegistered",
          "type": "bool"
        }
      ],
      "name": "LandlordRegistered",
      "type": "event"
    },
    {
      "anonymous": false,
      "inputs": [
        {
          "indexed": true,
          "internalType": "address",
          "name": "landlord",
          "type": "address"
        },
        {
          "indexed": false,
          "internalType": "bool",
          "name": "isRegistered",
          "type": "bool"
        }
      ],
      "name": "PropertyRegistered",
      "type": "event"
    },
    {
      "anonymous": false,
      "inputs": [
        {
          "indexed": true,
          "internalType": "address",
          "name": "tenant",
          "type": "address"
        },
        {
          "indexed": false,
          "internalType": "uint256",
          "name": "propertyId",
          "type": "uint256"
        }
      ],
      "name": "PropertyRequested",
      "type": "event"
    },
    {
      "anonymous": false,
      "inputs": [
        {
          "indexed": true,
          "internalType": "address",
          "name": "landlord",
          "type": "address"
        },
        {
          "indexed": true,
          "internalType": "address",
          "name": "tenant",
          "type": "address"
        },
        {
          "indexed": false,
          "internalType": "uint256",
          "name": "amount",
          "type": "uint256"
        }
      ],
      "name": "RentPaid",
      "type": "event"
    },
    {
      "anonymous": false,
      "inputs": [
        {
          "indexed": true,
          "internalType": "address",
          "name": "landlord",
          "type": "address"
        },
        {
          "indexed": true,
          "internalType": "address",
          "name": "tenant",
          "type": "address"
        },
        {
          "indexed": false,
          "internalType": "uint256",
          "name": "rentalId",
          "type": "uint256"
        }
      ],
      "name": "RentalSigned",
      "type": "event"
    },
    {
      "anonymous": false,
      "inputs": [
        {
          "indexed": true,
          "internalType": "address",
          "name": "tenant",
          "type": "address"
        },
        {
          "indexed": false,
          "internalType": "bool",
          "name": "isRegistered",
          "type": "bool"
        }
      ],
      "name": "TenantRegistered",
      "type": "event"
    },
    {
      "anonymous": false,
      "inputs": [
        {
          "indexed": true,
          "internalType": "address",
          "name": "user",
          "type": "address"
        },
        {
          "indexed": false,
          "internalType": "uint256",
          "name": "amount",
          "type": "uint256"
        }
      ],
      "name": "Withdrawn",
      "type": "event"
    },
    {
      "inputs": [
        {
          "internalType": "uint64",
          "name": "",
          "type": "uint64"
        },
        {
          "internalType": "address",
          "name": "",
          "type": "address"
        }
      ],
      "name": "allowedSenderPerChain",
      "outputs": [
        {
          "internalType": "bool",
          "name": "",
          "type": "bool"
        }
      ],
      "stateMutability": "view",
      "type": "function"
    },
    {
      "inputs": [],
      "name": "autoRentalPayment",
      "outputs": [],
      "stateMutability": "nonpayable",
      "type": "function"
    },
    {
      "inputs": [
        {
          "internalType": "bytes",
          "name": "",
          "type": "bytes"
        }
      ],
      "name": "checkUpkeep",
      "outputs": [
        {
          "internalType": "bool",
          "name": "upkeepNeeded",
          "type": "bool"
        },
        {
          "internalType": "bytes",
          "name": "performData",
          "type": "bytes"
        }
      ],
      "stateMutability": "view",
      "type": "function"
    },
    {
      "inputs": [],
      "name": "indexedProperty",
      "outputs": [
        {
          "internalType": "uint256",
          "name": "",
          "type": "uint256"
        }
      ],
      "stateMutability": "view",
      "type": "function"
    },
    {
      "inputs": [
        {
          "internalType": "bytes32",
          "name": "",
          "type": "bytes32"
        }
      ],
      "name": "isPropertyRegistered",
      "outputs": [
        {
          "internalType": "bool",
          "name": "",
          "type": "bool"
        }
      ],
      "stateMutability": "view",
      "type": "function"
    },
    {
      "inputs": [
        {
          "internalType": "address",
          "name": "",
          "type": "address"
        }
      ],
      "name": "landlordProfile",
      "outputs": [
        {
          "internalType": "uint256",
          "name": "balance",
          "type": "uint256"
        },
        {
          "internalType": "address",
          "name": "user",
          "type": "address"
        },
        {
          "internalType": "bool",
          "name": "isRegistered",
          "type": "bool"
        },
        {
          "internalType": "bool",
          "name": "hasProperties",
          "type": "bool"
        }
      ],
      "stateMutability": "view",
      "type": "function"
    },
    {
      "inputs": [
        {
          "internalType": "uint256",
          "name": "",
          "type": "uint256"
        }
      ],
      "name": "listedProperties",
      "outputs": [
        {
          "internalType": "uint256",
          "name": "propertyId",
          "type": "uint256"
        },
        {
          "internalType": "address",
          "name": "landlord",
          "type": "address"
        },
        {
          "internalType": "string",
          "name": "location",
          "type": "string"
        },
        {
          "internalType": "string",
          "name": "name",
          "type": "string"
        },
        {
          "internalType": "uint256",
          "name": "rentAmount",
          "type": "uint256"
        },
        {
          "internalType": "address",
          "name": "requestedBy",
          "type": "address"
        },
        {
          "internalType": "bool",
          "name": "isOccupied",
          "type": "bool"
        },
        {
          "internalType": "bool",
          "name": "tenantRequest",
          "type": "bool"
        },
        {
          "internalType": "bool",
          "name": "isRegistered",
          "type": "bool"
        }
      ],
      "stateMutability": "view",
      "type": "function"
    },
    {
      "inputs": [],
      "name": "owner",
      "outputs": [
        {
          "internalType": "address",
          "name": "",
          "type": "address"
        }
      ],
      "stateMutability": "view",
      "type": "function"
    },
    {
      "inputs": [
        {
          "internalType": "bytes",
          "name": "performData",
          "type": "bytes"
        }
      ],
      "name": "performUpkeep",
      "outputs": [],
      "stateMutability": "nonpayable",
      "type": "function"
    },
    {
      "inputs": [
        {
          "internalType": "uint256",
          "name": "_propertyId",
          "type": "uint256"
        }
      ],
      "name": "propertyRentRequest",
      "outputs": [],
      "stateMutability": "nonpayable",
      "type": "function"
    },
    {
      "inputs": [],
      "name": "registerLandLord",
      "outputs": [],
      "stateMutability": "nonpayable",
      "type": "function"
    },
    {
      "inputs": [
        {
          "internalType": "string",
          "name": "_location",
          "type": "string"
        },
        {
          "internalType": "string",
          "name": "_name",
          "type": "string"
        },
        {
          "internalType": "uint256",
          "name": "_amount",
          "type": "uint256"
        }
      ],
      "name": "registerProperties",
      "outputs": [],
      "stateMutability": "nonpayable",
      "type": "function"
    },
    {
      "inputs": [],
      "name": "registerTenant",
      "outputs": [],
      "stateMutability": "nonpayable",
      "type": "function"
    },
    {
      "inputs": [
        {
          "internalType": "uint256",
          "name": "",
          "type": "uint256"
        }
      ],
      "name": "rentalReceipts",
      "outputs": [
        {
          "internalType": "uint256",
          "name": "propertyId",
          "type": "uint256"
        },
        {
          "internalType": "uint256",
          "name": "startDate",
          "type": "uint256"
        },
        {
          "internalType": "uint256",
          "name": "endDate",
          "type": "uint256"
        },
        {
          "internalType": "address",
          "name": "landlord",
          "type": "address"
        },
        {
          "internalType": "address",
          "name": "tenant",
          "type": "address"
        },
        {
          "internalType": "bool",
          "name": "isSigned",
          "type": "bool"
        },
        {
          "internalType": "bool",
          "name": "isReleased",
          "type": "bool"
        },
        {
          "internalType": "bool",
          "name": "isPaid",
          "type": "bool"
        },
        {
          "internalType": "string",
          "name": "propertyName",
          "type": "string"
        }
      ],
      "stateMutability": "view",
      "type": "function"
    },
    {
      "inputs": [],
      "name": "returnAllProperties",
      "outputs": [
        {
          "components": [
            {
              "internalType": "uint256",
              "name": "propertyId",
              "type": "uint256"
            },
            {
              "internalType": "address",
              "name": "landlord",
              "type": "address"
            },
            {
              "internalType": "string",
              "name": "location",
              "type": "string"
            },
            {
              "internalType": "string",
              "name": "name",
              "type": "string"
            },
            {
              "internalType": "uint256",
              "name": "rentAmount",
              "type": "uint256"
            },
            {
              "internalType": "address",
              "name": "requestedBy",
              "type": "address"
            },
            {
              "internalType": "bool",
              "name": "isOccupied",
              "type": "bool"
            },
            {
              "internalType": "bool",
              "name": "tenantRequest",
              "type": "bool"
            },
            {
              "internalType": "bool",
              "name": "isRegistered",
              "type": "bool"
            }
          ],
          "internalType": "struct ImmovableRental.Properties[]",
          "name": "",
          "type": "tuple[]"
        }
      ],
      "stateMutability": "view",
      "type": "function"
    },
    {
      "inputs": [],
      "name": "returnLandlordProfile",
      "outputs": [
        {
          "components": [
            {
              "internalType": "uint256",
              "name": "balance",
              "type": "uint256"
            },
            {
              "internalType": "address",
              "name": "user",
              "type": "address"
            },
            {
              "internalType": "bool",
              "name": "isRegistered",
              "type": "bool"
            },
            {
              "internalType": "bool",
              "name": "hasProperties",
              "type": "bool"
            }
          ],
          "internalType": "struct ImmovableRental.Landlord",
          "name": "",
          "type": "tuple"
        }
      ],
      "stateMutability": "view",
      "type": "function"
    },
    {
      "inputs": [],
      "name": "returnRental",
      "outputs": [
        {
          "components": [
            {
              "internalType": "uint256",
              "name": "propertyId",
              "type": "uint256"
            },
            {
              "internalType": "uint256",
              "name": "startDate",
              "type": "uint256"
            },
            {
              "internalType": "uint256",
              "name": "endDate",
              "type": "uint256"
            },
            {
              "internalType": "address",
              "name": "landlord",
              "type": "address"
            },
            {
              "internalType": "address",
              "name": "tenant",
              "type": "address"
            },
            {
              "internalType": "bool",
              "name": "isSigned",
              "type": "bool"
            },
            {
              "internalType": "bool",
              "name": "isReleased",
              "type": "bool"
            },
            {
              "internalType": "bool",
              "name": "isPaid",
              "type": "bool"
            },
            {
              "internalType": "string",
              "name": "propertyName",
              "type": "string"
            }
          ],
          "internalType": "struct ImmovableRental.TenantsReceipt",
          "name": "",
          "type": "tuple"
        }
      ],
      "stateMutability": "view",
      "type": "function"
    },
    {
      "inputs": [],
      "name": "returnTenantProfiles",
      "outputs": [
        {
          "components": [
            {
              "internalType": "uint256",
              "name": "balance",
              "type": "uint256"
            },
            {
              "internalType": "address",
              "name": "user",
              "type": "address"
            },
            {
              "internalType": "bool",
              "name": "hasActiveRent",
              "type": "bool"
            },
            {
              "internalType": "bool",
              "name": "isRegistered",
              "type": "bool"
            }
          ],
          "internalType": "struct ImmovableRental.Tenant",
          "name": "",
          "type": "tuple"
        }
      ],
      "stateMutability": "view",
      "type": "function"
    },
    {
      "inputs": [
        {
          "internalType": "uint256",
          "name": "_durationInDays",
          "type": "uint256"
        }
      ],
      "name": "signRental",
      "outputs": [],
      "stateMutability": "nonpayable",
      "type": "function"
    },
    {
      "inputs": [],
      "name": "tenantDeposit",
      "outputs": [],
      "stateMutability": "payable",
      "type": "function"
    },
    {
      "inputs": [
        {
          "internalType": "address",
          "name": "",
          "type": "address"
        }
      ],
      "name": "tenants",
      "outputs": [
        {
          "internalType": "uint256",
          "name": "balance",
          "type": "uint256"
        },
        {
          "internalType": "address",
          "name": "user",
          "type": "address"
        },
        {
          "internalType": "bool",
          "name": "hasActiveRent",
          "type": "bool"
        },
        {
          "internalType": "bool",
          "name": "isRegistered",
          "type": "bool"
        }
      ],
      "stateMutability": "view",
      "type": "function"
    },
    {
      "inputs": [
        {
          "internalType": "uint256",
          "name": "_amount",
          "type": "uint256"
        }
      ],
      "name": "userWithdraw",
      "outputs": [],
      "stateMutability": "nonpayable",
      "type": "function"
    },
    {
      "stateMutability": "payable",
      "type": "receive"
    }
  ],
  "bytecode": "0x6080604052348015600f57600080fd5b50600160008190555033600760006101000a81548173ffffffffffffffffffffffffffffffffffffffff021916908373ffffffffffffffffffffffffffffffffffffffff160217905550615015806100686000396000f3fe6080604052600436106101395760003560e01c806378dbb717116100ab578063a75e69fa1161006f578063a75e69fa1461040b578063ae26df9b14610415578063d1c13abd14610452578063d6ab0cd31461047d578063e43d6c65146104ba578063fd9153a3146104e557610140565b806378dbb717146103025780638c7929f5146103475780638da5cb5b1461038c57806394654469146103b7578063a272d202146103e257610140565b806344841f09116100fd57806344841f091461022b5780634585e33b14610242578063495a54141461026b5780634bd910c6146102965780634eea2690146102ad5780636e04ff0d146102c457610140565b80630334b4801461014557806321344a5414610170578063286d1909146101995780633b9056bf146101c25780633d65e573146101eb57610140565b3661014057005b600080fd5b34801561015157600080fd5b5061015a610525565b6040516101679190613655565b60405180910390f35b34801561017c57600080fd5b50610197600480360381019061019291906136b0565b6106a1565b005b3480156101a557600080fd5b506101c060048036038101906101bb91906136b0565b610a4c565b005b3480156101ce57600080fd5b506101e960048036038101906101e491906136b0565b611123565b005b3480156101f757600080fd5b50610212600480360381019061020d9190613709565b611520565b6040516102229493929190613763565b60405180910390f35b34801561023757600080fd5b5061024061158a565b005b34801561024e57600080fd5b506102696004803603810190610264919061380d565b61177c565b005b34801561027757600080fd5b50610280611801565b60405161028d91906138af565b60405180910390f35b3480156102a257600080fd5b506102ab61197d565b005b3480156102b957600080fd5b506102c2611cb8565b005b3480156102d057600080fd5b506102eb60048036038101906102e6919061380d565b611f3a565b6040516102f992919061395a565b60405180910390f35b34801561030e57600080fd5b50610329600480360381019061032491906136b0565b612143565b60405161033e999897969594939291906139df565b60405180910390f35b34801561035357600080fd5b5061036e600480360381019061036991906136b0565b612280565b60405161038399989796959493929190613a73565b60405180910390f35b34801561039857600080fd5b506103a1612455565b6040516103ae9190613b0e565b60405180910390f35b3480156103c357600080fd5b506103cc61247b565b6040516103d99190613d01565b60405180910390f35b3480156103ee57600080fd5b5061040960048036038101906104049190613e53565b612710565b005b610413612bc3565b005b34801561042157600080fd5b5061043c60048036038101906104379190613f1e565b612dd0565b6040516104499190613f5e565b60405180910390f35b34801561045e57600080fd5b50610467612dff565b604051610474919061403e565b60405180910390f35b34801561048957600080fd5b506104a4600480360381019061049f9190614096565b61317c565b6040516104b19190613f5e565b60405180910390f35b3480156104c657600080fd5b506104cf61319c565b6040516104dc91906140c3565b60405180910390f35b3480156104f157600080fd5b5061050c60048036038101906105079190613709565b6131a2565b60405161051c9493929190613763565b60405180910390f35b61052d613489565b600560003373ffffffffffffffffffffffffffffffffffffffff1673ffffffffffffffffffffffffffffffffffffffff16815260200190815260200160002060010160149054906101000a900460ff166105bc576040517f08c379a00000000000000000000000000000000000000000000000000000000081526004016105b39061412a565b60405180910390fd5b600560003373ffffffffffffffffffffffffffffffffffffffff1673ffffffffffffffffffffffffffffffffffffffff168152602001908152602001600020604051806080016040529081600082015481526020016001820160009054906101000a900473ffffffffffffffffffffffffffffffffffffffff1673ffffffffffffffffffffffffffffffffffffffff1673ffffffffffffffffffffffffffffffffffffffff1681526020016001820160149054906101000a900460ff161515151581526020016001820160159054906101000a900460ff161515151581525050905090565b3373ffffffffffffffffffffffffffffffffffffffff16600160003373ffffffffffffffffffffffffffffffffffffffff1673ffffffffffffffffffffffffffffffffffffffff16815260200190815260200160002060010160009054906101000a900473ffffffffffffffffffffffffffffffffffffffff1673ffffffffffffffffffffffffffffffffffffffff1614610771576040517f08c379a000000000000000000000000000000000000000000000000000000000815260040161076890614196565b60405180910390fd5b600160003373ffffffffffffffffffffffffffffffffffffffff1673ffffffffffffffffffffffffffffffffffffffff16815260200190815260200160002060010160159054906101000a900460ff16610800576040517f08c379a00000000000000000000000000000000000000000000000000000000081526004016107f790614202565b60405180910390fd5b6003805490508110610847576040517f08c379a000000000000000000000000000000000000000000000000000000000815260040161083e9061426e565b60405180910390fd5b60006003828154811061085d5761085c61428e565b5b906000526020600020906006020190508060050160149054906101000a900460ff16156108bf576040517f08c379a00000000000000000000000000000000000000000000000000000000081526004016108b690614309565b60405180910390fd5b8060050160159054906101000a900460ff1615610911576040517f08c379a000000000000000000000000000000000000000000000000000000000815260040161090890614375565b60405180910390fd5b8060040154600160003373ffffffffffffffffffffffffffffffffffffffff1673ffffffffffffffffffffffffffffffffffffffff16815260200190815260200160002060000154101561099a576040517f08c379a0000000000000000000000000000000000000000000000000000000008152600401610991906143e1565b60405180910390fd5b60018160050160156101000a81548160ff021916908315150217905550338160050160006101000a81548173ffffffffffffffffffffffffffffffffffffffff021916908373ffffffffffffffffffffffffffffffffffffffff1602179055503373ffffffffffffffffffffffffffffffffffffffff167f507ad3b72a7c833c6328998745bb0750f24e40406335735e1268db7febcbd4b383604051610a4091906140c3565b60405180910390a25050565b3373ffffffffffffffffffffffffffffffffffffffff16600560003373ffffffffffffffffffffffffffffffffffffffff1673ffffffffffffffffffffffffffffffffffffffff16815260200190815260200160002060010160009054906101000a900473ffffffffffffffffffffffffffffffffffffffff1673ffffffffffffffffffffffffffffffffffffffff1614610b1c576040517f08c379a0000000000000000000000000000000000000000000000000000000008152600401610b139061444d565b60405180910390fd5b600560003373ffffffffffffffffffffffffffffffffffffffff1673ffffffffffffffffffffffffffffffffffffffff16815260200190815260200160002060010160149054906101000a900460ff16610bab576040517f08c379a0000000000000000000000000000000000000000000000000000000008152600401610ba2906144b9565b60405180910390fd5b6000805b6003805490508110156110de57600060038281548110610bd257610bd161428e565b5b906000526020600020906006020190503373ffffffffffffffffffffffffffffffffffffffff168160010160009054906101000a900473ffffffffffffffffffffffffffffffffffffffff1673ffffffffffffffffffffffffffffffffffffffff16148015610c925750600073ffffffffffffffffffffffffffffffffffffffff168160050160009054906101000a900473ffffffffffffffffffffffffffffffffffffffff1673ffffffffffffffffffffffffffffffffffffffff1614155b8015610cb35750600115158160050160159054906101000a900460ff161515145b8015610cce57508060050160149054906101000a900460ff16155b156110d05760008160050160009054906101000a900473ffffffffffffffffffffffffffffffffffffffff169050600160008273ffffffffffffffffffffffffffffffffffffffff1673ffffffffffffffffffffffffffffffffffffffff16815260200190815260200160002060010160159054906101000a900460ff16610d8b576040517f08c379a0000000000000000000000000000000000000000000000000000000008152600401610d8290614202565b60405180910390fd5b604051806101200160405280836000015481526020014281526020016201518087610db69190614508565b42610dc1919061454a565b81526020013373ffffffffffffffffffffffffffffffffffffffff1681526020018273ffffffffffffffffffffffffffffffffffffffff168152602001600115158152602001600015158152602001600015158152602001836003018054610e28906145ad565b80601f0160208091040260200160405190810160405280929190818152602001828054610e54906145ad565b8015610ea15780601f10610e7657610100808354040283529160200191610ea1565b820191906000526020600020905b815481529060010190602001808311610e8457829003601f168201915b5050505050815250600660008460000154815260200190815260200160002060008201518160000155602082015181600101556040820151816002015560608201518160030160006101000a81548173ffffffffffffffffffffffffffffffffffffffff021916908373ffffffffffffffffffffffffffffffffffffffff16021790555060808201518160040160006101000a81548173ffffffffffffffffffffffffffffffffffffffff021916908373ffffffffffffffffffffffffffffffffffffffff16021790555060a08201518160040160146101000a81548160ff02191690831515021790555060c08201518160040160156101000a81548160ff02191690831515021790555060e08201518160040160166101000a81548160ff021916908315150217905550610100820151816005019081610fe2919061478a565b5090505060018260050160146101000a81548160ff02191690831515021790555060018060008373ffffffffffffffffffffffffffffffffffffffff1673ffffffffffffffffffffffffffffffffffffffff16815260200190815260200160002060010160146101000a81548160ff0219169083151502179055508073ffffffffffffffffffffffffffffffffffffffff163373ffffffffffffffffffffffffffffffffffffffff167ef021a6c54757c213a20afb1e9eda71a97192985772445e27d14795e9fd16a284600001546040516110bd91906140c3565b60405180910390a36001935050506110de565b508080600101915050610baf565b508061111f576040517f08c379a0000000000000000000000000000000000000000000000000000000008152600401611116906148a8565b60405180910390fd5b5050565b61112b61320c565b6000811161116e576040517f08c379a000000000000000000000000000000000000000000000000000000000815260040161116590614914565b60405180910390fd5b600160003373ffffffffffffffffffffffffffffffffffffffff1673ffffffffffffffffffffffffffffffffffffffff16815260200190815260200160002060010160159054906101000a900460ff16156112a65780600160003373ffffffffffffffffffffffffffffffffffffffff1673ffffffffffffffffffffffffffffffffffffffff168152602001908152602001600020600001541015611248576040517f08c379a000000000000000000000000000000000000000000000000000000000815260040161123f90614980565b60405180910390fd5b80600160003373ffffffffffffffffffffffffffffffffffffffff1673ffffffffffffffffffffffffffffffffffffffff168152602001908152602001600020600001600082825461129a91906149a0565b9250508190555061141a565b600560003373ffffffffffffffffffffffffffffffffffffffff1673ffffffffffffffffffffffffffffffffffffffff16815260200190815260200160002060010160149054906101000a900460ff16156113de5780600560003373ffffffffffffffffffffffffffffffffffffffff1673ffffffffffffffffffffffffffffffffffffffff168152602001908152602001600020600001541015611380576040517f08c379a000000000000000000000000000000000000000000000000000000000815260040161137790614a20565b60405180910390fd5b80600560003373ffffffffffffffffffffffffffffffffffffffff1673ffffffffffffffffffffffffffffffffffffffff16815260200190815260200160002060000160008282546113d291906149a0565b92505081905550611419565b6040517f08c379a000000000000000000000000000000000000000000000000000000000815260040161141090614a8c565b60405180910390fd5b5b60003373ffffffffffffffffffffffffffffffffffffffff168260405161144090614add565b60006040518083038185875af1925050503d806000811461147d576040519150601f19603f3d011682016040523d82523d6000602084013e611482565b606091505b50509050806114c6576040517f08c379a00000000000000000000000000000000000000000000000000000000081526004016114bd90614b3e565b60405180910390fd5b3373ffffffffffffffffffffffffffffffffffffffff167f7084f5476618d8e60b11ef0d7d3f06914655adb8793e28ff7f018d4c76d505d58360405161150c91906140c3565b60405180910390a25061151d613252565b50565b60056020528060005260406000206000915090508060000154908060010160009054906101000a900473ffffffffffffffffffffffffffffffffffffffff16908060010160149054906101000a900460ff16908060010160159054906101000a900460ff16905084565b600560003373ffffffffffffffffffffffffffffffffffffffff1673ffffffffffffffffffffffffffffffffffffffff16815260200190815260200160002060010160149054906101000a900460ff161561161a576040517f08c379a000000000000000000000000000000000000000000000000000000000815260040161161190614baa565b60405180910390fd5b6040518060800160405280600081526020013373ffffffffffffffffffffffffffffffffffffffff16815260200160011515815260200160001515815250600560003373ffffffffffffffffffffffffffffffffffffffff1673ffffffffffffffffffffffffffffffffffffffff1681526020019081526020016000206000820151816000015560208201518160010160006101000a81548173ffffffffffffffffffffffffffffffffffffffff021916908373ffffffffffffffffffffffffffffffffffffffff16021790555060408201518160010160146101000a81548160ff02191690831515021790555060608201518160010160156101000a81548160ff0219169083151502179055509050503373ffffffffffffffffffffffffffffffffffffffff167fb6696617b8ee12f244d0e82a5724fc8d7df5564dc5efe34933f81df1f837c07060016040516117729190613f5e565b60405180910390a2565b6000828281019061178d9190614c03565b91505060018160ff16036117a8576117a361325c565b6117fc565b60028160ff16036117c0576117bb61197d565b6117fb565b6040517f08c379a00000000000000000000000000000000000000000000000000000000081526004016117f290614c8f565b60405180910390fd5b5b505050565b6118096134cb565b600160003373ffffffffffffffffffffffffffffffffffffffff1673ffffffffffffffffffffffffffffffffffffffff16815260200190815260200160002060010160159054906101000a900460ff16611898576040517f08c379a000000000000000000000000000000000000000000000000000000000815260040161188f90614196565b60405180910390fd5b600160003373ffffffffffffffffffffffffffffffffffffffff1673ffffffffffffffffffffffffffffffffffffffff168152602001908152602001600020604051806080016040529081600082015481526020016001820160009054906101000a900473ffffffffffffffffffffffffffffffffffffffff1673ffffffffffffffffffffffffffffffffffffffff1673ffffffffffffffffffffffffffffffffffffffff1681526020016001820160149054906101000a900460ff161515151581526020016001820160159054906101000a900460ff161515151581525050905090565b61198561320c565b60005b600380549050811015611cad576000600382815481106119ab576119aa61428e565b5b906000526020600020906006020190506000600660008360000154815260200190815260200160002090508060040160149054906101000a900460ff168015611a0357508060040160159054906101000a900460ff16155b8015611a13575060008160010154115b8015611a225750806001015442115b8015611a35575080600101548160020154115b8015611aab57508160040154600160008360040160009054906101000a900473ffffffffffffffffffffffffffffffffffffffff1673ffffffffffffffffffffffffffffffffffffffff1673ffffffffffffffffffffffffffffffffffffffff1681526020019081526020016000206000015410155b15611c9e5760018160040160156101000a81548160ff0219169083151502179055508160040154600160008360040160009054906101000a900473ffffffffffffffffffffffffffffffffffffffff1673ffffffffffffffffffffffffffffffffffffffff1673ffffffffffffffffffffffffffffffffffffffff1681526020019081526020016000206000016000828254611b4791906149a0565b925050819055508160040154600560008360030160009054906101000a900473ffffffffffffffffffffffffffffffffffffffff1673ffffffffffffffffffffffffffffffffffffffff1673ffffffffffffffffffffffffffffffffffffffff1681526020019081526020016000206000016000828254611bc8919061454a565b9250508190555060018160040160166101000a81548160ff0219169083151502179055508060040160009054906101000a900473ffffffffffffffffffffffffffffffffffffffff1673ffffffffffffffffffffffffffffffffffffffff168160030160009054906101000a900473ffffffffffffffffffffffffffffffffffffffff1673ffffffffffffffffffffffffffffffffffffffff167f791ff5c84f9acebb4b26797f063e5992a2fe426c7b60a97e82d103e9c8b210e48460040154604051611c9591906140c3565b60405180910390a35b50508080600101915050611988565b50611cb6613252565b565b600160003373ffffffffffffffffffffffffffffffffffffffff1673ffffffffffffffffffffffffffffffffffffffff16815260200190815260200160002060010160159054906101000a900460ff1615611d48576040517f08c379a0000000000000000000000000000000000000000000000000000000008152600401611d3f90614cfb565b60405180910390fd5b600160003373ffffffffffffffffffffffffffffffffffffffff1673ffffffffffffffffffffffffffffffffffffffff16815260200190815260200160002060010160149054906101000a900460ff1615611dd8576040517f08c379a0000000000000000000000000000000000000000000000000000000008152600401611dcf90614cfb565b60405180910390fd5b6040518060800160405280600081526020013373ffffffffffffffffffffffffffffffffffffffff16815260200160001515815260200160011515815250600160003373ffffffffffffffffffffffffffffffffffffffff1673ffffffffffffffffffffffffffffffffffffffff1681526020019081526020016000206000820151816000015560208201518160010160006101000a81548173ffffffffffffffffffffffffffffffffffffffff021916908373ffffffffffffffffffffffffffffffffffffffff16021790555060408201518160010160146101000a81548160ff02191690831515021790555060608201518160010160156101000a81548160ff0219169083151502179055509050503373ffffffffffffffffffffffffffffffffffffffff167f77e2c0497197e0ec9be0552f1b02a0366bff8357993d2a2fab479650c6967ea16001604051611f309190613f5e565b60405180910390a2565b600060606000915060005b60038054905081101561212457600060038281548110611f6857611f6761428e565b5b906000526020600020906006020190506000600660008360000154815260200190815260200160002090508060040160149054906101000a900460ff168015611fc057508060040160159054906101000a900460ff16155b8015611fd0575080600201544210155b1561200a57600182600001546001604051602001611fef929190614d2a565b6040516020818303038152906040529450945050505061213c565b8060040160149054906101000a900460ff16801561203757508060040160159054906101000a900460ff16155b80156120ad57508160040154600160008360040160009054906101000a900473ffffffffffffffffffffffffffffffffffffffff1673ffffffffffffffffffffffffffffffffffffffff1673ffffffffffffffffffffffffffffffffffffffff1681526020019081526020016000206000015410155b80156120bc5750806001015442115b15612115576001826000015460026040516020016120db929190614d2a565b6040516020818303038152906040526040516020016120fa9190614d53565b6040516020818303038152906040529450945050505061213c565b50508080600101915050611f45565b50600060405180602001604052806000815250915091505b9250929050565b60066020528060005260406000206000915090508060000154908060010154908060020154908060030160009054906101000a900473ffffffffffffffffffffffffffffffffffffffff16908060040160009054906101000a900473ffffffffffffffffffffffffffffffffffffffff16908060040160149054906101000a900460ff16908060040160159054906101000a900460ff16908060040160169054906101000a900460ff16908060050180546121fd906145ad565b80601f0160208091040260200160405190810160405280929190818152602001828054612229906145ad565b80156122765780601f1061224b57610100808354040283529160200191612276565b820191906000526020600020905b81548152906001019060200180831161225957829003601f168201915b5050505050905089565b6003818154811061229057600080fd5b90600052602060002090600602016000915090508060000154908060010160009054906101000a900473ffffffffffffffffffffffffffffffffffffffff16908060020180546122df906145ad565b80601f016020809104026020016040519081016040528092919081815260200182805461230b906145ad565b80156123585780601f1061232d57610100808354040283529160200191612358565b820191906000526020600020905b81548152906001019060200180831161233b57829003601f168201915b50505050509080600301805461236d906145ad565b80601f0160208091040260200160405190810160405280929190818152602001828054612399906145ad565b80156123e65780601f106123bb576101008083540402835291602001916123e6565b820191906000526020600020905b8154815290600101906020018083116123c957829003601f168201915b5050505050908060040154908060050160009054906101000a900473ffffffffffffffffffffffffffffffffffffffff16908060050160149054906101000a900460ff16908060050160159054906101000a900460ff16908060050160169054906101000a900460ff16905089565b600760009054906101000a900473ffffffffffffffffffffffffffffffffffffffff1681565b60606003805480602002602001604051908101604052809291908181526020016000905b82821015612707578382906000526020600020906006020160405180610120016040529081600082015481526020016001820160009054906101000a900473ffffffffffffffffffffffffffffffffffffffff1673ffffffffffffffffffffffffffffffffffffffff1673ffffffffffffffffffffffffffffffffffffffff168152602001600282018054612533906145ad565b80601f016020809104026020016040519081016040528092919081815260200182805461255f906145ad565b80156125ac5780601f10612581576101008083540402835291602001916125ac565b820191906000526020600020905b81548152906001019060200180831161258f57829003601f168201915b505050505081526020016003820180546125c5906145ad565b80601f01602080910402602001604051908101604052809291908181526020018280546125f1906145ad565b801561263e5780601f106126135761010080835404028352916020019161263e565b820191906000526020600020905b81548152906001019060200180831161262157829003601f168201915b50505050508152602001600482015481526020016005820160009054906101000a900473ffffffffffffffffffffffffffffffffffffffff1673ffffffffffffffffffffffffffffffffffffffff1673ffffffffffffffffffffffffffffffffffffffff1681526020016005820160149054906101000a900460ff161515151581526020016005820160159054906101000a900460ff161515151581526020016005820160169054906101000a900460ff1615151515815250508152602001906001019061249f565b50505050905090565b3373ffffffffffffffffffffffffffffffffffffffff16600560003373ffffffffffffffffffffffffffffffffffffffff1673ffffffffffffffffffffffffffffffffffffffff16815260200190815260200160002060010160009054906101000a900473ffffffffffffffffffffffffffffffffffffffff1673ffffffffffffffffffffffffffffffffffffffff16146127e0576040517f08c379a00000000000000000000000000000000000000000000000000000000081526004016127d79061444d565b60405180910390fd5b600560003373ffffffffffffffffffffffffffffffffffffffff1673ffffffffffffffffffffffffffffffffffffffff16815260200190815260200160002060010160149054906101000a900460ff1661286f576040517f08c379a0000000000000000000000000000000000000000000000000000000008152600401612866906144b9565b60405180910390fd5b600033848360405160200161288693929190614e1a565b6040516020818303038152906040528051906020012090506004600082815260200190815260200160002060009054906101000a900460ff16156128ff576040517f08c379a00000000000000000000000000000000000000000000000000000000081526004016128f690614e9f565b60405180910390fd5b60036040518061012001604052806002600081548092919061292090614ebf565b9190505581526020013373ffffffffffffffffffffffffffffffffffffffff168152602001868152602001858152602001848152602001600073ffffffffffffffffffffffffffffffffffffffff1681526020016000151581526020016000151581526020016001151581525090806001815401808255809150506001900390600052602060002090600602016000909190919091506000820151816000015560208201518160010160006101000a81548173ffffffffffffffffffffffffffffffffffffffff021916908373ffffffffffffffffffffffffffffffffffffffff1602179055506040820151816002019081612a1c919061478a565b506060820151816003019081612a32919061478a565b506080820151816004015560a08201518160050160006101000a81548173ffffffffffffffffffffffffffffffffffffffff021916908373ffffffffffffffffffffffffffffffffffffffff16021790555060c08201518160050160146101000a81548160ff02191690831515021790555060e08201518160050160156101000a81548160ff0219169083151502179055506101008201518160050160166101000a81548160ff021916908315150217905550505060016004600083815260200190815260200160002060006101000a81548160ff0219169083151502179055506001600560003373ffffffffffffffffffffffffffffffffffffffff1673ffffffffffffffffffffffffffffffffffffffff16815260200190815260200160002060010160156101000a81548160ff0219169083151502179055503373ffffffffffffffffffffffffffffffffffffffff167fc92e830c7a6579616c317c0684d2eaf53fb889033a419d9b261f5e76594babbf6001604051612bb59190613f5e565b60405180910390a250505050565b3373ffffffffffffffffffffffffffffffffffffffff16600160003373ffffffffffffffffffffffffffffffffffffffff1673ffffffffffffffffffffffffffffffffffffffff16815260200190815260200160002060010160009054906101000a900473ffffffffffffffffffffffffffffffffffffffff1673ffffffffffffffffffffffffffffffffffffffff1614612c93576040517f08c379a0000000000000000000000000000000000000000000000000000000008152600401612c8a90614196565b60405180910390fd5b600160003373ffffffffffffffffffffffffffffffffffffffff1673ffffffffffffffffffffffffffffffffffffffff16815260200190815260200160002060010160159054906101000a900460ff16612d22576040517f08c379a0000000000000000000000000000000000000000000000000000000008152600401612d1990614202565b60405180910390fd5b612d2a61320c565b60003411612d6d576040517f08c379a0000000000000000000000000000000000000000000000000000000008152600401612d6490614f53565b60405180910390fd5b34600160003373ffffffffffffffffffffffffffffffffffffffff1673ffffffffffffffffffffffffffffffffffffffff1681526020019081526020016000206000016000828254612dbf919061454a565b92505081905550612dce613252565b565b60086020528160005260406000206020528060005260406000206000915091509054906101000a900460ff1681565b612e0761350d565b60005b60038054905081101561313d573373ffffffffffffffffffffffffffffffffffffffff166006600060038481548110612e4657612e4561428e565b5b906000526020600020906006020160000154815260200190815260200160002060040160009054906101000a900473ffffffffffffffffffffffffffffffffffffffff1673ffffffffffffffffffffffffffffffffffffffff161480612f3257503373ffffffffffffffffffffffffffffffffffffffff166006600060038481548110612ed657612ed561428e565b5b906000526020600020906006020160000154815260200190815260200160002060030160009054906101000a900473ffffffffffffffffffffffffffffffffffffffff1673ffffffffffffffffffffffffffffffffffffffff16145b15613130576006600060038381548110612f4f57612f4e61428e565b5b9060005260206000209060060201600001548152602001908152602001600020604051806101200160405290816000820154815260200160018201548152602001600282015481526020016003820160009054906101000a900473ffffffffffffffffffffffffffffffffffffffff1673ffffffffffffffffffffffffffffffffffffffff1673ffffffffffffffffffffffffffffffffffffffff1681526020016004820160009054906101000a900473ffffffffffffffffffffffffffffffffffffffff1673ffffffffffffffffffffffffffffffffffffffff1673ffffffffffffffffffffffffffffffffffffffff1681526020016004820160149054906101000a900460ff161515151581526020016004820160159054906101000a900460ff161515151581526020016004820160169054906101000a900460ff161515151581526020016005820180546130a6906145ad565b80601f01602080910402602001604051908101604052809291908181526020018280546130d2906145ad565b801561311f5780601f106130f45761010080835404028352916020019161311f565b820191906000526020600020905b81548152906001019060200180831161310257829003601f168201915b505050505081525050915050613179565b8080600101915050612e0a565b506040517f08c379a000000000000000000000000000000000000000000000000000000000815260040161317090614fbf565b60405180910390fd5b90565b60046020528060005260406000206000915054906101000a900460ff1681565b60025481565b60016020528060005260406000206000915090508060000154908060010160009054906101000a900473ffffffffffffffffffffffffffffffffffffffff16908060010160149054906101000a900460ff16908060010160159054906101000a900460ff16905084565b600260005403613248576040517f3ee5aeb500000000000000000000000000000000000000000000000000000000815260040160405180910390fd5b6002600081905550565b6001600081905550565b60005b600380549050811015613486576000600382815481106132825761328161428e565b5b9060005260206000209060060201905060006006600083600001548152602001908152602001600020905060008160040160009054906101000a900473ffffffffffffffffffffffffffffffffffffffff16905060018260040160156101000a81548160ff02191690831515021790555060008260040160146101000a81548160ff02191690831515021790555060008260040160006101000a81548173ffffffffffffffffffffffffffffffffffffffff021916908373ffffffffffffffffffffffffffffffffffffffff160217905550600082600101819055506000826002018190555060008360050160146101000a81548160ff02191690831515021790555060008360050160156101000a81548160ff02191690831515021790555060008360050160006101000a81548173ffffffffffffffffffffffffffffffffffffffff021916908373ffffffffffffffffffffffffffffffffffffffff160217905550600073ffffffffffffffffffffffffffffffffffffffff168173ffffffffffffffffffffffffffffffffffffffff1614613476576000600160008373ffffffffffffffffffffffffffffffffffffffff1673ffffffffffffffffffffffffffffffffffffffff16815260200190815260200160002060010160146101000a81548160ff0219169083151502179055505b505050808060010191505061325f565b50565b604051806080016040528060008152602001600073ffffffffffffffffffffffffffffffffffffffff1681526020016000151581526020016000151581525090565b604051806080016040528060008152602001600073ffffffffffffffffffffffffffffffffffffffff1681526020016000151581526020016000151581525090565b604051806101200160405280600081526020016000815260200160008152602001600073ffffffffffffffffffffffffffffffffffffffff168152602001600073ffffffffffffffffffffffffffffffffffffffff168152602001600015158152602001600015158152602001600015158152602001606081525090565b6000819050919050565b61359e8161358b565b82525050565b600073ffffffffffffffffffffffffffffffffffffffff82169050919050565b60006135cf826135a4565b9050919050565b6135df816135c4565b82525050565b60008115159050919050565b6135fa816135e5565b82525050565b6080820160008201516136166000850182613595565b50602082015161362960208501826135d6565b50604082015161363c60408501826135f1565b50606082015161364f60608501826135f1565b50505050565b600060808201905061366a6000830184613600565b92915050565b6000604051905090565b600080fd5b600080fd5b61368d8161358b565b811461369857600080fd5b50565b6000813590506136aa81613684565b92915050565b6000602082840312156136c6576136c561367a565b5b60006136d48482850161369b565b91505092915050565b6136e6816135c4565b81146136f157600080fd5b50565b600081359050613703816136dd565b92915050565b60006020828403121561371f5761371e61367a565b5b600061372d848285016136f4565b91505092915050565b61373f8161358b565b82525050565b61374e816135c4565b82525050565b61375d816135e5565b82525050565b60006080820190506137786000830187613736565b6137856020830186613745565b6137926040830185613754565b61379f6060830184613754565b95945050505050565b600080fd5b600080fd5b600080fd5b60008083601f8401126137cd576137cc6137a8565b5b8235905067ffffffffffffffff8111156137ea576137e96137ad565b5b602083019150836001820283011115613806576138056137b2565b5b9250929050565b600080602083850312156138245761382361367a565b5b600083013567ffffffffffffffff8111156138425761384161367f565b5b61384e858286016137b7565b92509250509250929050565b6080820160008201516138706000850182613595565b50602082015161388360208501826135d6565b50604082015161389660408501826135f1565b5060608201516138a960608501826135f1565b50505050565b60006080820190506138c4600083018461385a565b92915050565b600081519050919050565b600082825260208201905092915050565b60005b838110156139045780820151818401526020810190506138e9565b60008484015250505050565b6000601f19601f8301169050919050565b600061392c826138ca565b61393681856138d5565b93506139468185602086016138e6565b61394f81613910565b840191505092915050565b600060408201905061396f6000830185613754565b81810360208301526139818184613921565b90509392505050565b600081519050919050565b600082825260208201905092915050565b60006139b18261398a565b6139bb8185613995565b93506139cb8185602086016138e6565b6139d481613910565b840191505092915050565b6000610120820190506139f5600083018c613736565b613a02602083018b613736565b613a0f604083018a613736565b613a1c6060830189613745565b613a296080830188613745565b613a3660a0830187613754565b613a4360c0830186613754565b613a5060e0830185613754565b818103610100830152613a6381846139a6565b90509a9950505050505050505050565b600061012082019050613a89600083018c613736565b613a96602083018b613745565b8181036040830152613aa8818a6139a6565b90508181036060830152613abc81896139a6565b9050613acb6080830188613736565b613ad860a0830187613745565b613ae560c0830186613754565b613af260e0830185613754565b613b00610100830184613754565b9a9950505050505050505050565b6000602082019050613b236000830184613745565b92915050565b600081519050919050565b600082825260208201905092915050565b6000819050602082019050919050565b600082825260208201905092915050565b6000613b718261398a565b613b7b8185613b55565b9350613b8b8185602086016138e6565b613b9481613910565b840191505092915050565b600061012083016000830151613bb86000860182613595565b506020830151613bcb60208601826135d6565b5060408301518482036040860152613be38282613b66565b91505060608301518482036060860152613bfd8282613b66565b9150506080830151613c126080860182613595565b5060a0830151613c2560a08601826135d6565b5060c0830151613c3860c08601826135f1565b5060e0830151613c4b60e08601826135f1565b50610100830151613c606101008601826135f1565b508091505092915050565b6000613c778383613b9f565b905092915050565b6000602082019050919050565b6000613c9782613b29565b613ca18185613b34565b935083602082028501613cb385613b45565b8060005b85811015613cef5784840389528151613cd08582613c6b565b9450613cdb83613c7f565b925060208a01995050600181019050613cb7565b50829750879550505050505092915050565b60006020820190508181036000830152613d1b8184613c8c565b905092915050565b600080fd5b7f4e487b7100000000000000000000000000000000000000000000000000000000600052604160045260246000fd5b613d6082613910565b810181811067ffffffffffffffff82111715613d7f57613d7e613d28565b5b80604052505050565b6000613d92613670565b9050613d9e8282613d57565b919050565b600067ffffffffffffffff821115613dbe57613dbd613d28565b5b613dc782613910565b9050602081019050919050565b82818337600083830152505050565b6000613df6613df184613da3565b613d88565b905082815260208101848484011115613e1257613e11613d23565b5b613e1d848285613dd4565b509392505050565b600082601f830112613e3a57613e396137a8565b5b8135613e4a848260208601613de3565b91505092915050565b600080600060608486031215613e6c57613e6b61367a565b5b600084013567ffffffffffffffff811115613e8a57613e8961367f565b5b613e9686828701613e25565b935050602084013567ffffffffffffffff811115613eb757613eb661367f565b5b613ec386828701613e25565b9250506040613ed48682870161369b565b9150509250925092565b600067ffffffffffffffff82169050919050565b613efb81613ede565b8114613f0657600080fd5b50565b600081359050613f1881613ef2565b92915050565b60008060408385031215613f3557613f3461367a565b5b6000613f4385828601613f09565b9250506020613f54858286016136f4565b9150509250929050565b6000602082019050613f736000830184613754565b92915050565b600061012083016000830151613f926000860182613595565b506020830151613fa56020860182613595565b506040830151613fb86040860182613595565b506060830151613fcb60608601826135d6565b506080830151613fde60808601826135d6565b5060a0830151613ff160a08601826135f1565b5060c083015161400460c08601826135f1565b5060e083015161401760e08601826135f1565b506101008301518482036101008601526140318282613b66565b9150508091505092915050565b600060208201905081810360008301526140588184613f79565b905092915050565b6000819050919050565b61407381614060565b811461407e57600080fd5b50565b6000813590506140908161406a565b92915050565b6000602082840312156140ac576140ab61367a565b5b60006140ba84828501614081565b91505092915050565b60006020820190506140d86000830184613736565b92915050565b7f556e72656769737465726564206c616e646c6f72640000000000000000000000600082015250565b6000614114601583613995565b915061411f826140de565b602082019050919050565b6000602082019050818103600083015261414381614107565b9050919050565b7f556e726567697374657265642074656e616e7400000000000000000000000000600082015250565b6000614180601383613995565b915061418b8261414a565b602082019050919050565b600060208201905081810360008301526141af81614173565b9050919050565b7f54656e616e7420556e7265676973746572656400000000000000000000000000600082015250565b60006141ec601383613995565b91506141f7826141b6565b602082019050919050565b6000602082019050818103600083015261421b816141df565b9050919050565b7f496e76616c69642050726f706572742049640000000000000000000000000000600082015250565b6000614258601283613995565b915061426382614222565b602082019050919050565b600060208201905081810360008301526142878161424b565b9050919050565b7f4e487b7100000000000000000000000000000000000000000000000000000000600052603260045260246000fd5b7f50726f7065727479206f63637570696564000000000000000000000000000000600082015250565b60006142f3601183613995565b91506142fe826142bd565b602082019050919050565b60006020820190508181036000830152614322816142e6565b9050919050565b7f54616b656e000000000000000000000000000000000000000000000000000000600082015250565b600061435f600583613995565b915061436a82614329565b602082019050919050565b6000602082019050818103600083015261438e81614352565b9050919050565b7f496e73756666696369656e742046756e64730000000000000000000000000000600082015250565b60006143cb601283613995565b91506143d682614395565b602082019050919050565b600060208201905081810360008301526143fa816143be565b9050919050565b7f4e6f74204c616e646c6f72640000000000000000000000000000000000000000600082015250565b6000614437600c83613995565b915061444282614401565b602082019050919050565b600060208201905081810360008301526144668161442a565b9050919050565b7f556e72656769737465726564204c616e646c6f72640000000000000000000000600082015250565b60006144a3601583613995565b91506144ae8261446d565b602082019050919050565b600060208201905081810360008301526144d281614496565b9050919050565b7f4e487b7100000000000000000000000000000000000000000000000000000000600052601160045260246000fd5b60006145138261358b565b915061451e8361358b565b925082820261452c8161358b565b91508282048414831517614543576145426144d9565b5b5092915050565b60006145558261358b565b91506145608361358b565b9250828201905080821115614578576145776144d9565b5b92915050565b7f4e487b7100000000000000000000000000000000000000000000000000000000600052602260045260246000fd5b600060028204905060018216806145c557607f821691505b6020821081036145d8576145d761457e565b5b50919050565b60008190508160005260206000209050919050565b60006020601f8301049050919050565b600082821b905092915050565b6000600883026146407fffffffffffffffffffffffffffffffffffffffffffffffffffffffffffffffff82614603565b61464a8683614603565b95508019841693508086168417925050509392505050565b6000819050919050565b600061468761468261467d8461358b565b614662565b61358b565b9050919050565b6000819050919050565b6146a18361466c565b6146b56146ad8261468e565b848454614610565b825550505050565b600090565b6146ca6146bd565b6146d5818484614698565b505050565b5b818110156146f9576146ee6000826146c2565b6001810190506146db565b5050565b601f82111561473e5761470f816145de565b614718846145f3565b81016020851015614727578190505b61473b614733856145f3565b8301826146da565b50505b505050565b600082821c905092915050565b600061476160001984600802614743565b1980831691505092915050565b600061477a8383614750565b9150826002028217905092915050565b6147938261398a565b67ffffffffffffffff8111156147ac576147ab613d28565b5b6147b682546145ad565b6147c18282856146fd565b600060209050601f8311600181146147f457600084156147e2578287015190505b6147ec858261476e565b865550614854565b601f198416614802866145de565b60005b8281101561482a57848901518255600182019150602085019450602081019050614805565b868310156148475784890151614843601f891682614750565b8355505b6001600288020188555050505b505050505050565b7f4e6f2076616c69642070726f7065727479207265717565737420666f756e6400600082015250565b6000614892601f83613995565b915061489d8261485c565b602082019050919050565b600060208201905081810360008301526148c181614885565b9050919050565b7f496e76616c696420616d6f756e74000000000000000000000000000000000000600082015250565b60006148fe600e83613995565b9150614909826148c8565b602082019050919050565b6000602082019050818103600083015261492d816148f1565b9050919050565b7f696e73756666696369656e742066756e64732000000000000000000000000000600082015250565b600061496a601383613995565b915061497582614934565b602082019050919050565b600060208201905081810360008301526149998161495d565b9050919050565b60006149ab8261358b565b91506149b68361358b565b92508282039050818111156149ce576149cd6144d9565b5b92915050565b7f696e73756666696369656e742066756e64730000000000000000000000000000600082015250565b6000614a0a601283613995565b9150614a15826149d4565b602082019050919050565b60006020820190508181036000830152614a39816149fd565b9050919050565b7f4e6f742072656769737465726564000000000000000000000000000000000000600082015250565b6000614a76600e83613995565b9150614a8182614a40565b602082019050919050565b60006020820190508181036000830152614aa581614a69565b9050919050565b600081905092915050565b50565b6000614ac7600083614aac565b9150614ad282614ab7565b600082019050919050565b6000614ae882614aba565b9150819050919050565b7f5769746864726177206661696c65640000000000000000000000000000000000600082015250565b6000614b28600f83613995565b9150614b3382614af2565b602082019050919050565b60006020820190508181036000830152614b5781614b1b565b9050919050565b7f4c616e646c6f7264207265676973746572656400000000000000000000000000600082015250565b6000614b94601383613995565b9150614b9f82614b5e565b602082019050919050565b60006020820190508181036000830152614bc381614b87565b9050919050565b600060ff82169050919050565b614be081614bca565b8114614beb57600080fd5b50565b600081359050614bfd81614bd7565b92915050565b60008060408385031215614c1a57614c1961367a565b5b6000614c288582860161369b565b9250506020614c3985828601614bee565b9150509250929050565b7f556e6b6e6f776e2075706b65657020616374696f6e0000000000000000000000600082015250565b6000614c79601583613995565b9150614c8482614c43565b602082019050919050565b60006020820190508181036000830152614ca881614c6c565b9050919050565b7f54656e616e742072656769737465726564000000000000000000000000000000600082015250565b6000614ce5601183613995565b9150614cf082614caf565b602082019050919050565b60006020820190508181036000830152614d1481614cd8565b9050919050565b614d2481614bca565b82525050565b6000604082019050614d3f6000830185613736565b614d4c6020830184614d1b565b9392505050565b60006020820190508181036000830152614d6d8184613921565b905092915050565b60008160601b9050919050565b6000614d8d82614d75565b9050919050565b6000614d9f82614d82565b9050919050565b614db7614db2826135c4565b614d94565b82525050565b600081905092915050565b6000614dd38261398a565b614ddd8185614dbd565b9350614ded8185602086016138e6565b80840191505092915050565b6000819050919050565b614e14614e0f8261358b565b614df9565b82525050565b6000614e268286614da6565b601482019150614e368285614dc8565b9150614e428284614e03565b602082019150819050949350505050565b7f50726f7065727479207265676973746572656400000000000000000000000000600082015250565b6000614e89601383613995565b9150614e9482614e53565b602082019050919050565b60006020820190508181036000830152614eb881614e7c565b9050919050565b6000614eca8261358b565b91507fffffffffffffffffffffffffffffffffffffffffffffffffffffffffffffffff8203614efc57614efb6144d9565b5b600182019050919050565b7f496e76616c696420496e70757400000000000000000000000000000000000000600082015250565b6000614f3d600d83613995565b9150614f4882614f07565b602082019050919050565b60006020820190508181036000830152614f6c81614f30565b9050919050565b7f4e6f206163746976652072656e74616c20666f756e6400000000000000000000600082015250565b6000614fa9601683613995565b9150614fb482614f73565b602082019050919050565b60006020820190508181036000830152614fd881614f9c565b905091905056fea2646970667358221220d34ef2ba412e366c343dfe2fd6a3dd8a12dc3babdf7280acd3789430b65ae63664736f6c634300081c0033",
  "linkReferences": {},
  "deployedLinkReferences": {}
}