{
  "_format": "hh-sol-artifact-1",
  "contractName": "ImmovableRental",
  "sourceName": "contracts/ImmovableRental.sol",
  "abi": [
    {
      "inputs": [
        {
          "internalType": "address",
          "name": "_router",
          "type": "address"
        }
      ],
      "stateMutability": "nonpayable",
      "type": "constructor"
    },
    {
      "inputs": [
        {
          "internalType": "address",
          "name": "router",
          "type": "address"
        }
      ],
      "name": "InvalidRouter",
      "type": "error"
    },
    {
      "inputs": [],
      "name": "ReentrancyGuardReentrantCall",
      "type": "error"
    },
    {
      "anonymous": false,
      "inputs": [
        {
          "indexed": true,
          "internalType": "address",
          "name": "tenant",
          "type": "address"
        },
        {
          "indexed": true,
          "internalType": "uint256",
          "name": "propertyId",
          "type": "uint256"
        },
        {
          "indexed": false,
          "internalType": "uint256",
          "name": "rentAmount",
          "type": "uint256"
        },
        {
          "indexed": false,
          "internalType": "bool",
          "name": "autoRequest",
          "type": "bool"
        }
      ],
      "name": "CrossRentReceived",
      "type": "event"
    },
    {
      "anonymous": false,
      "inputs": [
        {
          "indexed": true,
          "internalType": "address",
          "name": "landlord",
          "type": "address"
        },
        {
          "indexed": false,
          "internalType": "bool",
          "name": "isRegistered",
          "type": "bool"
        }
      ],
      "name": "LandlordRegistered",
      "type": "event"
    },
    {
      "anonymous": false,
      "inputs": [
        {
          "indexed": true,
          "internalType": "address",
          "name": "landlord",
          "type": "address"
        },
        {
          "indexed": false,
          "internalType": "bool",
          "name": "isRegistered",
          "type": "bool"
        }
      ],
      "name": "PropertyRegistered",
      "type": "event"
    },
    {
      "anonymous": false,
      "inputs": [
        {
          "indexed": true,
          "internalType": "address",
          "name": "tenant",
          "type": "address"
        },
        {
          "indexed": false,
          "internalType": "uint256",
          "name": "propertyId",
          "type": "uint256"
        }
      ],
      "name": "PropertyRequested",
      "type": "event"
    },
    {
      "anonymous": false,
      "inputs": [
        {
          "indexed": true,
          "internalType": "address",
          "name": "landlord",
          "type": "address"
        },
        {
          "indexed": true,
          "internalType": "address",
          "name": "tenant",
          "type": "address"
        },
        {
          "indexed": false,
          "internalType": "uint256",
          "name": "amount",
          "type": "uint256"
        }
      ],
      "name": "RentPaid",
      "type": "event"
    },
    {
      "anonymous": false,
      "inputs": [
        {
          "indexed": true,
          "internalType": "address",
          "name": "landlord",
          "type": "address"
        },
        {
          "indexed": true,
          "internalType": "address",
          "name": "tenant",
          "type": "address"
        },
        {
          "indexed": false,
          "internalType": "uint256",
          "name": "rentalId",
          "type": "uint256"
        }
      ],
      "name": "RentalSigned",
      "type": "event"
    },
    {
      "anonymous": false,
      "inputs": [
        {
          "indexed": true,
          "internalType": "address",
          "name": "tenant",
          "type": "address"
        },
        {
          "indexed": false,
          "internalType": "bool",
          "name": "isRegistered",
          "type": "bool"
        }
      ],
      "name": "TenantRegistered",
      "type": "event"
    },
    {
      "inputs": [
        {
          "internalType": "uint64",
          "name": "",
          "type": "uint64"
        },
        {
          "internalType": "address",
          "name": "",
          "type": "address"
        }
      ],
      "name": "allowedSenderPerChain",
      "outputs": [
        {
          "internalType": "bool",
          "name": "",
          "type": "bool"
        }
      ],
      "stateMutability": "view",
      "type": "function"
    },
    {
      "inputs": [],
      "name": "autoRentalPayment",
      "outputs": [],
      "stateMutability": "nonpayable",
      "type": "function"
    },
    {
      "inputs": [
        {
          "components": [
            {
              "internalType": "bytes32",
              "name": "messageId",
              "type": "bytes32"
            },
            {
              "internalType": "uint64",
              "name": "sourceChainSelector",
              "type": "uint64"
            },
            {
              "internalType": "bytes",
              "name": "sender",
              "type": "bytes"
            },
            {
              "internalType": "bytes",
              "name": "data",
              "type": "bytes"
            },
            {
              "components": [
                {
                  "internalType": "address",
                  "name": "token",
                  "type": "address"
                },
                {
                  "internalType": "uint256",
                  "name": "amount",
                  "type": "uint256"
                }
              ],
              "internalType": "struct Client.EVMTokenAmount[]",
              "name": "destTokenAmounts",
              "type": "tuple[]"
            }
          ],
          "internalType": "struct Client.Any2EVMMessage",
          "name": "message",
          "type": "tuple"
        }
      ],
      "name": "ccipReceive",
      "outputs": [],
      "stateMutability": "nonpayable",
      "type": "function"
    },
    {
      "inputs": [],
      "name": "checkAllTimeouts",
      "outputs": [],
      "stateMutability": "nonpayable",
      "type": "function"
    },
    {
      "inputs": [
        {
          "internalType": "bytes",
          "name": "",
          "type": "bytes"
        }
      ],
      "name": "checkUpkeep",
      "outputs": [
        {
          "internalType": "bool",
          "name": "upkeepNeeded",
          "type": "bool"
        },
        {
          "internalType": "bytes",
          "name": "performData",
          "type": "bytes"
        }
      ],
      "stateMutability": "view",
      "type": "function"
    },
    {
      "inputs": [],
      "name": "getRouter",
      "outputs": [
        {
          "internalType": "address",
          "name": "",
          "type": "address"
        }
      ],
      "stateMutability": "view",
      "type": "function"
    },
    {
      "inputs": [],
      "name": "indexedProperty",
      "outputs": [
        {
          "internalType": "uint256",
          "name": "",
          "type": "uint256"
        }
      ],
      "stateMutability": "view",
      "type": "function"
    },
    {
      "inputs": [],
      "name": "indexedRental",
      "outputs": [
        {
          "internalType": "uint256",
          "name": "",
          "type": "uint256"
        }
      ],
      "stateMutability": "view",
      "type": "function"
    },
    {
      "inputs": [
        {
          "internalType": "bytes32",
          "name": "",
          "type": "bytes32"
        }
      ],
      "name": "isPropertyRegistered",
      "outputs": [
        {
          "internalType": "bool",
          "name": "",
          "type": "bool"
        }
      ],
      "stateMutability": "view",
      "type": "function"
    },
    {
      "inputs": [
        {
          "internalType": "address",
          "name": "",
          "type": "address"
        }
      ],
      "name": "landlordProfile",
      "outputs": [
        {
          "internalType": "address",
          "name": "user",
          "type": "address"
        },
        {
          "internalType": "uint256",
          "name": "balance",
          "type": "uint256"
        },
        {
          "internalType": "bool",
          "name": "isRegistered",
          "type": "bool"
        },
        {
          "internalType": "bool",
          "name": "hasProperties",
          "type": "bool"
        }
      ],
      "stateMutability": "view",
      "type": "function"
    },
    {
      "inputs": [
        {
          "internalType": "address",
          "name": "",
          "type": "address"
        }
      ],
      "name": "landlordRentalReceipt",
      "outputs": [
        {
          "internalType": "uint256",
          "name": "rentalId",
          "type": "uint256"
        },
        {
          "internalType": "address",
          "name": "landlord",
          "type": "address"
        },
        {
          "internalType": "address",
          "name": "tenant",
          "type": "address"
        },
        {
          "internalType": "uint256",
          "name": "propertyId",
          "type": "uint256"
        },
        {
          "internalType": "string",
          "name": "propertyName",
          "type": "string"
        },
        {
          "internalType": "uint256",
          "name": "startDate",
          "type": "uint256"
        },
        {
          "internalType": "uint256",
          "name": "endDate",
          "type": "uint256"
        },
        {
          "internalType": "bool",
          "name": "isSigned",
          "type": "bool"
        },
        {
          "internalType": "bool",
          "name": "isReleased",
          "type": "bool"
        }
      ],
      "stateMutability": "view",
      "type": "function"
    },
    {
      "inputs": [
        {
          "internalType": "uint256",
          "name": "",
          "type": "uint256"
        }
      ],
      "name": "listedProperties",
      "outputs": [
        {
          "internalType": "uint256",
          "name": "propertyId",
          "type": "uint256"
        },
        {
          "internalType": "address",
          "name": "landlord",
          "type": "address"
        },
        {
          "internalType": "string",
          "name": "location",
          "type": "string"
        },
        {
          "internalType": "string",
          "name": "name",
          "type": "string"
        },
        {
          "internalType": "uint256",
          "name": "rentAmount",
          "type": "uint256"
        },
        {
          "internalType": "address",
          "name": "requestedBy",
          "type": "address"
        },
        {
          "internalType": "bool",
          "name": "isOccupied",
          "type": "bool"
        },
        {
          "internalType": "bool",
          "name": "tenantRequest",
          "type": "bool"
        },
        {
          "internalType": "bool",
          "name": "isRegistered",
          "type": "bool"
        }
      ],
      "stateMutability": "view",
      "type": "function"
    },
    {
      "inputs": [],
      "name": "owner",
      "outputs": [
        {
          "internalType": "address",
          "name": "",
          "type": "address"
        }
      ],
      "stateMutability": "view",
      "type": "function"
    },
    {
      "inputs": [
        {
          "internalType": "bytes",
          "name": "performData",
          "type": "bytes"
        }
      ],
      "name": "performUpkeep",
      "outputs": [],
      "stateMutability": "nonpayable",
      "type": "function"
    },
    {
      "inputs": [
        {
          "internalType": "uint256",
          "name": "_propertyId",
          "type": "uint256"
        }
      ],
      "name": "propertyRentRequest",
      "outputs": [],
      "stateMutability": "nonpayable",
      "type": "function"
    },
    {
      "inputs": [],
      "name": "registerLandLord",
      "outputs": [],
      "stateMutability": "nonpayable",
      "type": "function"
    },
    {
      "inputs": [
        {
          "internalType": "string",
          "name": "_location",
          "type": "string"
        },
        {
          "internalType": "string",
          "name": "_name",
          "type": "string"
        },
        {
          "internalType": "uint256",
          "name": "_amount",
          "type": "uint256"
        }
      ],
      "name": "registerProperties",
      "outputs": [],
      "stateMutability": "nonpayable",
      "type": "function"
    },
    {
      "inputs": [],
      "name": "registerTenant",
      "outputs": [],
      "stateMutability": "nonpayable",
      "type": "function"
    },
    {
      "inputs": [],
      "name": "returnAllProperties",
      "outputs": [
        {
          "components": [
            {
              "internalType": "uint256",
              "name": "propertyId",
              "type": "uint256"
            },
            {
              "internalType": "address",
              "name": "landlord",
              "type": "address"
            },
            {
              "internalType": "string",
              "name": "location",
              "type": "string"
            },
            {
              "internalType": "string",
              "name": "name",
              "type": "string"
            },
            {
              "internalType": "uint256",
              "name": "rentAmount",
              "type": "uint256"
            },
            {
              "internalType": "address",
              "name": "requestedBy",
              "type": "address"
            },
            {
              "internalType": "bool",
              "name": "isOccupied",
              "type": "bool"
            },
            {
              "internalType": "bool",
              "name": "tenantRequest",
              "type": "bool"
            },
            {
              "internalType": "bool",
              "name": "isRegistered",
              "type": "bool"
            }
          ],
          "internalType": "struct ImmovableRental.Properties[]",
          "name": "",
          "type": "tuple[]"
        }
      ],
      "stateMutability": "view",
      "type": "function"
    },
    {
      "inputs": [],
      "name": "returnLandlordProfile",
      "outputs": [
        {
          "components": [
            {
              "internalType": "address",
              "name": "user",
              "type": "address"
            },
            {
              "internalType": "uint256",
              "name": "balance",
              "type": "uint256"
            },
            {
              "internalType": "bool",
              "name": "isRegistered",
              "type": "bool"
            },
            {
              "internalType": "bool",
              "name": "hasProperties",
              "type": "bool"
            }
          ],
          "internalType": "struct ImmovableRental.Landlord",
          "name": "",
          "type": "tuple"
        }
      ],
      "stateMutability": "view",
      "type": "function"
    },
    {
      "inputs": [],
      "name": "returnRental",
      "outputs": [
        {
          "components": [
            {
              "internalType": "uint256",
              "name": "rentalId",
              "type": "uint256"
            },
            {
              "internalType": "address",
              "name": "landlord",
              "type": "address"
            },
            {
              "internalType": "address",
              "name": "tenant",
              "type": "address"
            },
            {
              "internalType": "uint256",
              "name": "propertyId",
              "type": "uint256"
            },
            {
              "internalType": "string",
              "name": "propertyName",
              "type": "string"
            },
            {
              "internalType": "uint256",
              "name": "startDate",
              "type": "uint256"
            },
            {
              "internalType": "uint256",
              "name": "endDate",
              "type": "uint256"
            },
            {
              "internalType": "bool",
              "name": "isSigned",
              "type": "bool"
            },
            {
              "internalType": "bool",
              "name": "isReleased",
              "type": "bool"
            }
          ],
          "internalType": "struct ImmovableRental.TenantsReceipt",
          "name": "",
          "type": "tuple"
        }
      ],
      "stateMutability": "view",
      "type": "function"
    },
    {
      "inputs": [],
      "name": "returnTenantProfiles",
      "outputs": [
        {
          "components": [
            {
              "internalType": "address",
              "name": "user",
              "type": "address"
            },
            {
              "internalType": "uint256",
              "name": "balance",
              "type": "uint256"
            },
            {
              "internalType": "bool",
              "name": "hasActiveRent",
              "type": "bool"
            },
            {
              "internalType": "bool",
              "name": "isRegistered",
              "type": "bool"
            }
          ],
          "internalType": "struct ImmovableRental.Tenant",
          "name": "",
          "type": "tuple"
        }
      ],
      "stateMutability": "view",
      "type": "function"
    },
    {
      "inputs": [],
      "name": "router",
      "outputs": [
        {
          "internalType": "contract IRouterClient",
          "name": "",
          "type": "address"
        }
      ],
      "stateMutability": "view",
      "type": "function"
    },
    {
      "inputs": [
        {
          "internalType": "uint64",
          "name": "_chainSelector",
          "type": "uint64"
        },
        {
          "internalType": "address",
          "name": "_sender",
          "type": "address"
        },
        {
          "internalType": "bool",
          "name": "allowed",
          "type": "bool"
        }
      ],
      "name": "setSender",
      "outputs": [],
      "stateMutability": "nonpayable",
      "type": "function"
    },
    {
      "inputs": [
        {
          "internalType": "uint256",
          "name": "_durationInDays",
          "type": "uint256"
        }
      ],
      "name": "signRental",
      "outputs": [],
      "stateMutability": "nonpayable",
      "type": "function"
    },
    {
      "inputs": [
        {
          "internalType": "bytes4",
          "name": "interfaceId",
          "type": "bytes4"
        }
      ],
      "name": "supportsInterface",
      "outputs": [
        {
          "internalType": "bool",
          "name": "",
          "type": "bool"
        }
      ],
      "stateMutability": "view",
      "type": "function"
    },
    {
      "inputs": [
        {
          "internalType": "address",
          "name": "",
          "type": "address"
        }
      ],
      "name": "tenant",
      "outputs": [
        {
          "internalType": "address",
          "name": "user",
          "type": "address"
        },
        {
          "internalType": "uint256",
          "name": "balance",
          "type": "uint256"
        },
        {
          "internalType": "bool",
          "name": "hasActiveRent",
          "type": "bool"
        },
        {
          "internalType": "bool",
          "name": "isRegistered",
          "type": "bool"
        }
      ],
      "stateMutability": "view",
      "type": "function"
    },
    {
      "inputs": [],
      "name": "tenantDeposit",
      "outputs": [],
      "stateMutability": "payable",
      "type": "function"
    },
    {
      "inputs": [
        {
          "internalType": "uint256",
          "name": "_amount",
          "type": "uint256"
        }
      ],
      "name": "userWithdraw",
      "outputs": [],
      "stateMutability": "nonpayable",
      "type": "function"
    },
    {
      "stateMutability": "payable",
      "type": "receive"
    }
  ],
  "bytecode": "0x60a060405234801561001057600080fd5b50604051616168380380616168833981810160405281019061003291906101cd565b80600073ffffffffffffffffffffffffffffffffffffffff168173ffffffffffffffffffffffffffffffffffffffff16036100a55760006040517fd7f7333400000000000000000000000000000000000000000000000000000000815260040161009c9190610209565b60405180910390fd5b8073ffffffffffffffffffffffffffffffffffffffff1660808173ffffffffffffffffffffffffffffffffffffffff168152505050600160008190555080600160006101000a81548173ffffffffffffffffffffffffffffffffffffffff021916908373ffffffffffffffffffffffffffffffffffffffff16021790555033600960006101000a81548173ffffffffffffffffffffffffffffffffffffffff021916908373ffffffffffffffffffffffffffffffffffffffff16021790555050610224565b600080fd5b600073ffffffffffffffffffffffffffffffffffffffff82169050919050565b600061019a8261016f565b9050919050565b6101aa8161018f565b81146101b557600080fd5b50565b6000815190506101c7816101a1565b92915050565b6000602082840312156101e3576101e261016a565b5b60006101f1848285016101b8565b91505092915050565b6102038161018f565b82525050565b600060208201905061021e60008301846101fa565b92915050565b608051615f2961023f60003960006133fa0152615f296000f3fe6080604052600436106101c65760003560e01c80636e04ff0d116100f7578063ae26df9b11610095578063e28d138411610064578063e28d13841461061a578063e43d6c6514610643578063f887ea401461066e578063f9015a7d14610699576101cd565b8063ae26df9b1461054a578063b0f479a114610587578063d1c13abd146105b2578063d6ab0cd3146105dd576101cd565b80638da5cb5b116100d15780638da5cb5b146104c157806394654469146104ec578063a272d20214610517578063a75e69fa14610540576101cd565b80636e04ff0d1461041557806385572ffb146104535780638c7929f51461047c576101cd565b80633d65e57311610164578063495a54141161013e578063495a5414146103775780634bd910c6146103a25780634c81349d146103b95780634eea2690146103fe576101cd565b80633d65e573146102f757806344841f09146103375780634585e33b1461034e576101cd565b806307e1a4d7116101a057806307e1a4d71461026557806321344a541461027c578063286d1909146102a55780633b9056bf146102ce576101cd565b806301ffc9a7146101d25780630334b4801461020f57806305faf9c31461023a576101cd565b366101cd57005b600080fd5b3480156101de57600080fd5b506101f960048036038101906101f49190613d7a565b6106d9565b6040516102069190613dc2565b60405180910390f35b34801561021b57600080fd5b506102246107ab565b6040516102319190613e9b565b60405180910390f35b34801561024657600080fd5b5061024f610927565b60405161025c9190613ec5565b60405180910390f35b34801561027157600080fd5b5061027a61092d565b005b34801561028857600080fd5b506102a3600480360381019061029e9190613f0c565b610bb0565b005b3480156102b157600080fd5b506102cc60048036038101906102c79190613f0c565b610f5b565b005b3480156102da57600080fd5b506102f560048036038101906102f09190613f0c565b611662565b005b34801561030357600080fd5b5061031e60048036038101906103199190613f65565b611a11565b60405161032e9493929190613fa1565b60405180910390f35b34801561034357600080fd5b5061034c611a7b565b005b34801561035a57600080fd5b506103756004803603810190610370919061404b565b611c6d565b005b34801561038357600080fd5b5061038c611d7b565b60405161039991906140ed565b60405180910390f35b3480156103ae57600080fd5b506103b7611ef7565b005b3480156103c557600080fd5b506103e060048036038101906103db9190613f65565b61225b565b6040516103f599989796959493929190614198565b60405180910390f35b34801561040a57600080fd5b5061041361238b565b005b34801561042157600080fd5b5061043c6004803603810190610437919061404b565b61260d565b60405161044a929190614281565b60405180910390f35b34801561045f57600080fd5b5061047a600480360381019061047591906142d5565b612846565b005b34801561048857600080fd5b506104a3600480360381019061049e9190613f0c565b6128d2565b6040516104b89998979695949392919061431e565b60405180910390f35b3480156104cd57600080fd5b506104d6612aa7565b6040516104e391906143b9565b60405180910390f35b3480156104f857600080fd5b50610501612acd565b60405161050e91906145ac565b60405180910390f35b34801561052357600080fd5b5061053e600480360381019061053991906146fe565b612d62565b005b6105486131ba565b005b34801561055657600080fd5b50610571600480360381019061056c91906147c9565b6133c7565b60405161057e9190613dc2565b60405180910390f35b34801561059357600080fd5b5061059c6133f6565b6040516105a991906143b9565b60405180910390f35b3480156105be57600080fd5b506105c761341e565b6040516105d491906148ce565b60405180910390f35b3480156105e957600080fd5b5061060460048036038101906105ff9190614926565b613612565b6040516106119190613dc2565b60405180910390f35b34801561062657600080fd5b50610641600480360381019061063c919061497f565b613632565b005b34801561064f57600080fd5b50610658613743565b6040516106659190613ec5565b60405180910390f35b34801561067a57600080fd5b50610683613749565b6040516106909190614a31565b60405180910390f35b3480156106a557600080fd5b506106c060048036038101906106bb9190613f65565b61376f565b6040516106d09493929190613fa1565b60405180910390f35b60007f85572ffb000000000000000000000000000000000000000000000000000000007bffffffffffffffffffffffffffffffffffffffffffffffffffffffff1916827bffffffffffffffffffffffffffffffffffffffffffffffffffffffff191614806107a457507f01ffc9a7000000000000000000000000000000000000000000000000000000007bffffffffffffffffffffffffffffffffffffffffffffffffffffffff1916827bffffffffffffffffffffffffffffffffffffffffffffffffffffffff1916145b9050919050565b6107b3613c0e565b600660003373ffffffffffffffffffffffffffffffffffffffff1673ffffffffffffffffffffffffffffffffffffffff16815260200190815260200160002060020160009054906101000a900460ff16610842576040517f08c379a000000000000000000000000000000000000000000000000000000000815260040161083990614a98565b60405180910390fd5b600660003373ffffffffffffffffffffffffffffffffffffffff1673ffffffffffffffffffffffffffffffffffffffff1681526020019081526020016000206040518060800160405290816000820160009054906101000a900473ffffffffffffffffffffffffffffffffffffffff1673ffffffffffffffffffffffffffffffffffffffff1673ffffffffffffffffffffffffffffffffffffffff168152602001600182015481526020016002820160009054906101000a900460ff161515151581526020016002820160019054906101000a900460ff161515151581525050905090565b60085481565b60005b600480549050811015610bad5760006004828154811061095357610952614ab8565b5b9060005260206000209060060201905060008160010160009054906101000a900473ffffffffffffffffffffffffffffffffffffffff1690506000600760008373ffffffffffffffffffffffffffffffffffffffff1673ffffffffffffffffffffffffffffffffffffffff168152602001908152602001600020905060008160020160009054906101000a900473ffffffffffffffffffffffffffffffffffffffff1690508160070160009054906101000a900460ff168015610a2557508160070160019054906101000a900460ff16155b8015610a35575081600601544210155b15610b9c5760018260070160016101000a81548160ff02191690831515021790555060008260070160006101000a81548160ff02191690831515021790555060008260020160006101000a81548173ffffffffffffffffffffffffffffffffffffffff021916908373ffffffffffffffffffffffffffffffffffffffff1602179055506000826005018190555060008460050160146101000a81548160ff02191690831515021790555060008460050160156101000a81548160ff02191690831515021790555060008460050160006101000a81548173ffffffffffffffffffffffffffffffffffffffff021916908373ffffffffffffffffffffffffffffffffffffffff1602179055506000600260008373ffffffffffffffffffffffffffffffffffffffff1673ffffffffffffffffffffffffffffffffffffffff16815260200190815260200160002060020160006101000a81548160ff0219169083151502179055505b505050508080600101915050610930565b50565b3373ffffffffffffffffffffffffffffffffffffffff16600260003373ffffffffffffffffffffffffffffffffffffffff1673ffffffffffffffffffffffffffffffffffffffff16815260200190815260200160002060000160009054906101000a900473ffffffffffffffffffffffffffffffffffffffff1673ffffffffffffffffffffffffffffffffffffffff1614610c80576040517f08c379a0000000000000000000000000000000000000000000000000000000008152600401610c7790614b33565b60405180910390fd5b600260003373ffffffffffffffffffffffffffffffffffffffff1673ffffffffffffffffffffffffffffffffffffffff16815260200190815260200160002060020160019054906101000a900460ff16610d0f576040517f08c379a0000000000000000000000000000000000000000000000000000000008152600401610d0690614b9f565b60405180910390fd5b6004805490508110610d56576040517f08c379a0000000000000000000000000000000000000000000000000000000008152600401610d4d90614c0b565b60405180910390fd5b600060048281548110610d6c57610d6b614ab8565b5b906000526020600020906006020190508060050160149054906101000a900460ff1615610dce576040517f08c379a0000000000000000000000000000000000000000000000000000000008152600401610dc590614c77565b60405180910390fd5b8060050160159054906101000a900460ff1615610e20576040517f08c379a0000000000000000000000000000000000000000000000000000000008152600401610e1790614ce3565b60405180910390fd5b8060040154600260003373ffffffffffffffffffffffffffffffffffffffff1673ffffffffffffffffffffffffffffffffffffffff168152602001908152602001600020600101541015610ea9576040517f08c379a0000000000000000000000000000000000000000000000000000000008152600401610ea090614d4f565b60405180910390fd5b60018160050160156101000a81548160ff021916908315150217905550338160050160006101000a81548173ffffffffffffffffffffffffffffffffffffffff021916908373ffffffffffffffffffffffffffffffffffffffff1602179055503373ffffffffffffffffffffffffffffffffffffffff167f507ad3b72a7c833c6328998745bb0750f24e40406335735e1268db7febcbd4b383604051610f4f9190613ec5565b60405180910390a25050565b3373ffffffffffffffffffffffffffffffffffffffff16600660003373ffffffffffffffffffffffffffffffffffffffff1673ffffffffffffffffffffffffffffffffffffffff16815260200190815260200160002060000160009054906101000a900473ffffffffffffffffffffffffffffffffffffffff1673ffffffffffffffffffffffffffffffffffffffff161461102b576040517f08c379a000000000000000000000000000000000000000000000000000000000815260040161102290614dbb565b60405180910390fd5b600660003373ffffffffffffffffffffffffffffffffffffffff1673ffffffffffffffffffffffffffffffffffffffff16815260200190815260200160002060020160009054906101000a900460ff166110ba576040517f08c379a00000000000000000000000000000000000000000000000000000000081526004016110b190614e27565b60405180910390fd5b6000805b60048054905081101561161d576000600482815481106110e1576110e0614ab8565b5b906000526020600020906006020190503373ffffffffffffffffffffffffffffffffffffffff168160010160009054906101000a900473ffffffffffffffffffffffffffffffffffffffff1673ffffffffffffffffffffffffffffffffffffffff161480156111a15750600073ffffffffffffffffffffffffffffffffffffffff168160050160009054906101000a900473ffffffffffffffffffffffffffffffffffffffff1673ffffffffffffffffffffffffffffffffffffffff1614155b80156111c25750600115158160050160159054906101000a900460ff161515145b80156111dd57508060050160149054906101000a900460ff16155b1561160f5760008160050160009054906101000a900473ffffffffffffffffffffffffffffffffffffffff169050600260008273ffffffffffffffffffffffffffffffffffffffff1673ffffffffffffffffffffffffffffffffffffffff16815260200190815260200160002060020160019054906101000a900460ff1661129a576040517f08c379a000000000000000000000000000000000000000000000000000000000815260040161129190614b9f565b60405180910390fd5b604051806101200160405280600860008154809291906112b990614e76565b9190505581526020013373ffffffffffffffffffffffffffffffffffffffff1681526020018273ffffffffffffffffffffffffffffffffffffffff1681526020018360000154815260200183600301805461131390614eed565b80601f016020809104026020016040519081016040528092919081815260200182805461133f90614eed565b801561138c5780601f106113615761010080835404028352916020019161138c565b820191906000526020600020905b81548152906001019060200180831161136f57829003601f168201915b5050505050815260200142815260200162015180876113ab9190614f1e565b426113b69190614f60565b815260200160011515815260200160001515815250600760003373ffffffffffffffffffffffffffffffffffffffff1673ffffffffffffffffffffffffffffffffffffffff1681526020019081526020016000206000820151816000015560208201518160010160006101000a81548173ffffffffffffffffffffffffffffffffffffffff021916908373ffffffffffffffffffffffffffffffffffffffff16021790555060408201518160020160006101000a81548173ffffffffffffffffffffffffffffffffffffffff021916908373ffffffffffffffffffffffffffffffffffffffff1602179055506060820151816003015560808201518160040190816114c19190615136565b5060a0820151816005015560c0820151816006015560e08201518160070160006101000a81548160ff0219169083151502179055506101008201518160070160016101000a81548160ff02191690831515021790555090505060018260050160146101000a81548160ff0219169083151502179055506001600260008373ffffffffffffffffffffffffffffffffffffffff1673ffffffffffffffffffffffffffffffffffffffff16815260200190815260200160002060020160006101000a81548160ff0219169083151502179055508073ffffffffffffffffffffffffffffffffffffffff163373ffffffffffffffffffffffffffffffffffffffff167ef021a6c54757c213a20afb1e9eda71a97192985772445e27d14795e9fd16a260016008546115ef9190615208565b6040516115fc9190613ec5565b60405180910390a360019350505061161d565b5080806001019150506110be565b508061165e576040517f08c379a000000000000000000000000000000000000000000000000000000000815260040161165590615288565b60405180910390fd5b5050565b61166a6137d9565b600081116116ad576040517f08c379a00000000000000000000000000000000000000000000000000000000081526004016116a4906152f4565b60405180910390fd5b600260003373ffffffffffffffffffffffffffffffffffffffff1673ffffffffffffffffffffffffffffffffffffffff16815260200190815260200160002060020160019054906101000a900460ff16156117e55780600260003373ffffffffffffffffffffffffffffffffffffffff1673ffffffffffffffffffffffffffffffffffffffff168152602001908152602001600020600101541015611787576040517f08c379a000000000000000000000000000000000000000000000000000000000815260040161177e90615360565b60405180910390fd5b80600260003373ffffffffffffffffffffffffffffffffffffffff1673ffffffffffffffffffffffffffffffffffffffff16815260200190815260200160002060010160008282546117d99190615208565b92505081905550611959565b600660003373ffffffffffffffffffffffffffffffffffffffff1673ffffffffffffffffffffffffffffffffffffffff16815260200190815260200160002060020160009054906101000a900460ff161561191d5780600660003373ffffffffffffffffffffffffffffffffffffffff1673ffffffffffffffffffffffffffffffffffffffff1681526020019081526020016000206001015410156118bf576040517f08c379a00000000000000000000000000000000000000000000000000000000081526004016118b6906153cc565b60405180910390fd5b80600660003373ffffffffffffffffffffffffffffffffffffffff1673ffffffffffffffffffffffffffffffffffffffff16815260200190815260200160002060010160008282546119119190615208565b92505081905550611958565b6040517f08c379a000000000000000000000000000000000000000000000000000000000815260040161194f90615438565b60405180910390fd5b5b60003373ffffffffffffffffffffffffffffffffffffffff168260405161197f90615489565b60006040518083038185875af1925050503d80600081146119bc576040519150601f19603f3d011682016040523d82523d6000602084013e6119c1565b606091505b5050905080611a05576040517f08c379a00000000000000000000000000000000000000000000000000000000081526004016119fc906154ea565b60405180910390fd5b50611a0e61381f565b50565b60066020528060005260406000206000915090508060000160009054906101000a900473ffffffffffffffffffffffffffffffffffffffff16908060010154908060020160009054906101000a900460ff16908060020160019054906101000a900460ff16905084565b600660003373ffffffffffffffffffffffffffffffffffffffff1673ffffffffffffffffffffffffffffffffffffffff16815260200190815260200160002060020160009054906101000a900460ff1615611b0b576040517f08c379a0000000000000000000000000000000000000000000000000000000008152600401611b0290615556565b60405180910390fd5b60405180608001604052803373ffffffffffffffffffffffffffffffffffffffff1681526020016000815260200160011515815260200160001515815250600660003373ffffffffffffffffffffffffffffffffffffffff1673ffffffffffffffffffffffffffffffffffffffff16815260200190815260200160002060008201518160000160006101000a81548173ffffffffffffffffffffffffffffffffffffffff021916908373ffffffffffffffffffffffffffffffffffffffff1602179055506020820151816001015560408201518160020160006101000a81548160ff02191690831515021790555060608201518160020160016101000a81548160ff0219169083151502179055509050503373ffffffffffffffffffffffffffffffffffffffff167fb6696617b8ee12f244d0e82a5724fc8d7df5564dc5efe34933f81df1f837c0706001604051611c639190613dc2565b60405180910390a2565b6040518060400160405280600781526020017f74696d656f757400000000000000000000000000000000000000000000000000815250805190602001208282604051611cba92919061559b565b604051809103902003611cd457611ccf61092d565b611d77565b6040518060400160405280600781526020017f7061796d656e7400000000000000000000000000000000000000000000000000815250805190602001208282604051611d2192919061559b565b604051809103902003611d3b57611d36611ef7565b611d76565b6040517f08c379a0000000000000000000000000000000000000000000000000000000008152600401611d6d90615600565b60405180910390fd5b5b5050565b611d83613c50565b600260003373ffffffffffffffffffffffffffffffffffffffff1673ffffffffffffffffffffffffffffffffffffffff16815260200190815260200160002060020160019054906101000a900460ff16611e12576040517f08c379a0000000000000000000000000000000000000000000000000000000008152600401611e0990614b33565b60405180910390fd5b600260003373ffffffffffffffffffffffffffffffffffffffff1673ffffffffffffffffffffffffffffffffffffffff1681526020019081526020016000206040518060800160405290816000820160009054906101000a900473ffffffffffffffffffffffffffffffffffffffff1673ffffffffffffffffffffffffffffffffffffffff1673ffffffffffffffffffffffffffffffffffffffff168152602001600182015481526020016002820160009054906101000a900460ff161515151581526020016002820160019054906101000a900460ff161515151581525050905090565b611eff6137d9565b60005b60048054905081101561225057600060048281548110611f2557611f24614ab8565b5b906000526020600020906006020190506000600760008360010160009054906101000a900473ffffffffffffffffffffffffffffffffffffffff1673ffffffffffffffffffffffffffffffffffffffff1673ffffffffffffffffffffffffffffffffffffffff16815260200190815260200160002090508060070160009054906101000a900460ff168015611fc957508060070160019054906101000a900460ff16155b8015611fd9575060008160050154115b8015611ff5575061012c8160050154611ff29190614f60565b42115b801561206b57508160040154600260008360020160009054906101000a900473ffffffffffffffffffffffffffffffffffffffff1673ffffffffffffffffffffffffffffffffffffffff1673ffffffffffffffffffffffffffffffffffffffff1681526020019081526020016000206001015410155b156121905760018160070160016101000a81548160ff0219169083151502179055508160040154600260008360020160009054906101000a900473ffffffffffffffffffffffffffffffffffffffff1673ffffffffffffffffffffffffffffffffffffffff1673ffffffffffffffffffffffffffffffffffffffff16815260200190815260200160002060010160008282546121079190615208565b925050819055508160040154600660008460010160009054906101000a900473ffffffffffffffffffffffffffffffffffffffff1673ffffffffffffffffffffffffffffffffffffffff1673ffffffffffffffffffffffffffffffffffffffff16815260200190815260200160002060010160008282546121889190614f60565b925050819055505b8060020160009054906101000a900473ffffffffffffffffffffffffffffffffffffffff1673ffffffffffffffffffffffffffffffffffffffff168160010160009054906101000a900473ffffffffffffffffffffffffffffffffffffffff1673ffffffffffffffffffffffffffffffffffffffff167f791ff5c84f9acebb4b26797f063e5992a2fe426c7b60a97e82d103e9c8b210e484600401546040516122399190613ec5565b60405180910390a350508080600101915050611f02565b5061225961381f565b565b60076020528060005260406000206000915090508060000154908060010160009054906101000a900473ffffffffffffffffffffffffffffffffffffffff16908060020160009054906101000a900473ffffffffffffffffffffffffffffffffffffffff16908060030154908060040180546122d690614eed565b80601f016020809104026020016040519081016040528092919081815260200182805461230290614eed565b801561234f5780601f106123245761010080835404028352916020019161234f565b820191906000526020600020905b81548152906001019060200180831161233257829003601f168201915b5050505050908060050154908060060154908060070160009054906101000a900460ff16908060070160019054906101000a900460ff16905089565b600260003373ffffffffffffffffffffffffffffffffffffffff1673ffffffffffffffffffffffffffffffffffffffff16815260200190815260200160002060020160019054906101000a900460ff161561241b576040517f08c379a00000000000000000000000000000000000000000000000000000000081526004016124129061566c565b60405180910390fd5b600260003373ffffffffffffffffffffffffffffffffffffffff1673ffffffffffffffffffffffffffffffffffffffff16815260200190815260200160002060020160009054906101000a900460ff16156124ab576040517f08c379a00000000000000000000000000000000000000000000000000000000081526004016124a29061566c565b60405180910390fd5b60405180608001604052803373ffffffffffffffffffffffffffffffffffffffff1681526020016000815260200160001515815260200160011515815250600260003373ffffffffffffffffffffffffffffffffffffffff1673ffffffffffffffffffffffffffffffffffffffff16815260200190815260200160002060008201518160000160006101000a81548173ffffffffffffffffffffffffffffffffffffffff021916908373ffffffffffffffffffffffffffffffffffffffff1602179055506020820151816001015560408201518160020160006101000a81548160ff02191690831515021790555060608201518160020160016101000a81548160ff0219169083151502179055509050503373ffffffffffffffffffffffffffffffffffffffff167f77e2c0497197e0ec9be0552f1b02a0366bff8357993d2a2fab479650c6967ea160016040516126039190613dc2565b60405180910390a2565b600060606000915060005b6004805490508110156128275760006004828154811061263b5761263a614ab8565b5b906000526020600020906006020190506000600760008360010160009054906101000a900473ffffffffffffffffffffffffffffffffffffffff1673ffffffffffffffffffffffffffffffffffffffff1673ffffffffffffffffffffffffffffffffffffffff16815260200190815260200160002090508060070160009054906101000a900460ff1680156126df57508060070160019054906101000a900460ff16155b80156126ef575080600601544210155b1561272457600194506001604051602001612709906156d8565b6040516020818303038152906040529450945050505061283f565b8060070160009054906101000a900460ff16801561275157508060070160019054906101000a900460ff16155b80156127c757508160040154600260008360020160009054906101000a900473ffffffffffffffffffffffffffffffffffffffff1673ffffffffffffffffffffffffffffffffffffffff1673ffffffffffffffffffffffffffffffffffffffff1681526020019081526020016000206001015410155b80156127e3575061012c81600501546127e09190614f60565b42115b15612818576001945060016040516020016127fd90615744565b6040516020818303038152906040529450945050505061283f565b50508080600101915050612618565b50600060405180602001604052806000815250915091505b9250929050565b61284e6133f6565b73ffffffffffffffffffffffffffffffffffffffff163373ffffffffffffffffffffffffffffffffffffffff16146128bd57336040517fd7f733340000000000000000000000000000000000000000000000000000000081526004016128b491906143b9565b60405180910390fd5b6128cf816128ca90615a02565b613829565b50565b600481815481106128e257600080fd5b90600052602060002090600602016000915090508060000154908060010160009054906101000a900473ffffffffffffffffffffffffffffffffffffffff169080600201805461293190614eed565b80601f016020809104026020016040519081016040528092919081815260200182805461295d90614eed565b80156129aa5780601f1061297f576101008083540402835291602001916129aa565b820191906000526020600020905b81548152906001019060200180831161298d57829003601f168201915b5050505050908060030180546129bf90614eed565b80601f01602080910402602001604051908101604052809291908181526020018280546129eb90614eed565b8015612a385780601f10612a0d57610100808354040283529160200191612a38565b820191906000526020600020905b815481529060010190602001808311612a1b57829003601f168201915b5050505050908060040154908060050160009054906101000a900473ffffffffffffffffffffffffffffffffffffffff16908060050160149054906101000a900460ff16908060050160159054906101000a900460ff16908060050160169054906101000a900460ff16905089565b600960009054906101000a900473ffffffffffffffffffffffffffffffffffffffff1681565b60606004805480602002602001604051908101604052809291908181526020016000905b82821015612d59578382906000526020600020906006020160405180610120016040529081600082015481526020016001820160009054906101000a900473ffffffffffffffffffffffffffffffffffffffff1673ffffffffffffffffffffffffffffffffffffffff1673ffffffffffffffffffffffffffffffffffffffff168152602001600282018054612b8590614eed565b80601f0160208091040260200160405190810160405280929190818152602001828054612bb190614eed565b8015612bfe5780601f10612bd357610100808354040283529160200191612bfe565b820191906000526020600020905b815481529060010190602001808311612be157829003601f168201915b50505050508152602001600382018054612c1790614eed565b80601f0160208091040260200160405190810160405280929190818152602001828054612c4390614eed565b8015612c905780601f10612c6557610100808354040283529160200191612c90565b820191906000526020600020905b815481529060010190602001808311612c7357829003601f168201915b50505050508152602001600482015481526020016005820160009054906101000a900473ffffffffffffffffffffffffffffffffffffffff1673ffffffffffffffffffffffffffffffffffffffff1673ffffffffffffffffffffffffffffffffffffffff1681526020016005820160149054906101000a900460ff161515151581526020016005820160159054906101000a900460ff161515151581526020016005820160169054906101000a900460ff16151515158152505081526020019060010190612af1565b50505050905090565b3373ffffffffffffffffffffffffffffffffffffffff16600660003373ffffffffffffffffffffffffffffffffffffffff1673ffffffffffffffffffffffffffffffffffffffff16815260200190815260200160002060000160009054906101000a900473ffffffffffffffffffffffffffffffffffffffff1673ffffffffffffffffffffffffffffffffffffffff1614612e32576040517f08c379a0000000000000000000000000000000000000000000000000000000008152600401612e2990614dbb565b60405180910390fd5b600660003373ffffffffffffffffffffffffffffffffffffffff1673ffffffffffffffffffffffffffffffffffffffff16815260200190815260200160002060020160009054906101000a900460ff16612ec1576040517f08c379a0000000000000000000000000000000000000000000000000000000008152600401612eb890614e27565b60405180910390fd5b6000338483604051602001612ed893929190615aba565b6040516020818303038152906040528051906020012090506005600082815260200190815260200160002060009054906101000a900460ff1615612f51576040517f08c379a0000000000000000000000000000000000000000000000000000000008152600401612f4890615b3f565b60405180910390fd5b600460405180610120016040528060036000815480929190612f7290614e76565b9190505581526020013373ffffffffffffffffffffffffffffffffffffffff168152602001868152602001858152602001848152602001600073ffffffffffffffffffffffffffffffffffffffff1681526020016000151581526020016000151581526020016001151581525090806001815401808255809150506001900390600052602060002090600602016000909190919091506000820151816000015560208201518160010160006101000a81548173ffffffffffffffffffffffffffffffffffffffff021916908373ffffffffffffffffffffffffffffffffffffffff160217905550604082015181600201908161306e9190615136565b5060608201518160030190816130849190615136565b506080820151816004015560a08201518160050160006101000a81548173ffffffffffffffffffffffffffffffffffffffff021916908373ffffffffffffffffffffffffffffffffffffffff16021790555060c08201518160050160146101000a81548160ff02191690831515021790555060e08201518160050160156101000a81548160ff0219169083151502179055506101008201518160050160166101000a81548160ff021916908315150217905550505060016005600083815260200190815260200160002060006101000a81548160ff0219169083151502179055503373ffffffffffffffffffffffffffffffffffffffff167fc92e830c7a6579616c317c0684d2eaf53fb889033a419d9b261f5e76594babbf60016040516131ac9190613dc2565b60405180910390a250505050565b3373ffffffffffffffffffffffffffffffffffffffff16600260003373ffffffffffffffffffffffffffffffffffffffff1673ffffffffffffffffffffffffffffffffffffffff16815260200190815260200160002060000160009054906101000a900473ffffffffffffffffffffffffffffffffffffffff1673ffffffffffffffffffffffffffffffffffffffff161461328a576040517f08c379a000000000000000000000000000000000000000000000000000000000815260040161328190614b33565b60405180910390fd5b600260003373ffffffffffffffffffffffffffffffffffffffff1673ffffffffffffffffffffffffffffffffffffffff16815260200190815260200160002060020160019054906101000a900460ff16613319576040517f08c379a000000000000000000000000000000000000000000000000000000000815260040161331090614b9f565b60405180910390fd5b6133216137d9565b60003411613364576040517f08c379a000000000000000000000000000000000000000000000000000000000815260040161335b90615bab565b60405180910390fd5b34600260003373ffffffffffffffffffffffffffffffffffffffff1673ffffffffffffffffffffffffffffffffffffffff16815260200190815260200160002060010160008282546133b69190614f60565b925050819055506133c561381f565b565b600a6020528160005260406000206020528060005260406000206000915091509054906101000a900460ff1681565b60007f0000000000000000000000000000000000000000000000000000000000000000905090565b613426613c92565b600760003373ffffffffffffffffffffffffffffffffffffffff1673ffffffffffffffffffffffffffffffffffffffff16815260200190815260200160002060405180610120016040529081600082015481526020016001820160009054906101000a900473ffffffffffffffffffffffffffffffffffffffff1673ffffffffffffffffffffffffffffffffffffffff1673ffffffffffffffffffffffffffffffffffffffff1681526020016002820160009054906101000a900473ffffffffffffffffffffffffffffffffffffffff1673ffffffffffffffffffffffffffffffffffffffff1673ffffffffffffffffffffffffffffffffffffffff1681526020016003820154815260200160048201805461354190614eed565b80601f016020809104026020016040519081016040528092919081815260200182805461356d90614eed565b80156135ba5780601f1061358f576101008083540402835291602001916135ba565b820191906000526020600020905b81548152906001019060200180831161359d57829003601f168201915b5050505050815260200160058201548152602001600682015481526020016007820160009054906101000a900460ff161515151581526020016007820160019054906101000a900460ff161515151581525050905090565b60056020528060005260406000206000915054906101000a900460ff1681565b600960009054906101000a900473ffffffffffffffffffffffffffffffffffffffff1673ffffffffffffffffffffffffffffffffffffffff163373ffffffffffffffffffffffffffffffffffffffff16146136c2576040517f08c379a00000000000000000000000000000000000000000000000000000000081526004016136b990614dbb565b60405180910390fd5b80600a60008567ffffffffffffffff1667ffffffffffffffff16815260200190815260200160002060008473ffffffffffffffffffffffffffffffffffffffff1673ffffffffffffffffffffffffffffffffffffffff16815260200190815260200160002060006101000a81548160ff021916908315150217905550505050565b60035481565b600160009054906101000a900473ffffffffffffffffffffffffffffffffffffffff1681565b60026020528060005260406000206000915090508060000160009054906101000a900473ffffffffffffffffffffffffffffffffffffffff16908060010154908060020160009054906101000a900460ff16908060020160019054906101000a900460ff16905084565b600260005403613815576040517f3ee5aeb500000000000000000000000000000000000000000000000000000000815260040160405180910390fd5b6002600081905550565b6001600081905550565b600081606001518060200190518101906138439190615c82565b9050600a6000836020015167ffffffffffffffff1667ffffffffffffffff1681526020019081526020016000206000836040015180602001905181019061388a9190615ced565b73ffffffffffffffffffffffffffffffffffffffff1673ffffffffffffffffffffffffffffffffffffffff16815260200190815260200160002060009054906101000a900460ff16613911576040517f08c379a000000000000000000000000000000000000000000000000000000000815260040161390890615d66565b60405180910390fd5b600073ffffffffffffffffffffffffffffffffffffffff16600482602001518154811061394157613940614ab8565b5b906000526020600020906006020160010160009054906101000a900473ffffffffffffffffffffffffffffffffffffffff1673ffffffffffffffffffffffffffffffffffffffff16036139c9576040517f08c379a00000000000000000000000000000000000000000000000000000000081526004016139c090615dd2565b60405180910390fd5b806040015160026000836000015173ffffffffffffffffffffffffffffffffffffffff1673ffffffffffffffffffffffffffffffffffffffff1681526020019081526020016000206001016000828254613a239190614f60565b92505081905550806060015115613ba95760006004826020015181548110613a4e57613a4d614ab8565b5b906000526020600020906006020190508060050160149054906101000a900460ff1615613ab0576040517f08c379a0000000000000000000000000000000000000000000000000000000008152600401613aa790615e3e565b60405180910390fd5b600073ffffffffffffffffffffffffffffffffffffffff168160050160009054906101000a900473ffffffffffffffffffffffffffffffffffffffff1673ffffffffffffffffffffffffffffffffffffffff1614613b43576040517f08c379a0000000000000000000000000000000000000000000000000000000008152600401613b3a90615eaa565b60405180910390fd5b81600001518160050160006101000a81548173ffffffffffffffffffffffffffffffffffffffff021916908373ffffffffffffffffffffffffffffffffffffffff16021790555060018160050160156101000a81548160ff021916908315150217905550505b8060200151816000015173ffffffffffffffffffffffffffffffffffffffff167f1217ceb3af5a75891e8628b69f254213500bec437b0aa382000252478c7d744583604001518460600151604051613c02929190615eca565b60405180910390a35050565b6040518060800160405280600073ffffffffffffffffffffffffffffffffffffffff168152602001600081526020016000151581526020016000151581525090565b6040518060800160405280600073ffffffffffffffffffffffffffffffffffffffff168152602001600081526020016000151581526020016000151581525090565b60405180610120016040528060008152602001600073ffffffffffffffffffffffffffffffffffffffff168152602001600073ffffffffffffffffffffffffffffffffffffffff168152602001600081526020016060815260200160008152602001600081526020016000151581526020016000151581525090565b6000604051905090565b600080fd5b600080fd5b60007fffffffff0000000000000000000000000000000000000000000000000000000082169050919050565b613d5781613d22565b8114613d6257600080fd5b50565b600081359050613d7481613d4e565b92915050565b600060208284031215613d9057613d8f613d18565b5b6000613d9e84828501613d65565b91505092915050565b60008115159050919050565b613dbc81613da7565b82525050565b6000602082019050613dd76000830184613db3565b92915050565b600073ffffffffffffffffffffffffffffffffffffffff82169050919050565b6000613e0882613ddd565b9050919050565b613e1881613dfd565b82525050565b6000819050919050565b613e3181613e1e565b82525050565b613e4081613da7565b82525050565b608082016000820151613e5c6000850182613e0f565b506020820151613e6f6020850182613e28565b506040820151613e826040850182613e37565b506060820151613e956060850182613e37565b50505050565b6000608082019050613eb06000830184613e46565b92915050565b613ebf81613e1e565b82525050565b6000602082019050613eda6000830184613eb6565b92915050565b613ee981613e1e565b8114613ef457600080fd5b50565b600081359050613f0681613ee0565b92915050565b600060208284031215613f2257613f21613d18565b5b6000613f3084828501613ef7565b91505092915050565b613f4281613dfd565b8114613f4d57600080fd5b50565b600081359050613f5f81613f39565b92915050565b600060208284031215613f7b57613f7a613d18565b5b6000613f8984828501613f50565b91505092915050565b613f9b81613dfd565b82525050565b6000608082019050613fb66000830187613f92565b613fc36020830186613eb6565b613fd06040830185613db3565b613fdd6060830184613db3565b95945050505050565b600080fd5b600080fd5b600080fd5b60008083601f84011261400b5761400a613fe6565b5b8235905067ffffffffffffffff81111561402857614027613feb565b5b60208301915083600182028301111561404457614043613ff0565b5b9250929050565b6000806020838503121561406257614061613d18565b5b600083013567ffffffffffffffff8111156140805761407f613d1d565b5b61408c85828601613ff5565b92509250509250929050565b6080820160008201516140ae6000850182613e0f565b5060208201516140c16020850182613e28565b5060408201516140d46040850182613e37565b5060608201516140e76060850182613e37565b50505050565b60006080820190506141026000830184614098565b92915050565b600081519050919050565b600082825260208201905092915050565b60005b83811015614142578082015181840152602081019050614127565b60008484015250505050565b6000601f19601f8301169050919050565b600061416a82614108565b6141748185614113565b9350614184818560208601614124565b61418d8161414e565b840191505092915050565b6000610120820190506141ae600083018c613eb6565b6141bb602083018b613f92565b6141c8604083018a613f92565b6141d56060830189613eb6565b81810360808301526141e7818861415f565b90506141f660a0830187613eb6565b61420360c0830186613eb6565b61421060e0830185613db3565b61421e610100830184613db3565b9a9950505050505050505050565b600081519050919050565b600082825260208201905092915050565b60006142538261422c565b61425d8185614237565b935061426d818560208601614124565b6142768161414e565b840191505092915050565b60006040820190506142966000830185613db3565b81810360208301526142a88184614248565b90509392505050565b600080fd5b600060a082840312156142cc576142cb6142b1565b5b81905092915050565b6000602082840312156142eb576142ea613d18565b5b600082013567ffffffffffffffff81111561430957614308613d1d565b5b614315848285016142b6565b91505092915050565b600061012082019050614334600083018c613eb6565b614341602083018b613f92565b8181036040830152614353818a61415f565b90508181036060830152614367818961415f565b90506143766080830188613eb6565b61438360a0830187613f92565b61439060c0830186613db3565b61439d60e0830185613db3565b6143ab610100830184613db3565b9a9950505050505050505050565b60006020820190506143ce6000830184613f92565b92915050565b600081519050919050565b600082825260208201905092915050565b6000819050602082019050919050565b600082825260208201905092915050565b600061441c82614108565b6144268185614400565b9350614436818560208601614124565b61443f8161414e565b840191505092915050565b6000610120830160008301516144636000860182613e28565b5060208301516144766020860182613e0f565b506040830151848203604086015261448e8282614411565b915050606083015184820360608601526144a88282614411565b91505060808301516144bd6080860182613e28565b5060a08301516144d060a0860182613e0f565b5060c08301516144e360c0860182613e37565b5060e08301516144f660e0860182613e37565b5061010083015161450b610100860182613e37565b508091505092915050565b6000614522838361444a565b905092915050565b6000602082019050919050565b6000614542826143d4565b61454c81856143df565b93508360208202850161455e856143f0565b8060005b8581101561459a578484038952815161457b8582614516565b94506145868361452a565b925060208a01995050600181019050614562565b50829750879550505050505092915050565b600060208201905081810360008301526145c68184614537565b905092915050565b600080fd5b7f4e487b7100000000000000000000000000000000000000000000000000000000600052604160045260246000fd5b61460b8261414e565b810181811067ffffffffffffffff8211171561462a576146296145d3565b5b80604052505050565b600061463d613d0e565b90506146498282614602565b919050565b600067ffffffffffffffff821115614669576146686145d3565b5b6146728261414e565b9050602081019050919050565b82818337600083830152505050565b60006146a161469c8461464e565b614633565b9050828152602081018484840111156146bd576146bc6145ce565b5b6146c884828561467f565b509392505050565b600082601f8301126146e5576146e4613fe6565b5b81356146f584826020860161468e565b91505092915050565b60008060006060848603121561471757614716613d18565b5b600084013567ffffffffffffffff81111561473557614734613d1d565b5b614741868287016146d0565b935050602084013567ffffffffffffffff81111561476257614761613d1d565b5b61476e868287016146d0565b925050604061477f86828701613ef7565b9150509250925092565b600067ffffffffffffffff82169050919050565b6147a681614789565b81146147b157600080fd5b50565b6000813590506147c38161479d565b92915050565b600080604083850312156147e0576147df613d18565b5b60006147ee858286016147b4565b92505060206147ff85828601613f50565b9150509250929050565b6000610120830160008301516148226000860182613e28565b5060208301516148356020860182613e0f565b5060408301516148486040860182613e0f565b50606083015161485b6060860182613e28565b50608083015184820360808601526148738282614411565b91505060a083015161488860a0860182613e28565b5060c083015161489b60c0860182613e28565b5060e08301516148ae60e0860182613e37565b506101008301516148c3610100860182613e37565b508091505092915050565b600060208201905081810360008301526148e88184614809565b905092915050565b6000819050919050565b614903816148f0565b811461490e57600080fd5b50565b600081359050614920816148fa565b92915050565b60006020828403121561493c5761493b613d18565b5b600061494a84828501614911565b91505092915050565b61495c81613da7565b811461496757600080fd5b50565b60008135905061497981614953565b92915050565b60008060006060848603121561499857614997613d18565b5b60006149a6868287016147b4565b93505060206149b786828701613f50565b92505060406149c88682870161496a565b9150509250925092565b6000819050919050565b60006149f76149f26149ed84613ddd565b6149d2565b613ddd565b9050919050565b6000614a09826149dc565b9050919050565b6000614a1b826149fe565b9050919050565b614a2b81614a10565b82525050565b6000602082019050614a466000830184614a22565b92915050565b7f556e72656769737465726564206c616e646c6f72640000000000000000000000600082015250565b6000614a82601583614113565b9150614a8d82614a4c565b602082019050919050565b60006020820190508181036000830152614ab181614a75565b9050919050565b7f4e487b7100000000000000000000000000000000000000000000000000000000600052603260045260246000fd5b7f556e726567697374657265642074656e616e7400000000000000000000000000600082015250565b6000614b1d601383614113565b9150614b2882614ae7565b602082019050919050565b60006020820190508181036000830152614b4c81614b10565b9050919050565b7f54656e616e7420556e7265676973746572656400000000000000000000000000600082015250565b6000614b89601383614113565b9150614b9482614b53565b602082019050919050565b60006020820190508181036000830152614bb881614b7c565b9050919050565b7f496e76616c69642050726f706572742049640000000000000000000000000000600082015250565b6000614bf5601283614113565b9150614c0082614bbf565b602082019050919050565b60006020820190508181036000830152614c2481614be8565b9050919050565b7f50726f7065727479206f63637570696564000000000000000000000000000000600082015250565b6000614c61601183614113565b9150614c6c82614c2b565b602082019050919050565b60006020820190508181036000830152614c9081614c54565b9050919050565b7f54616b656e000000000000000000000000000000000000000000000000000000600082015250565b6000614ccd600583614113565b9150614cd882614c97565b602082019050919050565b60006020820190508181036000830152614cfc81614cc0565b9050919050565b7f496e73756666696369656e742046756e64730000000000000000000000000000600082015250565b6000614d39601283614113565b9150614d4482614d03565b602082019050919050565b60006020820190508181036000830152614d6881614d2c565b9050919050565b7f4e6f74204c616e646c6f72640000000000000000000000000000000000000000600082015250565b6000614da5600c83614113565b9150614db082614d6f565b602082019050919050565b60006020820190508181036000830152614dd481614d98565b9050919050565b7f556e72656769737465726564204c616e646c6f72640000000000000000000000600082015250565b6000614e11601583614113565b9150614e1c82614ddb565b602082019050919050565b60006020820190508181036000830152614e4081614e04565b9050919050565b7f4e487b7100000000000000000000000000000000000000000000000000000000600052601160045260246000fd5b6000614e8182613e1e565b91507fffffffffffffffffffffffffffffffffffffffffffffffffffffffffffffffff8203614eb357614eb2614e47565b5b600182019050919050565b7f4e487b7100000000000000000000000000000000000000000000000000000000600052602260045260246000fd5b60006002820490506001821680614f0557607f821691505b602082108103614f1857614f17614ebe565b5b50919050565b6000614f2982613e1e565b9150614f3483613e1e565b9250828202614f4281613e1e565b91508282048414831517614f5957614f58614e47565b5b5092915050565b6000614f6b82613e1e565b9150614f7683613e1e565b9250828201905080821115614f8e57614f8d614e47565b5b92915050565b60008190508160005260206000209050919050565b60006020601f8301049050919050565b600082821b905092915050565b600060088302614ff67fffffffffffffffffffffffffffffffffffffffffffffffffffffffffffffffff82614fb9565b6150008683614fb9565b95508019841693508086168417925050509392505050565b600061503361502e61502984613e1e565b6149d2565b613e1e565b9050919050565b6000819050919050565b61504d83615018565b6150616150598261503a565b848454614fc6565b825550505050565b600090565b615076615069565b615081818484615044565b505050565b5b818110156150a55761509a60008261506e565b600181019050615087565b5050565b601f8211156150ea576150bb81614f94565b6150c484614fa9565b810160208510156150d3578190505b6150e76150df85614fa9565b830182615086565b50505b505050565b600082821c905092915050565b600061510d600019846008026150ef565b1980831691505092915050565b600061512683836150fc565b9150826002028217905092915050565b61513f82614108565b67ffffffffffffffff811115615158576151576145d3565b5b6151628254614eed565b61516d8282856150a9565b600060209050601f8311600181146151a0576000841561518e578287015190505b615198858261511a565b865550615200565b601f1984166151ae86614f94565b60005b828110156151d6578489015182556001820191506020850194506020810190506151b1565b868310156151f357848901516151ef601f8916826150fc565b8355505b6001600288020188555050505b505050505050565b600061521382613e1e565b915061521e83613e1e565b925082820390508181111561523657615235614e47565b5b92915050565b7f4e6f2076616c69642070726f7065727479207265717565737420666f756e6400600082015250565b6000615272601f83614113565b915061527d8261523c565b602082019050919050565b600060208201905081810360008301526152a181615265565b9050919050565b7f496e76616c696420616d6f756e74000000000000000000000000000000000000600082015250565b60006152de600e83614113565b91506152e9826152a8565b602082019050919050565b6000602082019050818103600083015261530d816152d1565b9050919050565b7f696e73756666696369656e742066756e64732000000000000000000000000000600082015250565b600061534a601383614113565b915061535582615314565b602082019050919050565b600060208201905081810360008301526153798161533d565b9050919050565b7f696e73756666696369656e742066756e64730000000000000000000000000000600082015250565b60006153b6601283614113565b91506153c182615380565b602082019050919050565b600060208201905081810360008301526153e5816153a9565b9050919050565b7f4e6f742072656769737465726564000000000000000000000000000000000000600082015250565b6000615422600e83614113565b915061542d826153ec565b602082019050919050565b6000602082019050818103600083015261545181615415565b9050919050565b600081905092915050565b50565b6000615473600083615458565b915061547e82615463565b600082019050919050565b600061549482615466565b9150819050919050565b7f5769746864726177206661696c65640000000000000000000000000000000000600082015250565b60006154d4600f83614113565b91506154df8261549e565b602082019050919050565b60006020820190508181036000830152615503816154c7565b9050919050565b7f4c616e646c6f7264207265676973746572656400000000000000000000000000600082015250565b6000615540601383614113565b915061554b8261550a565b602082019050919050565b6000602082019050818103600083015261556f81615533565b9050919050565b60006155828385615458565b935061558f83858461467f565b82840190509392505050565b60006155a8828486615576565b91508190509392505050565b7f556e6b6e6f776e2075706b65657020616374696f6e0000000000000000000000600082015250565b60006155ea601583614113565b91506155f5826155b4565b602082019050919050565b60006020820190508181036000830152615619816155dd565b9050919050565b7f54656e616e742072656769737465726564000000000000000000000000000000600082015250565b6000615656601183614113565b915061566182615620565b602082019050919050565b6000602082019050818103600083015261568581615649565b9050919050565b7f74696d656f757400000000000000000000000000000000000000000000000000600082015250565b60006156c2600783614113565b91506156cd8261568c565b602082019050919050565b600060208201905081810360008301526156f1816156b5565b9050919050565b7f7061796d656e7400000000000000000000000000000000000000000000000000600082015250565b600061572e600783614113565b9150615739826156f8565b602082019050919050565b6000602082019050818103600083015261575d81615721565b9050919050565b600080fd5b600080fd5b600067ffffffffffffffff821115615789576157886145d3565b5b6157928261414e565b9050602081019050919050565b60006157b26157ad8461576e565b614633565b9050828152602081018484840111156157ce576157cd6145ce565b5b6157d984828561467f565b509392505050565b600082601f8301126157f6576157f5613fe6565b5b813561580684826020860161579f565b91505092915050565b600067ffffffffffffffff82111561582a576158296145d3565b5b602082029050602081019050919050565b60006040828403121561585157615850615764565b5b61585b6040614633565b9050600061586b84828501613f50565b600083015250602061587f84828501613ef7565b60208301525092915050565b600061589e6158998461580f565b614633565b905080838252602082019050604084028301858111156158c1576158c0613ff0565b5b835b818110156158ea57806158d6888261583b565b8452602084019350506040810190506158c3565b5050509392505050565b600082601f83011261590957615908613fe6565b5b813561591984826020860161588b565b91505092915050565b600060a0828403121561593857615937615764565b5b61594260a0614633565b9050600061595284828501614911565b6000830152506020615966848285016147b4565b602083015250604082013567ffffffffffffffff81111561598a57615989615769565b5b615996848285016157e1565b604083015250606082013567ffffffffffffffff8111156159ba576159b9615769565b5b6159c6848285016157e1565b606083015250608082013567ffffffffffffffff8111156159ea576159e9615769565b5b6159f6848285016158f4565b60808301525092915050565b6000615a0e3683615922565b9050919050565b60008160601b9050919050565b6000615a2d82615a15565b9050919050565b6000615a3f82615a22565b9050919050565b615a57615a5282613dfd565b615a34565b82525050565b600081905092915050565b6000615a7382614108565b615a7d8185615a5d565b9350615a8d818560208601614124565b80840191505092915050565b6000819050919050565b615ab4615aaf82613e1e565b615a99565b82525050565b6000615ac68286615a46565b601482019150615ad68285615a68565b9150615ae28284615aa3565b602082019150819050949350505050565b7f50726f7065727479207265676973746572656400000000000000000000000000600082015250565b6000615b29601383614113565b9150615b3482615af3565b602082019050919050565b60006020820190508181036000830152615b5881615b1c565b9050919050565b7f496e76616c696420496e70757400000000000000000000000000000000000000600082015250565b6000615b95600d83614113565b9150615ba082615b5f565b602082019050919050565b60006020820190508181036000830152615bc481615b88565b9050919050565b600081519050615bda81613f39565b92915050565b600081519050615bef81613ee0565b92915050565b600081519050615c0481614953565b92915050565b600060808284031215615c2057615c1f615764565b5b615c2a6080614633565b90506000615c3a84828501615bcb565b6000830152506020615c4e84828501615be0565b6020830152506040615c6284828501615be0565b6040830152506060615c7684828501615bf5565b60608301525092915050565b600060808284031215615c9857615c97613d18565b5b6000615ca684828501615c0a565b91505092915050565b6000615cba82613ddd565b9050919050565b615cca81615caf565b8114615cd557600080fd5b50565b600081519050615ce781615cc1565b92915050565b600060208284031215615d0357615d02613d18565b5b6000615d1184828501615cd8565b91505092915050565b7f556e617574686f72697a65642073656e64657200000000000000000000000000600082015250565b6000615d50601383614113565b9150615d5b82615d1a565b602082019050919050565b60006020820190508181036000830152615d7f81615d43565b9050919050565b7f496e76616c69642070726f706572747900000000000000000000000000000000600082015250565b6000615dbc601083614113565b9150615dc782615d86565b602082019050919050565b60006020820190508181036000830152615deb81615daf565b9050919050565b7f416c7265616479206f6363757069656400000000000000000000000000000000600082015250565b6000615e28601083614113565b9150615e3382615df2565b602082019050919050565b60006020820190508181036000830152615e5781615e1b565b9050919050565b7f416c726561647920726571756573746564000000000000000000000000000000600082015250565b6000615e94601183614113565b9150615e9f82615e5e565b602082019050919050565b60006020820190508181036000830152615ec381615e87565b9050919050565b6000604082019050615edf6000830185613eb6565b615eec6020830184613db3565b939250505056fea2646970667358221220b2d8183176f169bfdfc8d2d93174979f2a34bc17454aa0776e85772be389491764736f6c634300081c0033",
  "linkReferences": {},
  "deployedLinkReferences": {}
}