{
  "_format": "hh-sol-artifact-1",
  "contractName": "ImmovableRental",
  "sourceName": "contracts/ImmovableRental.sol",
  "abi": [
    {
      "inputs": [
        {
          "internalType": "address",
          "name": "_router",
          "type": "address"
        }
      ],
      "stateMutability": "nonpayable",
      "type": "constructor"
    },
    {
      "inputs": [
        {
          "internalType": "address",
          "name": "router",
          "type": "address"
        }
      ],
      "name": "InvalidRouter",
      "type": "error"
    },
    {
      "inputs": [],
      "name": "ReentrancyGuardReentrantCall",
      "type": "error"
    },
    {
      "anonymous": false,
      "inputs": [
        {
          "indexed": true,
          "internalType": "address",
          "name": "tenant",
          "type": "address"
        },
        {
          "indexed": true,
          "internalType": "uint256",
          "name": "propertyId",
          "type": "uint256"
        },
        {
          "indexed": false,
          "internalType": "uint256",
          "name": "rentAmount",
          "type": "uint256"
        },
        {
          "indexed": false,
          "internalType": "bool",
          "name": "autoRequest",
          "type": "bool"
        }
      ],
      "name": "CrossRentReceived",
      "type": "event"
    },
    {
      "anonymous": false,
      "inputs": [
        {
          "indexed": true,
          "internalType": "address",
          "name": "landlord",
          "type": "address"
        },
        {
          "indexed": false,
          "internalType": "bool",
          "name": "isRegistered",
          "type": "bool"
        }
      ],
      "name": "LandlordRegistered",
      "type": "event"
    },
    {
      "anonymous": false,
      "inputs": [
        {
          "indexed": true,
          "internalType": "address",
          "name": "landlord",
          "type": "address"
        },
        {
          "indexed": false,
          "internalType": "bool",
          "name": "isRegistered",
          "type": "bool"
        }
      ],
      "name": "PropertyRegistered",
      "type": "event"
    },
    {
      "anonymous": false,
      "inputs": [
        {
          "indexed": true,
          "internalType": "address",
          "name": "tenant",
          "type": "address"
        },
        {
          "indexed": false,
          "internalType": "uint256",
          "name": "propertyId",
          "type": "uint256"
        }
      ],
      "name": "PropertyRequested",
      "type": "event"
    },
    {
      "anonymous": false,
      "inputs": [
        {
          "indexed": true,
          "internalType": "address",
          "name": "landlord",
          "type": "address"
        },
        {
          "indexed": true,
          "internalType": "address",
          "name": "tenant",
          "type": "address"
        },
        {
          "indexed": false,
          "internalType": "uint256",
          "name": "amount",
          "type": "uint256"
        }
      ],
      "name": "RentPaid",
      "type": "event"
    },
    {
      "anonymous": false,
      "inputs": [
        {
          "indexed": true,
          "internalType": "address",
          "name": "tenant",
          "type": "address"
        },
        {
          "indexed": false,
          "internalType": "bool",
          "name": "isRegistered",
          "type": "bool"
        }
      ],
      "name": "TenantRegistered",
      "type": "event"
    },
    {
      "inputs": [
        {
          "internalType": "uint64",
          "name": "",
          "type": "uint64"
        },
        {
          "internalType": "address",
          "name": "",
          "type": "address"
        }
      ],
      "name": "allowedSenderPerChain",
      "outputs": [
        {
          "internalType": "bool",
          "name": "",
          "type": "bool"
        }
      ],
      "stateMutability": "view",
      "type": "function"
    },
    {
      "inputs": [],
      "name": "autoRentalPayment",
      "outputs": [],
      "stateMutability": "nonpayable",
      "type": "function"
    },
    {
      "inputs": [
        {
          "components": [
            {
              "internalType": "bytes32",
              "name": "messageId",
              "type": "bytes32"
            },
            {
              "internalType": "uint64",
              "name": "sourceChainSelector",
              "type": "uint64"
            },
            {
              "internalType": "bytes",
              "name": "sender",
              "type": "bytes"
            },
            {
              "internalType": "bytes",
              "name": "data",
              "type": "bytes"
            },
            {
              "components": [
                {
                  "internalType": "address",
                  "name": "token",
                  "type": "address"
                },
                {
                  "internalType": "uint256",
                  "name": "amount",
                  "type": "uint256"
                }
              ],
              "internalType": "struct Client.EVMTokenAmount[]",
              "name": "destTokenAmounts",
              "type": "tuple[]"
            }
          ],
          "internalType": "struct Client.Any2EVMMessage",
          "name": "message",
          "type": "tuple"
        }
      ],
      "name": "ccipReceive",
      "outputs": [],
      "stateMutability": "nonpayable",
      "type": "function"
    },
    {
      "inputs": [],
      "name": "checkAllTimeouts",
      "outputs": [],
      "stateMutability": "nonpayable",
      "type": "function"
    },
    {
      "inputs": [
        {
          "internalType": "bytes",
          "name": "",
          "type": "bytes"
        }
      ],
      "name": "checkUpkeep",
      "outputs": [
        {
          "internalType": "bool",
          "name": "upkeepNeeded",
          "type": "bool"
        },
        {
          "internalType": "bytes",
          "name": "performData",
          "type": "bytes"
        }
      ],
      "stateMutability": "view",
      "type": "function"
    },
    {
      "inputs": [],
      "name": "getRouter",
      "outputs": [
        {
          "internalType": "address",
          "name": "",
          "type": "address"
        }
      ],
      "stateMutability": "view",
      "type": "function"
    },
    {
      "inputs": [],
      "name": "indexedProperty",
      "outputs": [
        {
          "internalType": "uint256",
          "name": "",
          "type": "uint256"
        }
      ],
      "stateMutability": "view",
      "type": "function"
    },
    {
      "inputs": [],
      "name": "indexedRental",
      "outputs": [
        {
          "internalType": "uint256",
          "name": "",
          "type": "uint256"
        }
      ],
      "stateMutability": "view",
      "type": "function"
    },
    {
      "inputs": [
        {
          "internalType": "bytes32",
          "name": "",
          "type": "bytes32"
        }
      ],
      "name": "isPropertyRegistered",
      "outputs": [
        {
          "internalType": "bool",
          "name": "",
          "type": "bool"
        }
      ],
      "stateMutability": "view",
      "type": "function"
    },
    {
      "inputs": [
        {
          "internalType": "address",
          "name": "",
          "type": "address"
        }
      ],
      "name": "landlordProfile",
      "outputs": [
        {
          "internalType": "address",
          "name": "user",
          "type": "address"
        },
        {
          "internalType": "uint256",
          "name": "balance",
          "type": "uint256"
        },
        {
          "internalType": "bool",
          "name": "isRegistered",
          "type": "bool"
        },
        {
          "internalType": "bool",
          "name": "hasProperties",
          "type": "bool"
        }
      ],
      "stateMutability": "view",
      "type": "function"
    },
    {
      "inputs": [
        {
          "internalType": "uint256",
          "name": "",
          "type": "uint256"
        }
      ],
      "name": "listedProperties",
      "outputs": [
        {
          "internalType": "uint256",
          "name": "propertyId",
          "type": "uint256"
        },
        {
          "internalType": "address",
          "name": "landlord",
          "type": "address"
        },
        {
          "internalType": "string",
          "name": "location",
          "type": "string"
        },
        {
          "internalType": "uint256",
          "name": "rentAmount",
          "type": "uint256"
        },
        {
          "internalType": "address",
          "name": "requestedBy",
          "type": "address"
        },
        {
          "internalType": "bool",
          "name": "isOccupied",
          "type": "bool"
        },
        {
          "internalType": "bool",
          "name": "tenantRequest",
          "type": "bool"
        },
        {
          "internalType": "bool",
          "name": "stillOwned",
          "type": "bool"
        },
        {
          "internalType": "bool",
          "name": "isRegistered",
          "type": "bool"
        }
      ],
      "stateMutability": "view",
      "type": "function"
    },
    {
      "inputs": [],
      "name": "owner",
      "outputs": [
        {
          "internalType": "address",
          "name": "",
          "type": "address"
        }
      ],
      "stateMutability": "view",
      "type": "function"
    },
    {
      "inputs": [
        {
          "internalType": "bytes",
          "name": "performData",
          "type": "bytes"
        }
      ],
      "name": "performUpkeep",
      "outputs": [],
      "stateMutability": "nonpayable",
      "type": "function"
    },
    {
      "inputs": [
        {
          "internalType": "uint256",
          "name": "_propertyId",
          "type": "uint256"
        }
      ],
      "name": "propertyRentRequest",
      "outputs": [],
      "stateMutability": "nonpayable",
      "type": "function"
    },
    {
      "inputs": [],
      "name": "registerLandLord",
      "outputs": [],
      "stateMutability": "nonpayable",
      "type": "function"
    },
    {
      "inputs": [
        {
          "internalType": "string",
          "name": "_location",
          "type": "string"
        },
        {
          "internalType": "uint256",
          "name": "_amount",
          "type": "uint256"
        }
      ],
      "name": "registerProperties",
      "outputs": [],
      "stateMutability": "nonpayable",
      "type": "function"
    },
    {
      "inputs": [
        {
          "internalType": "address",
          "name": "_tenant",
          "type": "address"
        }
      ],
      "name": "registerRental",
      "outputs": [],
      "stateMutability": "nonpayable",
      "type": "function"
    },
    {
      "inputs": [],
      "name": "registerTenant",
      "outputs": [],
      "stateMutability": "nonpayable",
      "type": "function"
    },
    {
      "inputs": [
        {
          "internalType": "address",
          "name": "",
          "type": "address"
        }
      ],
      "name": "rental",
      "outputs": [
        {
          "internalType": "uint256",
          "name": "rentalId",
          "type": "uint256"
        },
        {
          "internalType": "address",
          "name": "landlord",
          "type": "address"
        },
        {
          "internalType": "address",
          "name": "tenant",
          "type": "address"
        },
        {
          "internalType": "uint256",
          "name": "startDate",
          "type": "uint256"
        },
        {
          "internalType": "uint256",
          "name": "endDate",
          "type": "uint256"
        },
        {
          "internalType": "bool",
          "name": "isSigned",
          "type": "bool"
        },
        {
          "internalType": "bool",
          "name": "isReleased",
          "type": "bool"
        }
      ],
      "stateMutability": "view",
      "type": "function"
    },
    {
      "inputs": [],
      "name": "returnAllProperties",
      "outputs": [
        {
          "components": [
            {
              "internalType": "uint256",
              "name": "propertyId",
              "type": "uint256"
            },
            {
              "internalType": "address",
              "name": "landlord",
              "type": "address"
            },
            {
              "internalType": "string",
              "name": "location",
              "type": "string"
            },
            {
              "internalType": "uint256",
              "name": "rentAmount",
              "type": "uint256"
            },
            {
              "internalType": "address",
              "name": "requestedBy",
              "type": "address"
            },
            {
              "internalType": "bool",
              "name": "isOccupied",
              "type": "bool"
            },
            {
              "internalType": "bool",
              "name": "tenantRequest",
              "type": "bool"
            },
            {
              "internalType": "bool",
              "name": "stillOwned",
              "type": "bool"
            },
            {
              "internalType": "bool",
              "name": "isRegistered",
              "type": "bool"
            }
          ],
          "internalType": "struct ImmovableRental.Properties[]",
          "name": "",
          "type": "tuple[]"
        }
      ],
      "stateMutability": "view",
      "type": "function"
    },
    {
      "inputs": [],
      "name": "returnLandlordProfile",
      "outputs": [
        {
          "components": [
            {
              "internalType": "address",
              "name": "user",
              "type": "address"
            },
            {
              "internalType": "uint256",
              "name": "balance",
              "type": "uint256"
            },
            {
              "internalType": "bool",
              "name": "isRegistered",
              "type": "bool"
            },
            {
              "internalType": "bool",
              "name": "hasProperties",
              "type": "bool"
            }
          ],
          "internalType": "struct ImmovableRental.Landlord",
          "name": "",
          "type": "tuple"
        }
      ],
      "stateMutability": "view",
      "type": "function"
    },
    {
      "inputs": [],
      "name": "returnRental",
      "outputs": [
        {
          "components": [
            {
              "internalType": "uint256",
              "name": "rentalId",
              "type": "uint256"
            },
            {
              "internalType": "address",
              "name": "landlord",
              "type": "address"
            },
            {
              "internalType": "address",
              "name": "tenant",
              "type": "address"
            },
            {
              "internalType": "uint256",
              "name": "startDate",
              "type": "uint256"
            },
            {
              "internalType": "uint256",
              "name": "endDate",
              "type": "uint256"
            },
            {
              "internalType": "bool",
              "name": "isSigned",
              "type": "bool"
            },
            {
              "internalType": "bool",
              "name": "isReleased",
              "type": "bool"
            }
          ],
          "internalType": "struct ImmovableRental.Rental",
          "name": "",
          "type": "tuple"
        }
      ],
      "stateMutability": "view",
      "type": "function"
    },
    {
      "inputs": [],
      "name": "returnTenantProfiles",
      "outputs": [
        {
          "components": [
            {
              "internalType": "address",
              "name": "user",
              "type": "address"
            },
            {
              "internalType": "uint256",
              "name": "balance",
              "type": "uint256"
            },
            {
              "internalType": "bool",
              "name": "hasActiveRent",
              "type": "bool"
            },
            {
              "internalType": "bool",
              "name": "isRegistered",
              "type": "bool"
            }
          ],
          "internalType": "struct ImmovableRental.Tenant",
          "name": "",
          "type": "tuple"
        }
      ],
      "stateMutability": "view",
      "type": "function"
    },
    {
      "inputs": [],
      "name": "router",
      "outputs": [
        {
          "internalType": "contract IRouterClient",
          "name": "",
          "type": "address"
        }
      ],
      "stateMutability": "view",
      "type": "function"
    },
    {
      "inputs": [
        {
          "internalType": "uint64",
          "name": "_chainSelector",
          "type": "uint64"
        },
        {
          "internalType": "address",
          "name": "_sender",
          "type": "address"
        },
        {
          "internalType": "bool",
          "name": "allowed",
          "type": "bool"
        }
      ],
      "name": "setSender",
      "outputs": [],
      "stateMutability": "nonpayable",
      "type": "function"
    },
    {
      "inputs": [
        {
          "internalType": "uint256",
          "name": "_durtionInDays",
          "type": "uint256"
        }
      ],
      "name": "signRental",
      "outputs": [],
      "stateMutability": "nonpayable",
      "type": "function"
    },
    {
      "inputs": [
        {
          "internalType": "bytes4",
          "name": "interfaceId",
          "type": "bytes4"
        }
      ],
      "name": "supportsInterface",
      "outputs": [
        {
          "internalType": "bool",
          "name": "",
          "type": "bool"
        }
      ],
      "stateMutability": "view",
      "type": "function"
    },
    {
      "inputs": [
        {
          "internalType": "address",
          "name": "",
          "type": "address"
        }
      ],
      "name": "tenant",
      "outputs": [
        {
          "internalType": "address",
          "name": "user",
          "type": "address"
        },
        {
          "internalType": "uint256",
          "name": "balance",
          "type": "uint256"
        },
        {
          "internalType": "bool",
          "name": "hasActiveRent",
          "type": "bool"
        },
        {
          "internalType": "bool",
          "name": "isRegistered",
          "type": "bool"
        }
      ],
      "stateMutability": "view",
      "type": "function"
    },
    {
      "inputs": [],
      "name": "tenantDeposit",
      "outputs": [],
      "stateMutability": "payable",
      "type": "function"
    },
    {
      "inputs": [
        {
          "internalType": "uint256",
          "name": "_amount",
          "type": "uint256"
        }
      ],
      "name": "userWithdraw",
      "outputs": [],
      "stateMutability": "nonpayable",
      "type": "function"
    },
    {
      "stateMutability": "payable",
      "type": "receive"
    }
  ],
  "bytecode": "0x60a060405234801561001057600080fd5b506040516161b73803806161b7833981810160405281019061003291906101cd565b80600073ffffffffffffffffffffffffffffffffffffffff168173ffffffffffffffffffffffffffffffffffffffff16036100a55760006040517fd7f7333400000000000000000000000000000000000000000000000000000000815260040161009c9190610209565b60405180910390fd5b8073ffffffffffffffffffffffffffffffffffffffff1660808173ffffffffffffffffffffffffffffffffffffffff168152505050600160008190555080600160006101000a81548173ffffffffffffffffffffffffffffffffffffffff021916908373ffffffffffffffffffffffffffffffffffffffff16021790555033600960006101000a81548173ffffffffffffffffffffffffffffffffffffffff021916908373ffffffffffffffffffffffffffffffffffffffff16021790555050610224565b600080fd5b600073ffffffffffffffffffffffffffffffffffffffff82169050919050565b600061019a8261016f565b9050919050565b6101aa8161018f565b81146101b557600080fd5b50565b6000815190506101c7816101a1565b92915050565b6000602082840312156101e3576101e261016a565b5b60006101f1848285016101b8565b91505092915050565b6102038161018f565b82525050565b600060208201905061021e60008301846101fa565b92915050565b608051615f7861023f60003960006134970152615f786000f3fe6080604052600436106101d15760003560e01c80636e04ff0d116100f7578063ae26df9b11610095578063e28d138411610064578063e28d13841461064c578063e43d6c6514610675578063f887ea40146106a0578063f9015a7d146106cb576101d8565b8063ae26df9b1461057c578063b0f479a1146105b9578063d1c13abd146105e4578063d6ab0cd31461060f576101d8565b80638c7929f5116100d15780638c7929f5146104d75780638da5cb5b1461051c5780639465446914610547578063a75e69fa14610572576101d8565b80636e04ff0d14610447578063781146c51461048557806385572ffb146104ae576101d8565b80633b9056bf1161016f578063495a54141161013e578063495a5414146103ab5780634bd910c6146103d65780634e843737146103ed5780634eea269014610430576101d8565b80633b9056bf146103025780633d65e5731461032b57806344841f091461036b5780634585e33b14610382576101d8565b806305faf9c3116101ab57806305faf9c31461026e57806307e1a4d71461029957806321344a54146102b0578063286d1909146102d9576101d8565b806301ffc9a7146101dd5780630334b4801461021a5780630504af9c14610245576101d8565b366101d857005b600080fd5b3480156101e957600080fd5b5061020460048036038101906101ff9190613d6b565b61070b565b6040516102119190613db3565b60405180910390f35b34801561022657600080fd5b5061022f6107dd565b60405161023c9190613e8c565b60405180910390f35b34801561025157600080fd5b5061026c60048036038101906102679190613ed3565b610959565b005b34801561027a57600080fd5b50610283610d89565b6040516102909190613f0f565b60405180910390f35b3480156102a557600080fd5b506102ae610d8f565b005b3480156102bc57600080fd5b506102d760048036038101906102d29190613f56565b611012565b005b3480156102e557600080fd5b5061030060048036038101906102fb9190613f56565b6113bd565b005b34801561030e57600080fd5b5061032960048036038101906103249190613f56565b611879565b005b34801561033757600080fd5b50610352600480360381019061034d9190613ed3565b611c28565b6040516103629493929190613f92565b60405180910390f35b34801561037757600080fd5b50610380611c92565b005b34801561038e57600080fd5b506103a960048036038101906103a4919061403c565b611e84565b005b3480156103b757600080fd5b506103c0611f92565b6040516103cd91906140de565b60405180910390f35b3480156103e257600080fd5b506103eb61210e565b005b3480156103f957600080fd5b50610414600480360381019061040f9190613ed3565b612472565b60405161042797969594939291906140f9565b60405180910390f35b34801561043c57600080fd5b5061044561250e565b005b34801561045357600080fd5b5061046e6004803603810190610469919061403c565b612790565b60405161047c9291906141f8565b60405180910390f35b34801561049157600080fd5b506104ac60048036038101906104a79190614358565b6129c9565b005b3480156104ba57600080fd5b506104d560048036038101906104d091906143d8565b612e2d565b005b3480156104e357600080fd5b506104fe60048036038101906104f99190613f56565b612eb9565b60405161051399989796959493929190614476565b60405180910390f35b34801561052857600080fd5b50610531613013565b60405161053e919061450a565b60405180910390f35b34801561055357600080fd5b5061055c613039565b60405161056991906146f6565b60405180910390f35b61057a613257565b005b34801561058857600080fd5b506105a3600480360381019061059e9190614758565b613464565b6040516105b09190613db3565b60405180910390f35b3480156105c557600080fd5b506105ce613493565b6040516105db919061450a565b60405180910390f35b3480156105f057600080fd5b506105f96134bb565b6040516106069190614826565b60405180910390f35b34801561061b57600080fd5b5061063660048036038101906106319190614877565b613612565b6040516106439190613db3565b60405180910390f35b34801561065857600080fd5b50610673600480360381019061066e91906148d0565b613632565b005b34801561068157600080fd5b5061068a613743565b6040516106979190613f0f565b60405180910390f35b3480156106ac57600080fd5b506106b5613749565b6040516106c29190614982565b60405180910390f35b3480156106d757600080fd5b506106f260048036038101906106ed9190613ed3565b61376f565b6040516107029493929190613f92565b60405180910390f35b60007f85572ffb000000000000000000000000000000000000000000000000000000007bffffffffffffffffffffffffffffffffffffffffffffffffffffffff1916827bffffffffffffffffffffffffffffffffffffffffffffffffffffffff191614806107d657507f01ffc9a7000000000000000000000000000000000000000000000000000000007bffffffffffffffffffffffffffffffffffffffffffffffffffffffff1916827bffffffffffffffffffffffffffffffffffffffffffffffffffffffff1916145b9050919050565b6107e5613c0e565b600660003373ffffffffffffffffffffffffffffffffffffffff1673ffffffffffffffffffffffffffffffffffffffff16815260200190815260200160002060020160009054906101000a900460ff16610874576040517f08c379a000000000000000000000000000000000000000000000000000000000815260040161086b906149e9565b60405180910390fd5b600660003373ffffffffffffffffffffffffffffffffffffffff1673ffffffffffffffffffffffffffffffffffffffff1681526020019081526020016000206040518060800160405290816000820160009054906101000a900473ffffffffffffffffffffffffffffffffffffffff1673ffffffffffffffffffffffffffffffffffffffff1673ffffffffffffffffffffffffffffffffffffffff168152602001600182015481526020016002820160009054906101000a900460ff161515151581526020016002820160019054906101000a900460ff161515151581525050905090565b3373ffffffffffffffffffffffffffffffffffffffff16600660003373ffffffffffffffffffffffffffffffffffffffff1673ffffffffffffffffffffffffffffffffffffffff16815260200190815260200160002060000160009054906101000a900473ffffffffffffffffffffffffffffffffffffffff1673ffffffffffffffffffffffffffffffffffffffff1614610a29576040517f08c379a0000000000000000000000000000000000000000000000000000000008152600401610a2090614a55565b60405180910390fd5b600760003373ffffffffffffffffffffffffffffffffffffffff1673ffffffffffffffffffffffffffffffffffffffff16815260200190815260200160002060050160009054906101000a900460ff1615610ab9576040517f08c379a0000000000000000000000000000000000000000000000000000000008152600401610ab090614ac1565b60405180910390fd5b600660003373ffffffffffffffffffffffffffffffffffffffff1673ffffffffffffffffffffffffffffffffffffffff16815260200190815260200160002060020160009054906101000a900460ff16610b48576040517f08c379a0000000000000000000000000000000000000000000000000000000008152600401610b3f90614b2d565b60405180910390fd5b600260008273ffffffffffffffffffffffffffffffffffffffff1673ffffffffffffffffffffffffffffffffffffffff16815260200190815260200160002060020160019054906101000a900460ff16610bd7576040517f08c379a0000000000000000000000000000000000000000000000000000000008152600401610bce90614b99565b60405180910390fd5b6040518060e0016040528060085481526020013373ffffffffffffffffffffffffffffffffffffffff1681526020018273ffffffffffffffffffffffffffffffffffffffff168152602001600081526020016000815260200160001515815260200160011515815250600760003373ffffffffffffffffffffffffffffffffffffffff1673ffffffffffffffffffffffffffffffffffffffff1681526020019081526020016000206000820151816000015560208201518160010160006101000a81548173ffffffffffffffffffffffffffffffffffffffff021916908373ffffffffffffffffffffffffffffffffffffffff16021790555060408201518160020160006101000a81548173ffffffffffffffffffffffffffffffffffffffff021916908373ffffffffffffffffffffffffffffffffffffffff160217905550606082015181600301556080820151816004015560a08201518160050160006101000a81548160ff02191690831515021790555060c08201518160050160016101000a81548160ff02191690831515021790555090505060086000815480929190610d8190614be8565b919050555050565b60085481565b60005b60048054905081101561100f57600060048281548110610db557610db4614c30565b5b9060005260206000209060050201905060008160010160009054906101000a900473ffffffffffffffffffffffffffffffffffffffff1690506000600760008373ffffffffffffffffffffffffffffffffffffffff1673ffffffffffffffffffffffffffffffffffffffff168152602001908152602001600020905060008160020160009054906101000a900473ffffffffffffffffffffffffffffffffffffffff1690508160050160009054906101000a900460ff168015610e8757508160050160019054906101000a900460ff16155b8015610e97575081600401544210155b15610ffe5760018260050160016101000a81548160ff02191690831515021790555060008260050160006101000a81548160ff02191690831515021790555060008260020160006101000a81548173ffffffffffffffffffffffffffffffffffffffff021916908373ffffffffffffffffffffffffffffffffffffffff1602179055506000826003018190555060008460040160146101000a81548160ff02191690831515021790555060008460040160156101000a81548160ff02191690831515021790555060008460040160006101000a81548173ffffffffffffffffffffffffffffffffffffffff021916908373ffffffffffffffffffffffffffffffffffffffff1602179055506000600260008373ffffffffffffffffffffffffffffffffffffffff1673ffffffffffffffffffffffffffffffffffffffff16815260200190815260200160002060020160006101000a81548160ff0219169083151502179055505b505050508080600101915050610d92565b50565b3373ffffffffffffffffffffffffffffffffffffffff16600260003373ffffffffffffffffffffffffffffffffffffffff1673ffffffffffffffffffffffffffffffffffffffff16815260200190815260200160002060000160009054906101000a900473ffffffffffffffffffffffffffffffffffffffff1673ffffffffffffffffffffffffffffffffffffffff16146110e2576040517f08c379a00000000000000000000000000000000000000000000000000000000081526004016110d990614b99565b60405180910390fd5b600260003373ffffffffffffffffffffffffffffffffffffffff1673ffffffffffffffffffffffffffffffffffffffff16815260200190815260200160002060020160019054906101000a900460ff16611171576040517f08c379a000000000000000000000000000000000000000000000000000000000815260040161116890614cab565b60405180910390fd5b60048054905081106111b8576040517f08c379a00000000000000000000000000000000000000000000000000000000081526004016111af90614d17565b60405180910390fd5b6000600482815481106111ce576111cd614c30565b5b906000526020600020906005020190508060040160149054906101000a900460ff1615611230576040517f08c379a000000000000000000000000000000000000000000000000000000000815260040161122790614d83565b60405180910390fd5b8060040160159054906101000a900460ff1615611282576040517f08c379a000000000000000000000000000000000000000000000000000000000815260040161127990614def565b60405180910390fd5b8060030154600260003373ffffffffffffffffffffffffffffffffffffffff1673ffffffffffffffffffffffffffffffffffffffff16815260200190815260200160002060010154101561130b576040517f08c379a000000000000000000000000000000000000000000000000000000000815260040161130290614e81565b60405180910390fd5b60018160040160156101000a81548160ff021916908315150217905550338160040160006101000a81548173ffffffffffffffffffffffffffffffffffffffff021916908373ffffffffffffffffffffffffffffffffffffffff1602179055503373ffffffffffffffffffffffffffffffffffffffff167f507ad3b72a7c833c6328998745bb0750f24e40406335735e1268db7febcbd4b3836040516113b19190613f0f565b60405180910390a25050565b3373ffffffffffffffffffffffffffffffffffffffff16600660003373ffffffffffffffffffffffffffffffffffffffff1673ffffffffffffffffffffffffffffffffffffffff16815260200190815260200160002060000160009054906101000a900473ffffffffffffffffffffffffffffffffffffffff1673ffffffffffffffffffffffffffffffffffffffff161461148d576040517f08c379a000000000000000000000000000000000000000000000000000000000815260040161148490614a55565b60405180910390fd5b6000600760003373ffffffffffffffffffffffffffffffffffffffff1673ffffffffffffffffffffffffffffffffffffffff16815260200190815260200160002090508060050160009054906101000a900460ff1615611522576040517f08c379a000000000000000000000000000000000000000000000000000000000815260040161151990614eed565b60405180910390fd5b600260008260020160009054906101000a900473ffffffffffffffffffffffffffffffffffffffff1673ffffffffffffffffffffffffffffffffffffffff1673ffffffffffffffffffffffffffffffffffffffff16815260200190815260200160002060020160019054906101000a900460ff166115d5576040517f08c379a00000000000000000000000000000000000000000000000000000000081526004016115cc90614b99565b60405180910390fd5b60018160050160006101000a81548160ff021916908315150217905550428160030181905550620151808261160a9190614f0d565b426116159190614f4f565b816004018190555060008160050160016101000a81548160ff02191690831515021790555060005b6004805490508110156117f5573373ffffffffffffffffffffffffffffffffffffffff166004828154811061167557611674614c30565b5b906000526020600020906005020160010160009054906101000a900473ffffffffffffffffffffffffffffffffffffffff1673ffffffffffffffffffffffffffffffffffffffff1614801561175e57508160020160009054906101000a900473ffffffffffffffffffffffffffffffffffffffff1673ffffffffffffffffffffffffffffffffffffffff166004828154811061171457611713614c30565b5b906000526020600020906005020160040160009054906101000a900473ffffffffffffffffffffffffffffffffffffffff1673ffffffffffffffffffffffffffffffffffffffff16145b80156117a05750600115156004828154811061177d5761177c614c30565b5b906000526020600020906005020160040160159054906101000a900460ff161515145b156117e8576001600482815481106117bb576117ba614c30565b5b906000526020600020906005020160040160146101000a81548160ff0219169083151502179055506117f5565b808060010191505061163d565b506001600260008360020160009054906101000a900473ffffffffffffffffffffffffffffffffffffffff1673ffffffffffffffffffffffffffffffffffffffff1673ffffffffffffffffffffffffffffffffffffffff16815260200190815260200160002060020160006101000a81548160ff0219169083151502179055505050565b6118816137d9565b600081116118c4576040517f08c379a00000000000000000000000000000000000000000000000000000000081526004016118bb90614fcf565b60405180910390fd5b600260003373ffffffffffffffffffffffffffffffffffffffff1673ffffffffffffffffffffffffffffffffffffffff16815260200190815260200160002060020160019054906101000a900460ff16156119fc5780600260003373ffffffffffffffffffffffffffffffffffffffff1673ffffffffffffffffffffffffffffffffffffffff16815260200190815260200160002060010154101561199e576040517f08c379a00000000000000000000000000000000000000000000000000000000081526004016119959061503b565b60405180910390fd5b80600260003373ffffffffffffffffffffffffffffffffffffffff1673ffffffffffffffffffffffffffffffffffffffff16815260200190815260200160002060010160008282546119f0919061505b565b92505081905550611b70565b600660003373ffffffffffffffffffffffffffffffffffffffff1673ffffffffffffffffffffffffffffffffffffffff16815260200190815260200160002060020160009054906101000a900460ff1615611b345780600660003373ffffffffffffffffffffffffffffffffffffffff1673ffffffffffffffffffffffffffffffffffffffff168152602001908152602001600020600101541015611ad6576040517f08c379a0000000000000000000000000000000000000000000000000000000008152600401611acd906150db565b60405180910390fd5b80600660003373ffffffffffffffffffffffffffffffffffffffff1673ffffffffffffffffffffffffffffffffffffffff1681526020019081526020016000206001016000828254611b28919061505b565b92505081905550611b6f565b6040517f08c379a0000000000000000000000000000000000000000000000000000000008152600401611b6690615147565b60405180910390fd5b5b60003373ffffffffffffffffffffffffffffffffffffffff1682604051611b9690615198565b60006040518083038185875af1925050503d8060008114611bd3576040519150601f19603f3d011682016040523d82523d6000602084013e611bd8565b606091505b5050905080611c1c576040517f08c379a0000000000000000000000000000000000000000000000000000000008152600401611c13906151f9565b60405180910390fd5b50611c2561381f565b50565b60066020528060005260406000206000915090508060000160009054906101000a900473ffffffffffffffffffffffffffffffffffffffff16908060010154908060020160009054906101000a900460ff16908060020160019054906101000a900460ff16905084565b600660003373ffffffffffffffffffffffffffffffffffffffff1673ffffffffffffffffffffffffffffffffffffffff16815260200190815260200160002060020160009054906101000a900460ff1615611d22576040517f08c379a0000000000000000000000000000000000000000000000000000000008152600401611d1990615265565b60405180910390fd5b60405180608001604052803373ffffffffffffffffffffffffffffffffffffffff1681526020016000815260200160011515815260200160001515815250600660003373ffffffffffffffffffffffffffffffffffffffff1673ffffffffffffffffffffffffffffffffffffffff16815260200190815260200160002060008201518160000160006101000a81548173ffffffffffffffffffffffffffffffffffffffff021916908373ffffffffffffffffffffffffffffffffffffffff1602179055506020820151816001015560408201518160020160006101000a81548160ff02191690831515021790555060608201518160020160016101000a81548160ff0219169083151502179055509050503373ffffffffffffffffffffffffffffffffffffffff167fb6696617b8ee12f244d0e82a5724fc8d7df5564dc5efe34933f81df1f837c0706001604051611e7a9190613db3565b60405180910390a2565b6040518060400160405280600781526020017f74696d656f757400000000000000000000000000000000000000000000000000815250805190602001208282604051611ed19291906152aa565b604051809103902003611eeb57611ee6610d8f565b611f8e565b6040518060400160405280600781526020017f7061796d656e7400000000000000000000000000000000000000000000000000815250805190602001208282604051611f389291906152aa565b604051809103902003611f5257611f4d61210e565b611f8d565b6040517f08c379a0000000000000000000000000000000000000000000000000000000008152600401611f849061530f565b60405180910390fd5b5b5050565b611f9a613c50565b600260003373ffffffffffffffffffffffffffffffffffffffff1673ffffffffffffffffffffffffffffffffffffffff16815260200190815260200160002060020160019054906101000a900460ff16612029576040517f08c379a00000000000000000000000000000000000000000000000000000000081526004016120209061537b565b60405180910390fd5b600260003373ffffffffffffffffffffffffffffffffffffffff1673ffffffffffffffffffffffffffffffffffffffff1681526020019081526020016000206040518060800160405290816000820160009054906101000a900473ffffffffffffffffffffffffffffffffffffffff1673ffffffffffffffffffffffffffffffffffffffff1673ffffffffffffffffffffffffffffffffffffffff168152602001600182015481526020016002820160009054906101000a900460ff161515151581526020016002820160019054906101000a900460ff161515151581525050905090565b6121166137d9565b60005b6004805490508110156124675760006004828154811061213c5761213b614c30565b5b906000526020600020906005020190506000600760008360010160009054906101000a900473ffffffffffffffffffffffffffffffffffffffff1673ffffffffffffffffffffffffffffffffffffffff1673ffffffffffffffffffffffffffffffffffffffff16815260200190815260200160002090508060050160009054906101000a900460ff1680156121e057508060050160019054906101000a900460ff16155b80156121f0575060008160030154115b801561220c575061012c81600301546122099190614f4f565b42115b801561228257508160030154600260008360020160009054906101000a900473ffffffffffffffffffffffffffffffffffffffff1673ffffffffffffffffffffffffffffffffffffffff1673ffffffffffffffffffffffffffffffffffffffff1681526020019081526020016000206001015410155b156123a75760018160050160016101000a81548160ff0219169083151502179055508160030154600260008360020160009054906101000a900473ffffffffffffffffffffffffffffffffffffffff1673ffffffffffffffffffffffffffffffffffffffff1673ffffffffffffffffffffffffffffffffffffffff168152602001908152602001600020600101600082825461231e919061505b565b925050819055508160030154600660008460010160009054906101000a900473ffffffffffffffffffffffffffffffffffffffff1673ffffffffffffffffffffffffffffffffffffffff1673ffffffffffffffffffffffffffffffffffffffff168152602001908152602001600020600101600082825461239f9190614f4f565b925050819055505b8060020160009054906101000a900473ffffffffffffffffffffffffffffffffffffffff1673ffffffffffffffffffffffffffffffffffffffff168160010160009054906101000a900473ffffffffffffffffffffffffffffffffffffffff1673ffffffffffffffffffffffffffffffffffffffff167f791ff5c84f9acebb4b26797f063e5992a2fe426c7b60a97e82d103e9c8b210e484600301546040516124509190613f0f565b60405180910390a350508080600101915050612119565b5061247061381f565b565b60076020528060005260406000206000915090508060000154908060010160009054906101000a900473ffffffffffffffffffffffffffffffffffffffff16908060020160009054906101000a900473ffffffffffffffffffffffffffffffffffffffff16908060030154908060040154908060050160009054906101000a900460ff16908060050160019054906101000a900460ff16905087565b600260003373ffffffffffffffffffffffffffffffffffffffff1673ffffffffffffffffffffffffffffffffffffffff16815260200190815260200160002060020160019054906101000a900460ff161561259e576040517f08c379a0000000000000000000000000000000000000000000000000000000008152600401612595906153e7565b60405180910390fd5b600260003373ffffffffffffffffffffffffffffffffffffffff1673ffffffffffffffffffffffffffffffffffffffff16815260200190815260200160002060020160009054906101000a900460ff161561262e576040517f08c379a000000000000000000000000000000000000000000000000000000000815260040161262590615453565b60405180910390fd5b60405180608001604052803373ffffffffffffffffffffffffffffffffffffffff1681526020016000815260200160001515815260200160011515815250600260003373ffffffffffffffffffffffffffffffffffffffff1673ffffffffffffffffffffffffffffffffffffffff16815260200190815260200160002060008201518160000160006101000a81548173ffffffffffffffffffffffffffffffffffffffff021916908373ffffffffffffffffffffffffffffffffffffffff1602179055506020820151816001015560408201518160020160006101000a81548160ff02191690831515021790555060608201518160020160016101000a81548160ff0219169083151502179055509050503373ffffffffffffffffffffffffffffffffffffffff167f77e2c0497197e0ec9be0552f1b02a0366bff8357993d2a2fab479650c6967ea160016040516127869190613db3565b60405180910390a2565b600060606000915060005b6004805490508110156129aa576000600482815481106127be576127bd614c30565b5b906000526020600020906005020190506000600760008360010160009054906101000a900473ffffffffffffffffffffffffffffffffffffffff1673ffffffffffffffffffffffffffffffffffffffff1673ffffffffffffffffffffffffffffffffffffffff16815260200190815260200160002090508060050160009054906101000a900460ff16801561286257508060050160019054906101000a900460ff16155b8015612872575080600401544210155b156128a75760019450600160405160200161288c906154bf565b604051602081830303815290604052945094505050506129c2565b8060050160009054906101000a900460ff1680156128d457508060050160019054906101000a900460ff16155b801561294a57508160030154600260008360020160009054906101000a900473ffffffffffffffffffffffffffffffffffffffff1673ffffffffffffffffffffffffffffffffffffffff1673ffffffffffffffffffffffffffffffffffffffff1681526020019081526020016000206001015410155b8015612966575061012c81600301546129639190614f4f565b42115b1561299b576001945060016040516020016129809061552b565b604051602081830303815290604052945094505050506129c2565b5050808060010191505061279b565b50600060405180602001604052806000815250915091505b9250929050565b3373ffffffffffffffffffffffffffffffffffffffff16600660003373ffffffffffffffffffffffffffffffffffffffff1673ffffffffffffffffffffffffffffffffffffffff16815260200190815260200160002060000160009054906101000a900473ffffffffffffffffffffffffffffffffffffffff1673ffffffffffffffffffffffffffffffffffffffff1614612a99576040517f08c379a0000000000000000000000000000000000000000000000000000000008152600401612a9090614a55565b60405180910390fd5b600660003373ffffffffffffffffffffffffffffffffffffffff1673ffffffffffffffffffffffffffffffffffffffff16815260200190815260200160002060020160009054906101000a900460ff16612b28576040517f08c379a0000000000000000000000000000000000000000000000000000000008152600401612b1f90614b2d565b60405180910390fd5b6000338383604051602001612b3f939291906155f0565b6040516020818303038152906040528051906020012090506005600082815260200190815260200160002060009054906101000a900460ff1615612bb8576040517f08c379a0000000000000000000000000000000000000000000000000000000008152600401612baf90615675565b60405180910390fd5b600460405180610120016040528060036000815480929190612bd990614be8565b9190505581526020013373ffffffffffffffffffffffffffffffffffffffff168152602001858152602001848152602001600073ffffffffffffffffffffffffffffffffffffffff1681526020016000151581526020016000151581526020016001151581526020016001151581525090806001815401808255809150506001900390600052602060002090600502016000909190919091506000820151816000015560208201518160010160006101000a81548173ffffffffffffffffffffffffffffffffffffffff021916908373ffffffffffffffffffffffffffffffffffffffff1602179055506040820151816002019081612cd89190615897565b506060820151816003015560808201518160040160006101000a81548173ffffffffffffffffffffffffffffffffffffffff021916908373ffffffffffffffffffffffffffffffffffffffff16021790555060a08201518160040160146101000a81548160ff02191690831515021790555060c08201518160040160156101000a81548160ff02191690831515021790555060e08201518160040160166101000a81548160ff0219169083151502179055506101008201518160040160176101000a81548160ff021916908315150217905550505060016005600083815260200190815260200160002060006101000a81548160ff0219169083151502179055503373ffffffffffffffffffffffffffffffffffffffff167fc92e830c7a6579616c317c0684d2eaf53fb889033a419d9b261f5e76594babbf6001604051612e209190613db3565b60405180910390a2505050565b612e35613493565b73ffffffffffffffffffffffffffffffffffffffff163373ffffffffffffffffffffffffffffffffffffffff1614612ea457336040517fd7f73334000000000000000000000000000000000000000000000000000000008152600401612e9b919061450a565b60405180910390fd5b612eb681612eb190615c07565b613829565b50565b60048181548110612ec957600080fd5b90600052602060002090600502016000915090508060000154908060010160009054906101000a900473ffffffffffffffffffffffffffffffffffffffff1690806002018054612f18906156c4565b80601f0160208091040260200160405190810160405280929190818152602001828054612f44906156c4565b8015612f915780601f10612f6657610100808354040283529160200191612f91565b820191906000526020600020905b815481529060010190602001808311612f7457829003601f168201915b5050505050908060030154908060040160009054906101000a900473ffffffffffffffffffffffffffffffffffffffff16908060040160149054906101000a900460ff16908060040160159054906101000a900460ff16908060040160169054906101000a900460ff16908060040160179054906101000a900460ff16905089565b600960009054906101000a900473ffffffffffffffffffffffffffffffffffffffff1681565b60606004805480602002602001604051908101604052809291908181526020016000905b8282101561324e578382906000526020600020906005020160405180610120016040529081600082015481526020016001820160009054906101000a900473ffffffffffffffffffffffffffffffffffffffff1673ffffffffffffffffffffffffffffffffffffffff1673ffffffffffffffffffffffffffffffffffffffff1681526020016002820180546130f1906156c4565b80601f016020809104026020016040519081016040528092919081815260200182805461311d906156c4565b801561316a5780601f1061313f5761010080835404028352916020019161316a565b820191906000526020600020905b81548152906001019060200180831161314d57829003601f168201915b50505050508152602001600382015481526020016004820160009054906101000a900473ffffffffffffffffffffffffffffffffffffffff1673ffffffffffffffffffffffffffffffffffffffff1673ffffffffffffffffffffffffffffffffffffffff1681526020016004820160149054906101000a900460ff161515151581526020016004820160159054906101000a900460ff161515151581526020016004820160169054906101000a900460ff161515151581526020016004820160179054906101000a900460ff1615151515815250508152602001906001019061305d565b50505050905090565b3373ffffffffffffffffffffffffffffffffffffffff16600260003373ffffffffffffffffffffffffffffffffffffffff1673ffffffffffffffffffffffffffffffffffffffff16815260200190815260200160002060000160009054906101000a900473ffffffffffffffffffffffffffffffffffffffff1673ffffffffffffffffffffffffffffffffffffffff1614613327576040517f08c379a000000000000000000000000000000000000000000000000000000000815260040161331e90614b99565b60405180910390fd5b600260003373ffffffffffffffffffffffffffffffffffffffff1673ffffffffffffffffffffffffffffffffffffffff16815260200190815260200160002060020160019054906101000a900460ff166133b6576040517f08c379a00000000000000000000000000000000000000000000000000000000081526004016133ad90614cab565b60405180910390fd5b6133be6137d9565b60003411613401576040517f08c379a00000000000000000000000000000000000000000000000000000000081526004016133f890615c66565b60405180910390fd5b34600260003373ffffffffffffffffffffffffffffffffffffffff1673ffffffffffffffffffffffffffffffffffffffff16815260200190815260200160002060010160008282546134539190614f4f565b9250508190555061346261381f565b565b600a6020528160005260406000206020528060005260406000206000915091509054906101000a900460ff1681565b60007f0000000000000000000000000000000000000000000000000000000000000000905090565b6134c3613c92565b600760003373ffffffffffffffffffffffffffffffffffffffff1673ffffffffffffffffffffffffffffffffffffffff1681526020019081526020016000206040518060e0016040529081600082015481526020016001820160009054906101000a900473ffffffffffffffffffffffffffffffffffffffff1673ffffffffffffffffffffffffffffffffffffffff1673ffffffffffffffffffffffffffffffffffffffff1681526020016002820160009054906101000a900473ffffffffffffffffffffffffffffffffffffffff1673ffffffffffffffffffffffffffffffffffffffff1673ffffffffffffffffffffffffffffffffffffffff16815260200160038201548152602001600482015481526020016005820160009054906101000a900460ff161515151581526020016005820160019054906101000a900460ff161515151581525050905090565b60056020528060005260406000206000915054906101000a900460ff1681565b600960009054906101000a900473ffffffffffffffffffffffffffffffffffffffff1673ffffffffffffffffffffffffffffffffffffffff163373ffffffffffffffffffffffffffffffffffffffff16146136c2576040517f08c379a00000000000000000000000000000000000000000000000000000000081526004016136b990614a55565b60405180910390fd5b80600a60008567ffffffffffffffff1667ffffffffffffffff16815260200190815260200160002060008473ffffffffffffffffffffffffffffffffffffffff1673ffffffffffffffffffffffffffffffffffffffff16815260200190815260200160002060006101000a81548160ff021916908315150217905550505050565b60035481565b600160009054906101000a900473ffffffffffffffffffffffffffffffffffffffff1681565b60026020528060005260406000206000915090508060000160009054906101000a900473ffffffffffffffffffffffffffffffffffffffff16908060010154908060020160009054906101000a900460ff16908060020160019054906101000a900460ff16905084565b600260005403613815576040517f3ee5aeb500000000000000000000000000000000000000000000000000000000815260040160405180910390fd5b6002600081905550565b6001600081905550565b600081606001518060200190518101906138439190615d3d565b9050600a6000836020015167ffffffffffffffff1667ffffffffffffffff1681526020019081526020016000206000836040015180602001905181019061388a9190615da8565b73ffffffffffffffffffffffffffffffffffffffff1673ffffffffffffffffffffffffffffffffffffffff16815260200190815260200160002060009054906101000a900460ff16613911576040517f08c379a000000000000000000000000000000000000000000000000000000000815260040161390890615e21565b60405180910390fd5b600073ffffffffffffffffffffffffffffffffffffffff16600482602001518154811061394157613940614c30565b5b906000526020600020906005020160010160009054906101000a900473ffffffffffffffffffffffffffffffffffffffff1673ffffffffffffffffffffffffffffffffffffffff16036139c9576040517f08c379a00000000000000000000000000000000000000000000000000000000081526004016139c090615e8d565b60405180910390fd5b806040015160026000836000015173ffffffffffffffffffffffffffffffffffffffff1673ffffffffffffffffffffffffffffffffffffffff1681526020019081526020016000206001016000828254613a239190614f4f565b92505081905550806060015115613ba95760006004826020015181548110613a4e57613a4d614c30565b5b906000526020600020906005020190508060040160149054906101000a900460ff1615613ab0576040517f08c379a0000000000000000000000000000000000000000000000000000000008152600401613aa790615ef9565b60405180910390fd5b600073ffffffffffffffffffffffffffffffffffffffff168160040160009054906101000a900473ffffffffffffffffffffffffffffffffffffffff1673ffffffffffffffffffffffffffffffffffffffff1614613b43576040517f08c379a0000000000000000000000000000000000000000000000000000000008152600401613b3a90614def565b60405180910390fd5b81600001518160040160006101000a81548173ffffffffffffffffffffffffffffffffffffffff021916908373ffffffffffffffffffffffffffffffffffffffff16021790555060018160040160156101000a81548160ff021916908315150217905550505b8060200151816000015173ffffffffffffffffffffffffffffffffffffffff167f1217ceb3af5a75891e8628b69f254213500bec437b0aa382000252478c7d744583604001518460600151604051613c02929190615f19565b60405180910390a35050565b6040518060800160405280600073ffffffffffffffffffffffffffffffffffffffff168152602001600081526020016000151581526020016000151581525090565b6040518060800160405280600073ffffffffffffffffffffffffffffffffffffffff168152602001600081526020016000151581526020016000151581525090565b6040518060e0016040528060008152602001600073ffffffffffffffffffffffffffffffffffffffff168152602001600073ffffffffffffffffffffffffffffffffffffffff16815260200160008152602001600081526020016000151581526020016000151581525090565b6000604051905090565b600080fd5b600080fd5b60007fffffffff0000000000000000000000000000000000000000000000000000000082169050919050565b613d4881613d13565b8114613d5357600080fd5b50565b600081359050613d6581613d3f565b92915050565b600060208284031215613d8157613d80613d09565b5b6000613d8f84828501613d56565b91505092915050565b60008115159050919050565b613dad81613d98565b82525050565b6000602082019050613dc86000830184613da4565b92915050565b600073ffffffffffffffffffffffffffffffffffffffff82169050919050565b6000613df982613dce565b9050919050565b613e0981613dee565b82525050565b6000819050919050565b613e2281613e0f565b82525050565b613e3181613d98565b82525050565b608082016000820151613e4d6000850182613e00565b506020820151613e606020850182613e19565b506040820151613e736040850182613e28565b506060820151613e866060850182613e28565b50505050565b6000608082019050613ea16000830184613e37565b92915050565b613eb081613dee565b8114613ebb57600080fd5b50565b600081359050613ecd81613ea7565b92915050565b600060208284031215613ee957613ee8613d09565b5b6000613ef784828501613ebe565b91505092915050565b613f0981613e0f565b82525050565b6000602082019050613f246000830184613f00565b92915050565b613f3381613e0f565b8114613f3e57600080fd5b50565b600081359050613f5081613f2a565b92915050565b600060208284031215613f6c57613f6b613d09565b5b6000613f7a84828501613f41565b91505092915050565b613f8c81613dee565b82525050565b6000608082019050613fa76000830187613f83565b613fb46020830186613f00565b613fc16040830185613da4565b613fce6060830184613da4565b95945050505050565b600080fd5b600080fd5b600080fd5b60008083601f840112613ffc57613ffb613fd7565b5b8235905067ffffffffffffffff81111561401957614018613fdc565b5b60208301915083600182028301111561403557614034613fe1565b5b9250929050565b6000806020838503121561405357614052613d09565b5b600083013567ffffffffffffffff81111561407157614070613d0e565b5b61407d85828601613fe6565b92509250509250929050565b60808201600082015161409f6000850182613e00565b5060208201516140b26020850182613e19565b5060408201516140c56040850182613e28565b5060608201516140d86060850182613e28565b50505050565b60006080820190506140f36000830184614089565b92915050565b600060e08201905061410e600083018a613f00565b61411b6020830189613f83565b6141286040830188613f83565b6141356060830187613f00565b6141426080830186613f00565b61414f60a0830185613da4565b61415c60c0830184613da4565b98975050505050505050565b600081519050919050565b600082825260208201905092915050565b60005b838110156141a2578082015181840152602081019050614187565b60008484015250505050565b6000601f19601f8301169050919050565b60006141ca82614168565b6141d48185614173565b93506141e4818560208601614184565b6141ed816141ae565b840191505092915050565b600060408201905061420d6000830185613da4565b818103602083015261421f81846141bf565b90509392505050565b600080fd5b7f4e487b7100000000000000000000000000000000000000000000000000000000600052604160045260246000fd5b614265826141ae565b810181811067ffffffffffffffff821117156142845761428361422d565b5b80604052505050565b6000614297613cff565b90506142a3828261425c565b919050565b600067ffffffffffffffff8211156142c3576142c261422d565b5b6142cc826141ae565b9050602081019050919050565b82818337600083830152505050565b60006142fb6142f6846142a8565b61428d565b90508281526020810184848401111561431757614316614228565b5b6143228482856142d9565b509392505050565b600082601f83011261433f5761433e613fd7565b5b813561434f8482602086016142e8565b91505092915050565b6000806040838503121561436f5761436e613d09565b5b600083013567ffffffffffffffff81111561438d5761438c613d0e565b5b6143998582860161432a565b92505060206143aa85828601613f41565b9150509250929050565b600080fd5b600060a082840312156143cf576143ce6143b4565b5b81905092915050565b6000602082840312156143ee576143ed613d09565b5b600082013567ffffffffffffffff81111561440c5761440b613d0e565b5b614418848285016143b9565b91505092915050565b600081519050919050565b600082825260208201905092915050565b600061444882614421565b614452818561442c565b9350614462818560208601614184565b61446b816141ae565b840191505092915050565b60006101208201905061448c600083018c613f00565b614499602083018b613f83565b81810360408301526144ab818a61443d565b90506144ba6060830189613f00565b6144c76080830188613f83565b6144d460a0830187613da4565b6144e160c0830186613da4565b6144ee60e0830185613da4565b6144fc610100830184613da4565b9a9950505050505050505050565b600060208201905061451f6000830184613f83565b92915050565b600081519050919050565b600082825260208201905092915050565b6000819050602082019050919050565b600082825260208201905092915050565b600061456d82614421565b6145778185614551565b9350614587818560208601614184565b614590816141ae565b840191505092915050565b6000610120830160008301516145b46000860182613e19565b5060208301516145c76020860182613e00565b50604083015184820360408601526145df8282614562565b91505060608301516145f46060860182613e19565b5060808301516146076080860182613e00565b5060a083015161461a60a0860182613e28565b5060c083015161462d60c0860182613e28565b5060e083015161464060e0860182613e28565b50610100830151614655610100860182613e28565b508091505092915050565b600061466c838361459b565b905092915050565b6000602082019050919050565b600061468c82614525565b6146968185614530565b9350836020820285016146a885614541565b8060005b858110156146e457848403895281516146c58582614660565b94506146d083614674565b925060208a019950506001810190506146ac565b50829750879550505050505092915050565b600060208201905081810360008301526147108184614681565b905092915050565b600067ffffffffffffffff82169050919050565b61473581614718565b811461474057600080fd5b50565b6000813590506147528161472c565b92915050565b6000806040838503121561476f5761476e613d09565b5b600061477d85828601614743565b925050602061478e85828601613ebe565b9150509250929050565b60e0820160008201516147ae6000850182613e19565b5060208201516147c16020850182613e00565b5060408201516147d46040850182613e00565b5060608201516147e76060850182613e19565b5060808201516147fa6080850182613e19565b5060a082015161480d60a0850182613e28565b5060c082015161482060c0850182613e28565b50505050565b600060e08201905061483b6000830184614798565b92915050565b6000819050919050565b61485481614841565b811461485f57600080fd5b50565b6000813590506148718161484b565b92915050565b60006020828403121561488d5761488c613d09565b5b600061489b84828501614862565b91505092915050565b6148ad81613d98565b81146148b857600080fd5b50565b6000813590506148ca816148a4565b92915050565b6000806000606084860312156148e9576148e8613d09565b5b60006148f786828701614743565b935050602061490886828701613ebe565b9250506040614919868287016148bb565b9150509250925092565b6000819050919050565b600061494861494361493e84613dce565b614923565b613dce565b9050919050565b600061495a8261492d565b9050919050565b600061496c8261494f565b9050919050565b61497c81614961565b82525050565b60006020820190506149976000830184614973565b92915050565b7f4e6f7420612072656769737465726564206c616e646c6f726400000000000000600082015250565b60006149d360198361442c565b91506149de8261499d565b602082019050919050565b60006020820190508181036000830152614a02816149c6565b9050919050565b7f4e6f74204c616e646c6f72640000000000000000000000000000000000000000600082015250565b6000614a3f600c8361442c565b9150614a4a82614a09565b602082019050919050565b60006020820190508181036000830152614a6e81614a32565b9050919050565b7f52656e74616c20616c7265616479207369676e65640000000000000000000000600082015250565b6000614aab60158361442c565b9150614ab682614a75565b602082019050919050565b60006020820190508181036000830152614ada81614a9e565b9050919050565b7f4e6f7420612072656769737465726564204c616e646c6f726400000000000000600082015250565b6000614b1760198361442c565b9150614b2282614ae1565b602082019050919050565b60006020820190508181036000830152614b4681614b0a565b9050919050565b7f4e6f74206120726567697374657265642074656e616e74000000000000000000600082015250565b6000614b8360178361442c565b9150614b8e82614b4d565b602082019050919050565b60006020820190508181036000830152614bb281614b76565b9050919050565b7f4e487b7100000000000000000000000000000000000000000000000000000000600052601160045260246000fd5b6000614bf382613e0f565b91507fffffffffffffffffffffffffffffffffffffffffffffffffffffffffffffffff8203614c2557614c24614bb9565b5b600182019050919050565b7f4e487b7100000000000000000000000000000000000000000000000000000000600052603260045260246000fd5b7f54656e616e74206e6f7420726567697374657265640000000000000000000000600082015250565b6000614c9560158361442c565b9150614ca082614c5f565b602082019050919050565b60006020820190508181036000830152614cc481614c88565b9050919050565b7f496e76616c69642050726f706572742049640000000000000000000000000000600082015250565b6000614d0160128361442c565b9150614d0c82614ccb565b602082019050919050565b60006020820190508181036000830152614d3081614cf4565b9050919050565b7f50726f706572747920616c7265616479206f6363757069656400000000000000600082015250565b6000614d6d60198361442c565b9150614d7882614d37565b602082019050919050565b60006020820190508181036000830152614d9c81614d60565b9050919050565b7f416c726561647920726571756573746564000000000000000000000000000000600082015250565b6000614dd960118361442c565b9150614de482614da3565b602082019050919050565b60006020820190508181036000830152614e0881614dcc565b9050919050565b7f496e73756666696369656e742062616c616e636520746f2066756e642072656e60008201527f74616c0000000000000000000000000000000000000000000000000000000000602082015250565b6000614e6b60238361442c565b9150614e7682614e0f565b604082019050919050565b60006020820190508181036000830152614e9a81614e5e565b9050919050565b7f52656e74616c20416c7265616479207369676e65640000000000000000000000600082015250565b6000614ed760158361442c565b9150614ee282614ea1565b602082019050919050565b60006020820190508181036000830152614f0681614eca565b9050919050565b6000614f1882613e0f565b9150614f2383613e0f565b9250828202614f3181613e0f565b91508282048414831517614f4857614f47614bb9565b5b5092915050565b6000614f5a82613e0f565b9150614f6583613e0f565b9250828201905080821115614f7d57614f7c614bb9565b5b92915050565b7f496e76616c696420696e70757420616d6f756e74000000000000000000000000600082015250565b6000614fb960148361442c565b9150614fc482614f83565b602082019050919050565b60006020820190508181036000830152614fe881614fac565b9050919050565b7f596f75206861766520696e73756666696369656e742066756e64732000000000600082015250565b6000615025601c8361442c565b915061503082614fef565b602082019050919050565b6000602082019050818103600083015261505481615018565b9050919050565b600061506682613e0f565b915061507183613e0f565b925082820390508181111561508957615088614bb9565b5b92915050565b7f596f75206861766520696e73756666696369656e742066756e64730000000000600082015250565b60006150c5601b8361442c565b91506150d08261508f565b602082019050919050565b600060208201905081810360008301526150f4816150b8565b9050919050565b7f4e6f742072656769737465726564206f6e207468697320706c6174666f726d00600082015250565b6000615131601f8361442c565b915061513c826150fb565b602082019050919050565b6000602082019050818103600083015261516081615124565b9050919050565b600081905092915050565b50565b6000615182600083615167565b915061518d82615172565b600082019050919050565b60006151a382615175565b9150819050919050565b7f5769746864726177206661696c65640000000000000000000000000000000000600082015250565b60006151e3600f8361442c565b91506151ee826151ad565b602082019050919050565b60006020820190508181036000830152615212816151d6565b9050919050565b7f4c616e646c6f726420616c726561647920726567697374657265640000000000600082015250565b600061524f601b8361442c565b915061525a82615219565b602082019050919050565b6000602082019050818103600083015261527e81615242565b9050919050565b60006152918385615167565b935061529e8385846142d9565b82840190509392505050565b60006152b7828486615285565b91508190509392505050565b7f556e6b6e6f776e2075706b65657020616374696f6e0000000000000000000000600082015250565b60006152f960158361442c565b9150615304826152c3565b602082019050919050565b60006020820190508181036000830152615328816152ec565b9050919050565b7f596f7520617265206e6f74206120726567697374657265642074656e616e7400600082015250565b6000615365601f8361442c565b91506153708261532f565b602082019050919050565b6000602082019050818103600083015261539481615358565b9050919050565b7f54656e616e7420616c7265647920726567697374657265640000000000000000600082015250565b60006153d160188361442c565b91506153dc8261539b565b602082019050919050565b60006020820190508181036000830152615400816153c4565b9050919050565b7f54656e616e7420416c7265616479207265676973746572656400000000000000600082015250565b600061543d60198361442c565b915061544882615407565b602082019050919050565b6000602082019050818103600083015261546c81615430565b9050919050565b7f74696d656f757400000000000000000000000000000000000000000000000000600082015250565b60006154a960078361442c565b91506154b482615473565b602082019050919050565b600060208201905081810360008301526154d88161549c565b9050919050565b7f7061796d656e7400000000000000000000000000000000000000000000000000600082015250565b600061551560078361442c565b9150615520826154df565b602082019050919050565b6000602082019050818103600083015261554481615508565b9050919050565b60008160601b9050919050565b60006155638261554b565b9050919050565b600061557582615558565b9050919050565b61558d61558882613dee565b61556a565b82525050565b600081905092915050565b60006155a982614421565b6155b38185615593565b93506155c3818560208601614184565b80840191505092915050565b6000819050919050565b6155ea6155e582613e0f565b6155cf565b82525050565b60006155fc828661557c565b60148201915061560c828561559e565b915061561882846155d9565b602082019150819050949350505050565b7f50726f706572747920416c726561647920726567697374657265640000000000600082015250565b600061565f601b8361442c565b915061566a82615629565b602082019050919050565b6000602082019050818103600083015261568e81615652565b9050919050565b7f4e487b7100000000000000000000000000000000000000000000000000000000600052602260045260246000fd5b600060028204905060018216806156dc57607f821691505b6020821081036156ef576156ee615695565b5b50919050565b60008190508160005260206000209050919050565b60006020601f8301049050919050565b600082821b905092915050565b6000600883026157577fffffffffffffffffffffffffffffffffffffffffffffffffffffffffffffffff8261571a565b615761868361571a565b95508019841693508086168417925050509392505050565b600061579461578f61578a84613e0f565b614923565b613e0f565b9050919050565b6000819050919050565b6157ae83615779565b6157c26157ba8261579b565b848454615727565b825550505050565b600090565b6157d76157ca565b6157e28184846157a5565b505050565b5b81811015615806576157fb6000826157cf565b6001810190506157e8565b5050565b601f82111561584b5761581c816156f5565b6158258461570a565b81016020851015615834578190505b6158486158408561570a565b8301826157e7565b50505b505050565b600082821c905092915050565b600061586e60001984600802615850565b1980831691505092915050565b6000615887838361585d565b9150826002028217905092915050565b6158a082614421565b67ffffffffffffffff8111156158b9576158b861422d565b5b6158c382546156c4565b6158ce82828561580a565b600060209050601f83116001811461590157600084156158ef578287015190505b6158f9858261587b565b865550615961565b601f19841661590f866156f5565b60005b8281101561593757848901518255600182019150602085019450602081019050615912565b868310156159545784890151615950601f89168261585d565b8355505b6001600288020188555050505b505050505050565b600080fd5b600080fd5b600067ffffffffffffffff82111561598e5761598d61422d565b5b615997826141ae565b9050602081019050919050565b60006159b76159b284615973565b61428d565b9050828152602081018484840111156159d3576159d2614228565b5b6159de8482856142d9565b509392505050565b600082601f8301126159fb576159fa613fd7565b5b8135615a0b8482602086016159a4565b91505092915050565b600067ffffffffffffffff821115615a2f57615a2e61422d565b5b602082029050602081019050919050565b600060408284031215615a5657615a55615969565b5b615a60604061428d565b90506000615a7084828501613ebe565b6000830152506020615a8484828501613f41565b60208301525092915050565b6000615aa3615a9e84615a14565b61428d565b90508083825260208201905060408402830185811115615ac657615ac5613fe1565b5b835b81811015615aef5780615adb8882615a40565b845260208401935050604081019050615ac8565b5050509392505050565b600082601f830112615b0e57615b0d613fd7565b5b8135615b1e848260208601615a90565b91505092915050565b600060a08284031215615b3d57615b3c615969565b5b615b4760a061428d565b90506000615b5784828501614862565b6000830152506020615b6b84828501614743565b602083015250604082013567ffffffffffffffff811115615b8f57615b8e61596e565b5b615b9b848285016159e6565b604083015250606082013567ffffffffffffffff811115615bbf57615bbe61596e565b5b615bcb848285016159e6565b606083015250608082013567ffffffffffffffff811115615bef57615bee61596e565b5b615bfb84828501615af9565b60808301525092915050565b6000615c133683615b27565b9050919050565b7f4d7573742073656e6420736f6d65204554487400000000000000000000000000600082015250565b6000615c5060138361442c565b9150615c5b82615c1a565b602082019050919050565b60006020820190508181036000830152615c7f81615c43565b9050919050565b600081519050615c9581613ea7565b92915050565b600081519050615caa81613f2a565b92915050565b600081519050615cbf816148a4565b92915050565b600060808284031215615cdb57615cda615969565b5b615ce5608061428d565b90506000615cf584828501615c86565b6000830152506020615d0984828501615c9b565b6020830152506040615d1d84828501615c9b565b6040830152506060615d3184828501615cb0565b60608301525092915050565b600060808284031215615d5357615d52613d09565b5b6000615d6184828501615cc5565b91505092915050565b6000615d7582613dce565b9050919050565b615d8581615d6a565b8114615d9057600080fd5b50565b600081519050615da281615d7c565b92915050565b600060208284031215615dbe57615dbd613d09565b5b6000615dcc84828501615d93565b91505092915050565b7f556e617574686f72697a65642073656e64657200000000000000000000000000600082015250565b6000615e0b60138361442c565b9150615e1682615dd5565b602082019050919050565b60006020820190508181036000830152615e3a81615dfe565b9050919050565b7f496e76616c69642070726f706572747900000000000000000000000000000000600082015250565b6000615e7760108361442c565b9150615e8282615e41565b602082019050919050565b60006020820190508181036000830152615ea681615e6a565b9050919050565b7f416c7265616479206f6363757069656400000000000000000000000000000000600082015250565b6000615ee360108361442c565b9150615eee82615ead565b602082019050919050565b60006020820190508181036000830152615f1281615ed6565b9050919050565b6000604082019050615f2e6000830185613f00565b615f3b6020830184613da4565b939250505056fea264697066735822122019b5a88e4e1572de0546fe5f3d5da44e1b3c24a141c9148ca69b0abe8b1d04a964736f6c634300081c0033",
  "linkReferences": {},
  "deployedLinkReferences": {}
}